{
  "_format": "hh-sol-artifact-1",
  "contractName": "FxERC20",
  "sourceName": "contracts/tokens/FxERC20.sol",
  "abi": [
    {
      "anonymous": false,
      "inputs": [
        {
          "indexed": true,
          "internalType": "address",
          "name": "owner",
          "type": "address"
        },
        {
          "indexed": true,
          "internalType": "address",
          "name": "spender",
          "type": "address"
        },
        {
          "indexed": false,
          "internalType": "uint256",
          "name": "value",
          "type": "uint256"
        }
      ],
      "name": "Approval",
      "type": "event"
    },
    {
      "anonymous": false,
      "inputs": [
        {
          "indexed": true,
          "internalType": "address",
          "name": "from",
          "type": "address"
        },
        {
          "indexed": true,
          "internalType": "address",
          "name": "to",
          "type": "address"
        },
        {
          "indexed": false,
          "internalType": "uint256",
          "name": "value",
          "type": "uint256"
        }
      ],
      "name": "Transfer",
      "type": "event"
    },
    {
      "inputs": [
        {
          "internalType": "address",
          "name": "owner",
          "type": "address"
        },
        {
          "internalType": "address",
          "name": "spender",
          "type": "address"
        }
      ],
      "name": "allowance",
      "outputs": [
        {
          "internalType": "uint256",
          "name": "",
          "type": "uint256"
        }
      ],
      "stateMutability": "view",
      "type": "function"
    },
    {
      "inputs": [
        {
          "internalType": "address",
          "name": "spender",
          "type": "address"
        },
        {
          "internalType": "uint256",
          "name": "amount",
          "type": "uint256"
        }
      ],
      "name": "approve",
      "outputs": [
        {
          "internalType": "bool",
          "name": "",
          "type": "bool"
        }
      ],
      "stateMutability": "nonpayable",
      "type": "function"
    },
    {
      "inputs": [
        {
          "internalType": "address",
          "name": "account",
          "type": "address"
        }
      ],
      "name": "balanceOf",
      "outputs": [
        {
          "internalType": "uint256",
          "name": "",
          "type": "uint256"
        }
      ],
      "stateMutability": "view",
      "type": "function"
    },
    {
      "inputs": [
        {
          "internalType": "address",
          "name": "user",
          "type": "address"
        },
        {
          "internalType": "uint256",
          "name": "amount",
          "type": "uint256"
        }
      ],
      "name": "burn",
      "outputs": [],
      "stateMutability": "nonpayable",
      "type": "function"
    },
    {
      "inputs": [],
      "name": "connectedToken",
      "outputs": [
        {
          "internalType": "address",
          "name": "",
          "type": "address"
        }
      ],
      "stateMutability": "view",
      "type": "function"
    },
    {
      "inputs": [],
      "name": "decimals",
      "outputs": [
        {
          "internalType": "uint8",
          "name": "",
          "type": "uint8"
        }
      ],
      "stateMutability": "view",
      "type": "function"
    },
    {
      "inputs": [
        {
          "internalType": "address",
          "name": "spender",
          "type": "address"
        },
        {
          "internalType": "uint256",
          "name": "subtractedValue",
          "type": "uint256"
        }
      ],
      "name": "decreaseAllowance",
      "outputs": [
        {
          "internalType": "bool",
          "name": "",
          "type": "bool"
        }
      ],
      "stateMutability": "nonpayable",
      "type": "function"
    },
    {
      "inputs": [],
      "name": "fxManager",
      "outputs": [
        {
          "internalType": "address",
          "name": "",
          "type": "address"
        }
      ],
      "stateMutability": "view",
      "type": "function"
    },
    {
      "inputs": [
        {
          "internalType": "address",
          "name": "spender",
          "type": "address"
        },
        {
          "internalType": "uint256",
          "name": "addedValue",
          "type": "uint256"
        }
      ],
      "name": "increaseAllowance",
      "outputs": [
        {
          "internalType": "bool",
          "name": "",
          "type": "bool"
        }
      ],
      "stateMutability": "nonpayable",
      "type": "function"
    },
    {
      "inputs": [
        {
          "internalType": "address",
          "name": "fxManager_",
          "type": "address"
        },
        {
          "internalType": "address",
          "name": "connectedToken_",
          "type": "address"
        },
        {
          "internalType": "string",
          "name": "name_",
          "type": "string"
        },
        {
          "internalType": "string",
          "name": "symbol_",
          "type": "string"
        },
        {
          "internalType": "uint8",
          "name": "decimals_",
          "type": "uint8"
        }
      ],
      "name": "initialize",
      "outputs": [],
      "stateMutability": "nonpayable",
      "type": "function"
    },
    {
      "inputs": [
        {
          "internalType": "address",
          "name": "",
          "type": "address"
        }
      ],
      "name": "managers",
      "outputs": [
        {
          "internalType": "bool",
          "name": "",
          "type": "bool"
        }
      ],
      "stateMutability": "view",
      "type": "function"
    },
    {
      "inputs": [
        {
          "internalType": "address",
          "name": "user",
          "type": "address"
        },
        {
          "internalType": "uint256",
          "name": "amount",
          "type": "uint256"
        }
      ],
      "name": "mint",
      "outputs": [],
      "stateMutability": "nonpayable",
      "type": "function"
    },
    {
      "inputs": [
        {
          "internalType": "address",
          "name": "user",
          "type": "address"
        },
        {
          "internalType": "uint256",
          "name": "amount",
          "type": "uint256"
        }
      ],
      "name": "mintForManagers",
      "outputs": [],
      "stateMutability": "nonpayable",
      "type": "function"
    },
    {
      "inputs": [],
      "name": "name",
      "outputs": [
        {
          "internalType": "string",
          "name": "",
          "type": "string"
        }
      ],
      "stateMutability": "view",
      "type": "function"
    },
    {
      "inputs": [
        {
          "internalType": "string",
          "name": "_name",
          "type": "string"
        },
        {
          "internalType": "string",
          "name": "_symbol",
          "type": "string"
        },
        {
          "internalType": "uint8",
          "name": "_decimals",
          "type": "uint8"
        }
      ],
      "name": "setupMetaData",
      "outputs": [],
      "stateMutability": "nonpayable",
      "type": "function"
    },
    {
      "inputs": [],
      "name": "symbol",
      "outputs": [
        {
          "internalType": "string",
          "name": "",
          "type": "string"
        }
      ],
      "stateMutability": "view",
      "type": "function"
    },
    {
      "inputs": [],
      "name": "totalSupply",
      "outputs": [
        {
          "internalType": "uint256",
          "name": "",
          "type": "uint256"
        }
      ],
      "stateMutability": "view",
      "type": "function"
    },
    {
      "inputs": [
        {
          "internalType": "address",
          "name": "recipient",
          "type": "address"
        },
        {
          "internalType": "uint256",
          "name": "amount",
          "type": "uint256"
        }
      ],
      "name": "transfer",
      "outputs": [
        {
          "internalType": "bool",
          "name": "",
          "type": "bool"
        }
      ],
      "stateMutability": "nonpayable",
      "type": "function"
    },
    {
      "inputs": [
        {
          "internalType": "address",
          "name": "sender",
          "type": "address"
        },
        {
          "internalType": "address",
          "name": "recipient",
          "type": "address"
        },
        {
          "internalType": "uint256",
          "name": "amount",
          "type": "uint256"
        }
      ],
      "name": "transferFrom",
      "outputs": [
        {
          "internalType": "bool",
          "name": "",
          "type": "bool"
        }
      ],
      "stateMutability": "nonpayable",
      "type": "function"
    }
  ],
  "bytecode": "0x608060405234801561001057600080fd5b5061145f806100206000396000f3fe608060405234801561001057600080fd5b50600436106101515760003560e01c8063723a1035116100cd578063a457c2d711610081578063af1e6be711610066578063af1e6be7146102f8578063dd62ed3e1461030b578063fdff9b4d1461035157600080fd5b8063a457c2d7146102d2578063a9059cbb146102e557600080fd5b806395d89b41116100b257806395d89b41146102945780639b7791531461029c5780639dc29fac146102bf57600080fd5b8063723a10351461026e5780638420ce991461028157600080fd5b806323b872dd116101245780633950935111610109578063395093511461021057806340c10f191461022357806370a082311461023857600080fd5b806323b872dd146101e8578063313ce567146101fb57600080fd5b806306fdde0314610156578063095ea7b3146101745780630a8a49141461019757806318160ddd146101d6575b600080fd5b61015e610374565b60405161016b9190611240565b60405180910390f35b6101876101823660046111a2565b610406565b604051901515815260200161016b565b60065473ffffffffffffffffffffffffffffffffffffffff165b60405173ffffffffffffffffffffffffffffffffffffffff909116815260200161016b565b6002545b60405190815260200161016b565b6101876101f6366004611166565b61041c565b60055460405160ff909116815260200161016b565b61018761021e3660046111a2565b610492565b6102366102313660046111a2565b6104d5565b005b6101da610246366004611082565b73ffffffffffffffffffffffffffffffffffffffff1660009081526020819052604090205490565b61023661027c3660046111a2565b610554565b61023661028f3660046110d0565b610570565b61015e61068a565b600554610100900473ffffffffffffffffffffffffffffffffffffffff166101b1565b6102366102cd3660046111a2565b610699565b6101876102e03660046111a2565b61070f565b6101876102f33660046111a2565b61076b565b6102366103063660046111cc565b610778565b6101da61031936600461109d565b73ffffffffffffffffffffffffffffffffffffffff918216600090815260016020908152604080832093909416825291909152205490565b61018761035f366004611082565b60076020526000908152604090205460ff1681565b606060038054610383906112e2565b80601f01602080910402602001604051908101604052809291908181526020018280546103af906112e2565b80156103fc5780601f106103d1576101008083540402835291602001916103fc565b820191906000526020600020905b8154815290600101906020018083116103df57829003601f168201915b5050505050905090565b60006104133384846107f4565b50600192915050565b6000610429848484610974565b6104888433610483856040518060600160405280602881526020016113dd6028913973ffffffffffffffffffffffffffffffffffffffff8a1660009081526001602090815260408083203384529091529020549190610b6a565b6107f4565b5060019392505050565b33600081815260016020908152604080832073ffffffffffffffffffffffffffffffffffffffff8716845290915281205490916104139185906104839086610ba4565b600554610100900473ffffffffffffffffffffffffffffffffffffffff1633146105465760405162461bcd60e51b815260206004820152600e60248201527f496e76616c69642073656e64657200000000000000000000000000000000000060448201526064015b60405180910390fd5b6105508282610c0a565b5050565b3360009081526007602052604090205460ff1661054657600080fd5b600554610100900473ffffffffffffffffffffffffffffffffffffffff161580156105b1575060065473ffffffffffffffffffffffffffffffffffffffff16155b6105fd5760405162461bcd60e51b815260206004820152601c60248201527f546f6b656e20697320616c726561647920696e697469616c697a656400000000604482015260640161053d565b600580547fffffffffffffffffffffff0000000000000000000000000000000000000000ff1661010073ffffffffffffffffffffffffffffffffffffffff8881169190910291909117909155600680547fffffffffffffffffffffffff000000000000000000000000000000000000000016918616919091179055610683838383610778565b5050505050565b606060048054610383906112e2565b600554610100900473ffffffffffffffffffffffffffffffffffffffff1633146107055760405162461bcd60e51b815260206004820152600e60248201527f496e76616c69642073656e646572000000000000000000000000000000000000604482015260640161053d565b6105508282610d10565b60006104133384610483856040518060600160405280602581526020016114056025913933600090815260016020908152604080832073ffffffffffffffffffffffffffffffffffffffff8d1684529091529020549190610b6a565b6000610413338484610974565b600554610100900473ffffffffffffffffffffffffffffffffffffffff1633146107e45760405162461bcd60e51b815260206004820152600e60248201527f496e76616c69642073656e646572000000000000000000000000000000000000604482015260640161053d565b6107ef838383610e64565b505050565b73ffffffffffffffffffffffffffffffffffffffff831661087c5760405162461bcd60e51b8152602060048201526024808201527f45524332303a20617070726f76652066726f6d20746865207a65726f2061646460448201527f7265737300000000000000000000000000000000000000000000000000000000606482015260840161053d565b73ffffffffffffffffffffffffffffffffffffffff82166109055760405162461bcd60e51b815260206004820152602260248201527f45524332303a20617070726f766520746f20746865207a65726f20616464726560448201527f7373000000000000000000000000000000000000000000000000000000000000606482015260840161053d565b73ffffffffffffffffffffffffffffffffffffffff83811660008181526001602090815260408083209487168084529482529182902085905590518481527f8c5be1e5ebec7d5bd14f71427d1e84f3dd0314c0f7b2291e5b200ac8c7c3b92591015b60405180910390a3505050565b73ffffffffffffffffffffffffffffffffffffffff83166109fd5760405162461bcd60e51b815260206004820152602560248201527f45524332303a207472616e736665722066726f6d20746865207a65726f20616460448201527f6472657373000000000000000000000000000000000000000000000000000000606482015260840161053d565b73ffffffffffffffffffffffffffffffffffffffff8216610a865760405162461bcd60e51b815260206004820152602360248201527f45524332303a207472616e7366657220746f20746865207a65726f206164647260448201527f6573730000000000000000000000000000000000000000000000000000000000606482015260840161053d565b610ad0816040518060600160405280602681526020016113b76026913973ffffffffffffffffffffffffffffffffffffffff86166000908152602081905260409020549190610b6a565b73ffffffffffffffffffffffffffffffffffffffff8085166000908152602081905260408082209390935590841681522054610b0c9082610ba4565b73ffffffffffffffffffffffffffffffffffffffff8381166000818152602081815260409182902094909455518481529092918616917fddf252ad1be2c89b69c2b068fc378daa952ba7f163c4a11628f55a4df523b3ef9101610967565b60008184841115610b8e5760405162461bcd60e51b815260040161053d9190611240565b506000610b9b84866112cb565b95945050505050565b600080610bb183856112b3565b905083811015610c035760405162461bcd60e51b815260206004820152601b60248201527f536166654d6174683a206164646974696f6e206f766572666c6f770000000000604482015260640161053d565b9392505050565b73ffffffffffffffffffffffffffffffffffffffff8216610c6d5760405162461bcd60e51b815260206004820152601f60248201527f45524332303a206d696e7420746f20746865207a65726f206164647265737300604482015260640161053d565b600254610c7a9082610ba4565b60025573ffffffffffffffffffffffffffffffffffffffff8216600090815260208190526040902054610cad9082610ba4565b73ffffffffffffffffffffffffffffffffffffffff8316600081815260208181526040808320949094559251848152919290917fddf252ad1be2c89b69c2b068fc378daa952ba7f163c4a11628f55a4df523b3ef91015b60405180910390a35050565b73ffffffffffffffffffffffffffffffffffffffff8216610d995760405162461bcd60e51b815260206004820152602160248201527f45524332303a206275726e2066726f6d20746865207a65726f2061646472657360448201527f7300000000000000000000000000000000000000000000000000000000000000606482015260840161053d565b610de3816040518060600160405280602281526020016113956022913973ffffffffffffffffffffffffffffffffffffffff85166000908152602081905260409020549190610b6a565b73ffffffffffffffffffffffffffffffffffffffff8316600090815260208190526040902055600254610e169082610ec2565b60025560405181815260009073ffffffffffffffffffffffffffffffffffffffff8416907fddf252ad1be2c89b69c2b068fc378daa952ba7f163c4a11628f55a4df523b3ef90602001610d04565b8251610e77906003906020860190610f04565b508151610e8b906004906020850190610f04565b50600580547fffffffffffffffffffffffffffffffffffffffffffffffffffffffffffffff001660ff929092169190911790555050565b6000610c0383836040518060400160405280601e81526020017f536166654d6174683a207375627472616374696f6e206f766572666c6f770000815250610b6a565b828054610f10906112e2565b90600052602060002090601f016020900481019282610f325760008555610f78565b82601f10610f4b57805160ff1916838001178555610f78565b82800160010185558215610f78579182015b82811115610f78578251825591602001919060010190610f5d565b50610f84929150610f88565b5090565b5b80821115610f845760008155600101610f89565b803573ffffffffffffffffffffffffffffffffffffffff81168114610fc157600080fd5b919050565b600082601f830112610fd757600080fd5b813567ffffffffffffffff80821115610ff257610ff2611365565b604051601f83017fffffffffffffffffffffffffffffffffffffffffffffffffffffffffffffffe0908116603f0116810190828211818310171561103857611038611365565b8160405283815286602085880101111561105157600080fd5b836020870160208301376000602085830101528094505050505092915050565b803560ff81168114610fc157600080fd5b60006020828403121561109457600080fd5b610c0382610f9d565b600080604083850312156110b057600080fd5b6110b983610f9d565b91506110c760208401610f9d565b90509250929050565b600080600080600060a086880312156110e857600080fd5b6110f186610f9d565b94506110ff60208701610f9d565b9350604086013567ffffffffffffffff8082111561111c57600080fd5b61112889838a01610fc6565b9450606088013591508082111561113e57600080fd5b5061114b88828901610fc6565b92505061115a60808701611071565b90509295509295909350565b60008060006060848603121561117b57600080fd5b61118484610f9d565b925061119260208501610f9d565b9150604084013590509250925092565b600080604083850312156111b557600080fd5b6111be83610f9d565b946020939093013593505050565b6000806000606084860312156111e157600080fd5b833567ffffffffffffffff808211156111f957600080fd5b61120587838801610fc6565b9450602086013591508082111561121b57600080fd5b5061122886828701610fc6565b92505061123760408501611071565b90509250925092565b600060208083528351808285015260005b8181101561126d57858101830151858201604001528201611251565b8181111561127f576000604083870101525b50601f017fffffffffffffffffffffffffffffffffffffffffffffffffffffffffffffffe016929092016040019392505050565b600082198211156112c6576112c6611336565b500190565b6000828210156112dd576112dd611336565b500390565b600181811c908216806112f657607f821691505b60208210811415611330577f4e487b7100000000000000000000000000000000000000000000000000000000600052602260045260246000fd5b50919050565b7f4e487b7100000000000000000000000000000000000000000000000000000000600052601160045260246000fd5b7f4e487b7100000000000000000000000000000000000000000000000000000000600052604160045260246000fdfe45524332303a206275726e20616d6f756e7420657863656564732062616c616e636545524332303a207472616e7366657220616d6f756e7420657863656564732062616c616e636545524332303a207472616e7366657220616d6f756e74206578636565647320616c6c6f77616e636545524332303a2064656372656173656420616c6c6f77616e63652062656c6f77207a65726fa2646970667358221220cc94da572a685e63d8dad16e750691577cf4d17438a3dff56a49bcb2baf6097c64736f6c63430008070033",
  "linkReferences": {},
  "deployedLinkReferences": {}
}