{
  "_format": "hh-sol-artifact-1",
  "contractName": "FxERC1155ChildTunnel",
  "sourceName": "contracts/examples/erc1155-transfer/FxERC1155ChildTunnel.sol",
  "abi": [
    {
      "inputs": [
        {
          "internalType": "address",
          "name": "_fxChild",
          "type": "address"
        },
        {
          "internalType": "address",
          "name": "_tokenTemplate",
          "type": "address"
        }
      ],
      "stateMutability": "nonpayable",
      "type": "constructor"
    },
    {
      "anonymous": false,
      "inputs": [
        {
          "indexed": false,
          "internalType": "bytes",
          "name": "message",
          "type": "bytes"
        }
      ],
      "name": "MessageSent",
      "type": "event"
    },
    {
      "anonymous": false,
      "inputs": [
        {
          "indexed": true,
          "internalType": "address",
          "name": "rootToken",
          "type": "address"
        },
        {
          "indexed": true,
          "internalType": "address",
          "name": "childToken",
          "type": "address"
        }
      ],
      "name": "TokenMapped",
      "type": "event"
    },
    {
      "inputs": [],
      "name": "DEPOSIT",
      "outputs": [
        {
          "internalType": "bytes32",
          "name": "",
          "type": "bytes32"
        }
      ],
      "stateMutability": "view",
      "type": "function"
    },
    {
      "inputs": [],
      "name": "DEPOSIT_BATCH",
      "outputs": [
        {
          "internalType": "bytes32",
          "name": "",
          "type": "bytes32"
        }
      ],
      "stateMutability": "view",
      "type": "function"
    },
    {
      "inputs": [],
      "name": "MAP_TOKEN",
      "outputs": [
        {
          "internalType": "bytes32",
          "name": "",
          "type": "bytes32"
        }
      ],
      "stateMutability": "view",
      "type": "function"
    },
    {
      "inputs": [],
      "name": "WITHDRAW",
      "outputs": [
        {
          "internalType": "bytes32",
          "name": "",
          "type": "bytes32"
        }
      ],
      "stateMutability": "view",
      "type": "function"
    },
    {
      "inputs": [],
      "name": "WITHDRAW_BATCH",
      "outputs": [
        {
          "internalType": "bytes32",
          "name": "",
          "type": "bytes32"
        }
      ],
      "stateMutability": "view",
      "type": "function"
    },
    {
      "inputs": [
        {
          "internalType": "bytes32",
          "name": "salt",
          "type": "bytes32"
        },
        {
          "internalType": "bytes32",
          "name": "bytecodeHash",
          "type": "bytes32"
        },
        {
          "internalType": "address",
          "name": "deployer",
          "type": "address"
        }
      ],
      "name": "computedCreate2Address",
      "outputs": [
        {
          "internalType": "address",
          "name": "",
          "type": "address"
        }
      ],
      "stateMutability": "pure",
      "type": "function"
    },
    {
      "inputs": [],
      "name": "fxChild",
      "outputs": [
        {
          "internalType": "address",
          "name": "",
          "type": "address"
        }
      ],
      "stateMutability": "view",
      "type": "function"
    },
    {
      "inputs": [],
      "name": "fxRootTunnel",
      "outputs": [
        {
          "internalType": "address",
          "name": "",
          "type": "address"
        }
      ],
      "stateMutability": "view",
      "type": "function"
    },
    {
      "inputs": [
        {
          "internalType": "address",
          "name": "",
          "type": "address"
        },
        {
          "internalType": "address",
          "name": "",
          "type": "address"
        },
        {
          "internalType": "uint256[]",
          "name": "",
          "type": "uint256[]"
        },
        {
          "internalType": "uint256[]",
          "name": "",
          "type": "uint256[]"
        },
        {
          "internalType": "bytes",
          "name": "",
          "type": "bytes"
        }
      ],
      "name": "onERC1155BatchReceived",
      "outputs": [
        {
          "internalType": "bytes4",
          "name": "",
          "type": "bytes4"
        }
      ],
      "stateMutability": "nonpayable",
      "type": "function"
    },
    {
      "inputs": [
        {
          "internalType": "address",
          "name": "",
          "type": "address"
        },
        {
          "internalType": "address",
          "name": "",
          "type": "address"
        },
        {
          "internalType": "uint256",
          "name": "",
          "type": "uint256"
        },
        {
          "internalType": "uint256",
          "name": "",
          "type": "uint256"
        },
        {
          "internalType": "bytes",
          "name": "",
          "type": "bytes"
        }
      ],
      "name": "onERC1155Received",
      "outputs": [
        {
          "internalType": "bytes4",
          "name": "",
          "type": "bytes4"
        }
      ],
      "stateMutability": "nonpayable",
      "type": "function"
    },
    {
      "inputs": [
        {
          "internalType": "uint256",
          "name": "stateId",
          "type": "uint256"
        },
        {
          "internalType": "address",
          "name": "rootMessageSender",
          "type": "address"
        },
        {
          "internalType": "bytes",
          "name": "data",
          "type": "bytes"
        }
      ],
      "name": "processMessageFromRoot",
      "outputs": [],
      "stateMutability": "nonpayable",
      "type": "function"
    },
    {
      "inputs": [
        {
          "internalType": "address",
          "name": "",
          "type": "address"
        }
      ],
      "name": "rootToChildToken",
      "outputs": [
        {
          "internalType": "address",
          "name": "",
          "type": "address"
        }
      ],
      "stateMutability": "view",
      "type": "function"
    },
    {
      "inputs": [
        {
          "internalType": "address",
          "name": "_fxRootTunnel",
          "type": "address"
        }
      ],
      "name": "setFxRootTunnel",
      "outputs": [],
      "stateMutability": "nonpayable",
      "type": "function"
    },
    {
      "inputs": [
        {
          "internalType": "bytes4",
          "name": "interfaceId",
          "type": "bytes4"
        }
      ],
      "name": "supportsInterface",
      "outputs": [
        {
          "internalType": "bool",
          "name": "",
          "type": "bool"
        }
      ],
      "stateMutability": "view",
      "type": "function"
    },
    {
      "inputs": [],
      "name": "tokenTemplate",
      "outputs": [
        {
          "internalType": "address",
          "name": "",
          "type": "address"
        }
      ],
      "stateMutability": "view",
      "type": "function"
    },
    {
      "inputs": [
        {
          "internalType": "address",
          "name": "childToken",
          "type": "address"
        },
        {
          "internalType": "uint256",
          "name": "id",
          "type": "uint256"
        },
        {
          "internalType": "uint256",
          "name": "amount",
          "type": "uint256"
        },
        {
          "internalType": "bytes",
          "name": "data",
          "type": "bytes"
        }
      ],
      "name": "withdraw",
      "outputs": [],
      "stateMutability": "nonpayable",
      "type": "function"
    },
    {
      "inputs": [
        {
          "internalType": "address",
          "name": "childToken",
          "type": "address"
        },
        {
          "internalType": "uint256[]",
          "name": "ids",
          "type": "uint256[]"
        },
        {
          "internalType": "uint256[]",
          "name": "amounts",
          "type": "uint256[]"
        },
        {
          "internalType": "bytes",
          "name": "data",
          "type": "bytes"
        }
      ],
      "name": "withdrawBatch",
      "outputs": [],
      "stateMutability": "nonpayable",
      "type": "function"
    }
  ],
  "bytecode": "0x60806040523480156200001157600080fd5b5060405162001edc38038062001edc8339810160408190526200003491620000eb565b600080546001600160a01b038085166001600160a01b031992831617909255600380549284169290911691909117905562000075813b63ffffffff16151590565b620000c65760405162461bcd60e51b815260206004820152601e60248201527f546f6b656e2074656d706c617465206973206e6f7420636f6e74726163740000604482015260640160405180910390fd5b505062000123565b80516001600160a01b0381168114620000e657600080fd5b919050565b60008060408385031215620000ff57600080fd5b6200010a83620000ce565b91506200011a60208401620000ce565b90509250929050565b611da980620001336000396000f3fe608060405234801561001057600080fd5b506004361061011b5760003560e01c8063886a69ba116100b2578063b324d3ed11610081578063d81c8e5211610066578063d81c8e5214610341578063ea60c7c414610368578063f23a6e611461039e57600080fd5b8063b324d3ed146102b1578063bc197c81146102d857600080fd5b8063886a69ba1461023d57806388837094146102645780639a7c4b7114610277578063b2edfcd21461028a57600080fd5b8063266ceabb116100ee578063266ceabb146101d7578063450d11f0146101ea5780637337957f1461020a5780637f1e9cb01461021d57600080fd5b806301ffc9a7146101205780630814d3dd146101485780630bd0ca9a1461018d57806316ba7197146101a2575b600080fd5b61013361012e3660046118a5565b6103d6565b60405190151581526020015b60405180910390f35b6003546101689073ffffffffffffffffffffffffffffffffffffffff1681565b60405173ffffffffffffffffffffffffffffffffffffffff909116815260200161013f565b6101a061019b3660046117d8565b61046f565b005b6101c97f7a8dc26796a1e50e6e190b70259f58f6a4edd5b22280ceecc82b687b8e98286981565b60405190815260200161013f565b6101a06101e536600461173d565b610722565b6000546101689073ffffffffffffffffffffffffffffffffffffffff1681565b61016861021836600461182f565b61096c565b6001546101689073ffffffffffffffffffffffffffffffffffffffff1681565b6101c97f2cef46a936bdc5b7e6e8c71aa04560c41cf7d88bb26901a7e7f4936ff02accad81565b6101a0610272366004611447565b6109f4565b6101a06102853660046118e7565b610ae1565b6101c97faf50c8eab81226bc79eee3a10e3fe25db1a2be7241130e392b0675df839b6d1881565b6101c97f5fb452c5a8f2b7c7ef2984e2f1063c7ee9b80b110cdc98ccb98f6654e10b5ed281565b6103106102e6366004611626565b7fbc197c810000000000000000000000000000000000000000000000000000000095945050505050565b6040517fffffffff00000000000000000000000000000000000000000000000000000000909116815260200161013f565b6101c97f87a7811f4bfedea3d341ad165680ae306b01aaeacc205d227629cf157dd9f82181565b610168610376366004611447565b60026020526000908152604090205473ffffffffffffffffffffffffffffffffffffffff1681565b6103106103ac3660046116d4565b7ff23a6e610000000000000000000000000000000000000000000000000000000095945050505050565b60007fffffffff0000000000000000000000000000000000000000000000000000000082167f4e2312e000000000000000000000000000000000000000000000000000000000148061046957507f01ffc9a7000000000000000000000000000000000000000000000000000000007fffffffff000000000000000000000000000000000000000000000000000000008316145b92915050565b600084905060008173ffffffffffffffffffffffffffffffffffffffff16630a8a49146040518163ffffffff1660e01b8152600401602060405180830381600087803b1580156104be57600080fd5b505af11580156104d2573d6000803e3d6000fd5b505050506040513d601f19601f820116820180604052508101906104f69190611464565b905073ffffffffffffffffffffffffffffffffffffffff861615801590610532575073ffffffffffffffffffffffffffffffffffffffff811615155b8015610567575073ffffffffffffffffffffffffffffffffffffffff8082166000908152600260205260409020548782169116145b6105f8576040517f08c379a000000000000000000000000000000000000000000000000000000000815260206004820152602560248201527f4678455243313135354368696c6454756e6e656c3a204e4f5f4d41505045445f60448201527f544f4b454e00000000000000000000000000000000000000000000000000000060648201526084015b60405180910390fd5b6040517ff5298aca000000000000000000000000000000000000000000000000000000008152336004820152602481018690526044810185905273ffffffffffffffffffffffffffffffffffffffff83169063f5298aca90606401600060405180830381600087803b15801561066d57600080fd5b505af1158015610681573d6000803e3d6000fd5b5050505060007f7a8dc26796a1e50e6e190b70259f58f6a4edd5b22280ceecc82b687b8e9828698288338989896040516020016106c396959493929190611a85565b604080517fffffffffffffffffffffffffffffffffffffffffffffffffffffffffffffffe0818403018152908290526106ff9291602001611c06565b604051602081830303815290604052905061071981610bcf565b50505050505050565b600084905060008173ffffffffffffffffffffffffffffffffffffffff16630a8a49146040518163ffffffff1660e01b8152600401602060405180830381600087803b15801561077157600080fd5b505af1158015610785573d6000803e3d6000fd5b505050506040513d601f19601f820116820180604052508101906107a99190611464565b905073ffffffffffffffffffffffffffffffffffffffff8616158015906107e5575073ffffffffffffffffffffffffffffffffffffffff811615155b801561081a575073ffffffffffffffffffffffffffffffffffffffff8082166000908152600260205260409020548782169116145b6108a6576040517f08c379a000000000000000000000000000000000000000000000000000000000815260206004820152602560248201527f4678455243313135354368696c6454756e6e656c3a204e4f5f4d41505045445f60448201527f544f4b454e00000000000000000000000000000000000000000000000000000060648201526084016105ef565b6040517f6b20c45400000000000000000000000000000000000000000000000000000000815273ffffffffffffffffffffffffffffffffffffffff831690636b20c454906108fc90339089908990600401611b20565b600060405180830381600087803b15801561091657600080fd5b505af115801561092a573d6000803e3d6000fd5b5050505060007f5fb452c5a8f2b7c7ef2984e2f1063c7ee9b80b110cdc98ccb98f6654e10b5ed28288338989896040516020016106c396959493929190611a11565b604080517fff00000000000000000000000000000000000000000000000000000000000000602080830191909152606084901b7fffffffffffffffffffffffffffffffffffffffff00000000000000000000000016602183015260358201869052605580830186905283518084039091018152607590920190925280519101205b9392505050565b60015473ffffffffffffffffffffffffffffffffffffffff1615610a9a576040517f08c379a000000000000000000000000000000000000000000000000000000000815260206004820152602a60248201527f4678426173654368696c6454756e6e656c3a20524f4f545f54554e4e454c5f4160448201527f4c52454144595f5345540000000000000000000000000000000000000000000060648201526084016105ef565b600180547fffffffffffffffffffffffff00000000000000000000000000000000000000001673ffffffffffffffffffffffffffffffffffffffff92909216919091179055565b60005473ffffffffffffffffffffffffffffffffffffffff163314610b88576040517f08c379a000000000000000000000000000000000000000000000000000000000815260206004820152602160248201527f4678426173654368696c6454756e6e656c3a20494e56414c49445f53454e444560448201527f520000000000000000000000000000000000000000000000000000000000000060648201526084016105ef565b610bc9848484848080601f016020809104026020016040519081016040528093929190818152602001838380828437600092019190915250610c0992505050565b50505050565b7f8c5261668696ce22758910d05bab8f186d6eb247ceac2af2e82c7dc17669b03681604051610bfe9190611c27565b60405180910390a150565b600154829073ffffffffffffffffffffffffffffffffffffffff808316911614610cb5576040517f08c379a000000000000000000000000000000000000000000000000000000000815260206004820152602b60248201527f4678426173654368696c6454756e6e656c3a20494e56414c49445f53454e444560448201527f525f46524f4d5f524f4f5400000000000000000000000000000000000000000060648201526084016105ef565b60008083806020019051810190610ccc9190611868565b915091507f2cef46a936bdc5b7e6e8c71aa04560c41cf7d88bb26901a7e7f4936ff02accad821415610d0757610d0181610dfe565b50610df6565b7f87a7811f4bfedea3d341ad165680ae306b01aaeacc205d227629cf157dd9f821821415610d3d57610d3881611052565b610df6565b7faf50c8eab81226bc79eee3a10e3fe25db1a2be7241130e392b0675df839b6d18821415610d6e57610d388161112a565b6040517f08c379a000000000000000000000000000000000000000000000000000000000815260206004820152602760248201527f4678455243313135354368696c6454756e6e656c3a20494e56414c49445f535960448201527f4e435f545950450000000000000000000000000000000000000000000000000060648201526084016105ef565b505050505050565b600080600083806020019051810190610e1791906115c1565b73ffffffffffffffffffffffffffffffffffffffff808316600090815260026020526040902054929450909250168015610ed2576040517f08c379a0000000000000000000000000000000000000000000000000000000008152602060048201526024808201527f4678455243313135354368696c6454756e6e656c3a20414c52454144595f4d4160448201527f505045440000000000000000000000000000000000000000000000000000000060648201526084016105ef565b60408051606085901b7fffffffffffffffffffffffffffffffffffffffff000000000000000000000000166020808301919091528251601481840301815260349092019092528051910120600354610f4190829073ffffffffffffffffffffffffffffffffffffffff166111c5565b91508173ffffffffffffffffffffffffffffffffffffffff16634571e3a6308686604051602001610f7291906119f5565b6040516020818303038152906040526040518463ffffffff1660e01b8152600401610f9f93929190611ade565b600060405180830381600087803b158015610fb957600080fd5b505af1158015610fcd573d6000803e3d6000fd5b5050505073ffffffffffffffffffffffffffffffffffffffff84811660008181526002602052604080822080547fffffffffffffffffffffffff0000000000000000000000000000000000000000169487169485179055517f85920d35e6c72f6b2affffa04298b0cecfeba86e4a9f407df661f1cb8ab5e6179190a350949350505050565b6000806000806000808680602001905181019061106f9190611543565b73ffffffffffffffffffffffffffffffffffffffff808716600090815260026020526040908190205490517f731133e9000000000000000000000000000000000000000000000000000000008152979d50959b509399509197509550935016908190819063731133e9906110ed908990899089908990600401611bcb565b600060405180830381600087803b15801561110757600080fd5b505af115801561111b573d6000803e3d6000fd5b50505050505050505050505050565b600080600080600080868060200190518101906111479190611481565b73ffffffffffffffffffffffffffffffffffffffff808716600090815260026020526040908190205490517f1f7fdffa000000000000000000000000000000000000000000000000000000008152979d50959b5093995091975095509350169081908190631f7fdffa906110ed908990899089908990600401611b6b565b6000808260601b90506040517f3d602d80600a3d3981f3363d3d373d3d3d363d7300000000000000000000000081528160148201527f5af43d82803e903d91602b57fd5bf300000000000000000000000000000000006028820152846037826000f592505073ffffffffffffffffffffffffffffffffffffffff82166112cd576040517f08c379a000000000000000000000000000000000000000000000000000000000815260206004820152602160248201527f437265617465323a204661696c6564206f6e206d696e696d616c206465706c6f60448201527f790000000000000000000000000000000000000000000000000000000000000060648201526084016105ef565b5092915050565b60006112e76112e284611cad565b611c3a565b90508281528383830111156112fb57600080fd5b6109ed836020830184611cf3565b600082601f83011261131a57600080fd5b8135602061132a6112e283611c89565b80838252828201915082860187848660051b890101111561134a57600080fd5b60005b858110156113695781358452928401929084019060010161134d565b5090979650505050505050565b600082601f83011261138757600080fd5b815160206113976112e283611c89565b80838252828201915082860187848660051b89010111156113b757600080fd5b60005b85811015611369578151845292840192908401906001016113ba565b600082601f8301126113e757600080fd5b81356113f56112e282611cad565b81815284602083860101111561140a57600080fd5b816020850160208301376000918101602001919091529392505050565b600082601f83011261143857600080fd5b6109ed838351602085016112d4565b60006020828403121561145957600080fd5b81356109ed81611d4e565b60006020828403121561147657600080fd5b81516109ed81611d4e565b60008060008060008060c0878903121561149a57600080fd5b86516114a581611d4e565b60208801519096506114b681611d4e565b60408801519095506114c781611d4e565b606088015190945067ffffffffffffffff808211156114e557600080fd5b6114f18a838b01611376565b9450608089015191508082111561150757600080fd5b6115138a838b01611376565b935060a089015191508082111561152957600080fd5b5061153689828a01611427565b9150509295509295509295565b60008060008060008060c0878903121561155c57600080fd5b865161156781611d4e565b602088015190965061157881611d4e565b604088015190955061158981611d4e565b80945050606087015192506080870151915060a087015167ffffffffffffffff8111156115b557600080fd5b61153689828a01611427565b600080604083850312156115d457600080fd5b82516115df81611d4e565b602084015190925067ffffffffffffffff8111156115fc57600080fd5b8301601f8101851361160d57600080fd5b61161c858251602084016112d4565b9150509250929050565b600080600080600060a0868803121561163e57600080fd5b853561164981611d4e565b9450602086013561165981611d4e565b9350604086013567ffffffffffffffff8082111561167657600080fd5b61168289838a01611309565b9450606088013591508082111561169857600080fd5b6116a489838a01611309565b935060808801359150808211156116ba57600080fd5b506116c7888289016113d6565b9150509295509295909350565b600080600080600060a086880312156116ec57600080fd5b85356116f781611d4e565b9450602086013561170781611d4e565b93506040860135925060608601359150608086013567ffffffffffffffff81111561173157600080fd5b6116c7888289016113d6565b6000806000806080858703121561175357600080fd5b843561175e81611d4e565b9350602085013567ffffffffffffffff8082111561177b57600080fd5b61178788838901611309565b9450604087013591508082111561179d57600080fd5b6117a988838901611309565b935060608701359150808211156117bf57600080fd5b506117cc878288016113d6565b91505092959194509250565b600080600080608085870312156117ee57600080fd5b84356117f981611d4e565b93506020850135925060408501359150606085013567ffffffffffffffff81111561182357600080fd5b6117cc878288016113d6565b60008060006060848603121561184457600080fd5b8335925060208401359150604084013561185d81611d4e565b809150509250925092565b6000806040838503121561187b57600080fd5b82519150602083015167ffffffffffffffff81111561189957600080fd5b61161c85828601611427565b6000602082840312156118b757600080fd5b81357fffffffff00000000000000000000000000000000000000000000000000000000811681146109ed57600080fd5b600080600080606085870312156118fd57600080fd5b84359350602085013561190f81611d4e565b9250604085013567ffffffffffffffff8082111561192c57600080fd5b818701915087601f83011261194057600080fd5b81358181111561194f57600080fd5b88602082850101111561196157600080fd5b95989497505060200194505050565b600081518084526020808501945080840160005b838110156119a057815187529582019590820190600101611984565b509495945050505050565b600081518084526119c3816020860160208601611cf3565b601f017fffffffffffffffffffffffffffffffffffffffffffffffffffffffffffffffe0169290920160200192915050565b60008251611a07818460208701611cf3565b9190910192915050565b600073ffffffffffffffffffffffffffffffffffffffff8089168352808816602084015280871660408401525060c06060830152611a5260c0830186611970565b8281036080840152611a648186611970565b905082810360a0840152611a7881856119ab565b9998505050505050505050565b600073ffffffffffffffffffffffffffffffffffffffff8089168352808816602084015280871660408401525084606083015283608083015260c060a0830152611ad260c08301846119ab565b98975050505050505050565b600073ffffffffffffffffffffffffffffffffffffffff808616835280851660208401525060606040830152611b1760608301846119ab565b95945050505050565b73ffffffffffffffffffffffffffffffffffffffff84168152606060208201526000611b4f6060830185611970565b8281036040840152611b618185611970565b9695505050505050565b73ffffffffffffffffffffffffffffffffffffffff85168152608060208201526000611b9a6080830186611970565b8281036040840152611bac8186611970565b90508281036060840152611bc081856119ab565b979650505050505050565b73ffffffffffffffffffffffffffffffffffffffff85168152836020820152826040820152608060608201526000611b6160808301846119ab565b828152604060208201526000611c1f60408301846119ab565b949350505050565b6020815260006109ed60208301846119ab565b604051601f82017fffffffffffffffffffffffffffffffffffffffffffffffffffffffffffffffe016810167ffffffffffffffff81118282101715611c8157611c81611d1f565b604052919050565b600067ffffffffffffffff821115611ca357611ca3611d1f565b5060051b60200190565b600067ffffffffffffffff821115611cc757611cc7611d1f565b50601f017fffffffffffffffffffffffffffffffffffffffffffffffffffffffffffffffe01660200190565b60005b83811015611d0e578181015183820152602001611cf6565b83811115610bc95750506000910152565b7f4e487b7100000000000000000000000000000000000000000000000000000000600052604160045260246000fd5b73ffffffffffffffffffffffffffffffffffffffff81168114611d7057600080fd5b5056fea2646970667358221220e3235294c7016a527ff5a01805dab0a98263105d9211f5907cecad94c0444c1364736f6c63430008070033",
  "linkReferences": {},
  "deployedLinkReferences": {}
}