{
  "_format": "hh-sol-artifact-1",
  "contractName": "FxERC20RootTunnel",
  "sourceName": "contracts/examples/erc20-transfer/FxERC20RootTunnel.sol",
  "abi": [
    {
      "inputs": [
        {
          "internalType": "address",
          "name": "_checkpointManager",
          "type": "address"
        },
        {
          "internalType": "address",
          "name": "_fxRoot",
          "type": "address"
        },
        {
          "internalType": "address",
          "name": "_fxERC20Token",
          "type": "address"
        }
      ],
      "stateMutability": "nonpayable",
      "type": "constructor"
    },
    {
      "anonymous": false,
      "inputs": [
        {
          "indexed": true,
          "internalType": "address",
          "name": "rootToken",
          "type": "address"
        },
        {
          "indexed": true,
          "internalType": "address",
          "name": "depositor",
          "type": "address"
        },
        {
          "indexed": true,
          "internalType": "address",
          "name": "userAddress",
          "type": "address"
        },
        {
          "indexed": false,
          "internalType": "uint256",
          "name": "amount",
          "type": "uint256"
        }
      ],
      "name": "FxDepositERC20",
      "type": "event"
    },
    {
      "anonymous": false,
      "inputs": [
        {
          "indexed": true,
          "internalType": "address",
          "name": "rootToken",
          "type": "address"
        },
        {
          "indexed": true,
          "internalType": "address",
          "name": "childToken",
          "type": "address"
        },
        {
          "indexed": true,
          "internalType": "address",
          "name": "userAddress",
          "type": "address"
        },
        {
          "indexed": false,
          "internalType": "uint256",
          "name": "amount",
          "type": "uint256"
        }
      ],
      "name": "FxWithdrawERC20",
      "type": "event"
    },
    {
      "anonymous": false,
      "inputs": [
        {
          "indexed": true,
          "internalType": "address",
          "name": "rootToken",
          "type": "address"
        },
        {
          "indexed": true,
          "internalType": "address",
          "name": "childToken",
          "type": "address"
        }
      ],
      "name": "TokenMappedERC20",
      "type": "event"
    },
    {
      "inputs": [],
      "name": "DEPOSIT",
      "outputs": [
        {
          "internalType": "bytes32",
          "name": "",
          "type": "bytes32"
        }
      ],
      "stateMutability": "view",
      "type": "function"
    },
    {
      "inputs": [],
      "name": "MAP_TOKEN",
      "outputs": [
        {
          "internalType": "bytes32",
          "name": "",
          "type": "bytes32"
        }
      ],
      "stateMutability": "view",
      "type": "function"
    },
    {
      "inputs": [],
      "name": "SEND_MESSAGE_EVENT_SIG",
      "outputs": [
        {
          "internalType": "bytes32",
          "name": "",
          "type": "bytes32"
        }
      ],
      "stateMutability": "view",
      "type": "function"
    },
    {
      "inputs": [],
      "name": "checkpointManager",
      "outputs": [
        {
          "internalType": "contract ICheckpointManager",
          "name": "",
          "type": "address"
        }
      ],
      "stateMutability": "view",
      "type": "function"
    },
    {
      "inputs": [],
      "name": "childTokenTemplateCodeHash",
      "outputs": [
        {
          "internalType": "bytes32",
          "name": "",
          "type": "bytes32"
        }
      ],
      "stateMutability": "view",
      "type": "function"
    },
    {
      "inputs": [
        {
          "internalType": "bytes32",
          "name": "salt",
          "type": "bytes32"
        },
        {
          "internalType": "bytes32",
          "name": "bytecodeHash",
          "type": "bytes32"
        },
        {
          "internalType": "address",
          "name": "deployer",
          "type": "address"
        }
      ],
      "name": "computedCreate2Address",
      "outputs": [
        {
          "internalType": "address",
          "name": "",
          "type": "address"
        }
      ],
      "stateMutability": "pure",
      "type": "function"
    },
    {
      "inputs": [
        {
          "internalType": "address",
          "name": "rootToken",
          "type": "address"
        },
        {
          "internalType": "address",
          "name": "user",
          "type": "address"
        },
        {
          "internalType": "uint256",
          "name": "amount",
          "type": "uint256"
        },
        {
          "internalType": "bytes",
          "name": "data",
          "type": "bytes"
        }
      ],
      "name": "deposit",
      "outputs": [],
      "stateMutability": "nonpayable",
      "type": "function"
    },
    {
      "inputs": [],
      "name": "fxChildTunnel",
      "outputs": [
        {
          "internalType": "address",
          "name": "",
          "type": "address"
        }
      ],
      "stateMutability": "view",
      "type": "function"
    },
    {
      "inputs": [],
      "name": "fxRoot",
      "outputs": [
        {
          "internalType": "contract IFxStateSender",
          "name": "",
          "type": "address"
        }
      ],
      "stateMutability": "view",
      "type": "function"
    },
    {
      "inputs": [
        {
          "internalType": "address",
          "name": "rootToken",
          "type": "address"
        }
      ],
      "name": "mapToken",
      "outputs": [],
      "stateMutability": "nonpayable",
      "type": "function"
    },
    {
      "inputs": [
        {
          "internalType": "bytes32",
          "name": "",
          "type": "bytes32"
        }
      ],
      "name": "processedExits",
      "outputs": [
        {
          "internalType": "bool",
          "name": "",
          "type": "bool"
        }
      ],
      "stateMutability": "view",
      "type": "function"
    },
    {
      "inputs": [
        {
          "internalType": "bytes",
          "name": "inputData",
          "type": "bytes"
        }
      ],
      "name": "receiveMessage",
      "outputs": [],
      "stateMutability": "nonpayable",
      "type": "function"
    },
    {
      "inputs": [
        {
          "internalType": "address",
          "name": "",
          "type": "address"
        }
      ],
      "name": "rootToChildTokens",
      "outputs": [
        {
          "internalType": "address",
          "name": "",
          "type": "address"
        }
      ],
      "stateMutability": "view",
      "type": "function"
    },
    {
      "inputs": [
        {
          "internalType": "address",
          "name": "_fxChildTunnel",
          "type": "address"
        }
      ],
      "name": "setFxChildTunnel",
      "outputs": [],
      "stateMutability": "nonpayable",
      "type": "function"
    }
  ],
  "bytecode": "0x60806040523480156200001157600080fd5b50604051620030c3380380620030c3833981016040819052620000349162000106565b600180546001600160a01b038086166001600160a01b0319928316179092556000805492851692909116919091179055620000d48160408051693d602d80600a3d3981f360b01b602082015269363d3d373d3d3d363d7360b01b602a82015260609290921b6001600160601b03191660348301526e5af43d82803e903d91602b57fd5bf360881b6048830152805160378184030181526057909201905290565b80516020909101206005555062000150915050565b80516001600160a01b03811681146200010157600080fd5b919050565b6000806000606084860312156200011c57600080fd5b6200012784620000e9565b92506200013760208501620000e9565b91506200014760408501620000e9565b90509250925092565b612f6380620001606000396000f3fe608060405234801561001057600080fd5b50600436106100ea5760003560e01c8063aea4e49e1161008c578063de9b771f11610066578063de9b771f14610276578063e9c670ad14610296578063f4a120f7146102a9578063f953cec7146102bc57600080fd5b8063aea4e49e1461021a578063c0857ba01461022f578063d81c8e521461024f57600080fd5b80637337957f116100c85780637337957f14610165578063886a69ba1461019d57806388e70068146101c4578063972c4928146101fa57600080fd5b80630e387de6146100ef578063607f2d421461012957806369914b3e1461015c575b600080fd5b6101167f8c5261668696ce22758910d05bab8f186d6eb247ceac2af2e82c7dc17669b03681565b6040519081526020015b60405180910390f35b61014c6101373660046128a6565b60036020526000908152604090205460ff1681565b6040519015158152602001610120565b61011660055481565b6101786101733660046128bf565b6102cf565b60405173ffffffffffffffffffffffffffffffffffffffff9091168152602001610120565b6101167f2cef46a936bdc5b7e6e8c71aa04560c41cf7d88bb26901a7e7f4936ff02accad81565b6101786101d23660046127a8565b60046020526000908152604090205473ffffffffffffffffffffffffffffffffffffffff1681565b6002546101789073ffffffffffffffffffffffffffffffffffffffff1681565b61022d6102283660046127a8565b610357565b005b6001546101789073ffffffffffffffffffffffffffffffffffffffff1681565b6101167f87a7811f4bfedea3d341ad165680ae306b01aaeacc205d227629cf157dd9f82181565b6000546101789073ffffffffffffffffffffffffffffffffffffffff1681565b61022d6102a4366004612818565b61042f565b61022d6102b73660046127a8565b61057f565b61022d6102ca366004612945565b610921565b604080517fff00000000000000000000000000000000000000000000000000000000000000602080830191909152606084901b7fffffffffffffffffffffffffffffffffffffffff00000000000000000000000016602183015260358201869052605580830186905283518084039091018152607590920190925280519101205b9392505050565b60025473ffffffffffffffffffffffffffffffffffffffff16156103e85760405162461bcd60e51b815260206004820152602a60248201527f467842617365526f6f7454756e6e656c3a204348494c445f54554e4e454c5f4160448201527f4c52454144595f5345540000000000000000000000000000000000000000000060648201526084015b60405180910390fd5b600280547fffffffffffffffffffffffff00000000000000000000000000000000000000001673ffffffffffffffffffffffffffffffffffffffff92909216919091179055565b73ffffffffffffffffffffffffffffffffffffffff84811660009081526004602052604090205416610464576104648461057f565b61048673ffffffffffffffffffffffffffffffffffffffff851633308561093b565b60007f87a7811f4bfedea3d341ad165680ae306b01aaeacc205d227629cf157dd9f82185338686866040516020016104c2959493929190612a74565b60408051601f19818403018152908290526104e09291602001612b40565b60405160208183030381529060405290506104fa816109ff565b8373ffffffffffffffffffffffffffffffffffffffff163373ffffffffffffffffffffffffffffffffffffffff168673ffffffffffffffffffffffffffffffffffffffff167f8a58355ceb4626422a66b0f36743672dde8507c6be664f0e5b9de8350a1321598660405161057091815260200190565b60405180910390a45050505050565b73ffffffffffffffffffffffffffffffffffffffff818116600090815260046020526040902054161561061a5760405162461bcd60e51b815260206004820152602160248201527f46784552433230526f6f7454756e6e656c3a20414c52454144595f4d4150504560448201527f440000000000000000000000000000000000000000000000000000000000000060648201526084016103df565b600081905060008173ffffffffffffffffffffffffffffffffffffffff166306fdde036040518163ffffffff1660e01b815260040160006040518083038186803b15801561066757600080fd5b505afa15801561067b573d6000803e3d6000fd5b505050506040513d6000823e601f3d908101601f191682016040526106a3919081019061297a565b905060008273ffffffffffffffffffffffffffffffffffffffff166395d89b416040518163ffffffff1660e01b815260040160006040518083038186803b1580156106ed57600080fd5b505afa158015610701573d6000803e3d6000fd5b505050506040513d6000823e601f3d908101601f19168201604052610729919081019061297a565b905060008373ffffffffffffffffffffffffffffffffffffffff1663313ce5676040518163ffffffff1660e01b815260040160206040518083038186803b15801561077357600080fd5b505afa158015610787573d6000803e3d6000fd5b505050506040513d601f19601f820116820180604052508101906107ab91906129dc565b905060007f2cef46a936bdc5b7e6e8c71aa04560c41cf7d88bb26901a7e7f4936ff02accad868585856040516020016107e79493929190612aea565b60408051601f19818403018152908290526108059291602001612b40565b604051602081830303815290604052905061081f816109ff565b6040517fffffffffffffffffffffffffffffffffffffffff000000000000000000000000606088901b16602082015260009060340160408051601f19818403018152919052805160209091012060055460025491925060009161089991849173ffffffffffffffffffffffffffffffffffffffff166102cf565b73ffffffffffffffffffffffffffffffffffffffff89811660008181526004602052604080822080547fffffffffffffffffffffffff000000000000000000000000000000000000000016948616948517905551939450919290917fc21cd413746aa9146d86960ed90847c18aa555d8dfd256e0aac3954c41e3cfe291a35050505050505050565b600061092c82610a90565b905061093781610dec565b5050565b60405173ffffffffffffffffffffffffffffffffffffffff808516602483015283166044820152606481018290526109f99085907f23b872dd00000000000000000000000000000000000000000000000000000000906084015b60408051601f198184030181529190526020810180517bffffffffffffffffffffffffffffffffffffffffffffffffffffffff167fffffffff0000000000000000000000000000000000000000000000000000000090931692909217909152611141565b50505050565b6000546002546040517fb472047700000000000000000000000000000000000000000000000000000000815273ffffffffffffffffffffffffffffffffffffffff9283169263b472047792610a5b929116908590600401612abb565b600060405180830381600087803b158015610a7557600080fd5b505af1158015610a89573d6000803e3d6000fd5b5050505050565b60606000610a9d83611238565b90506000610aaa82611297565b90506000610ab7836112c6565b9050600081610ac5846112ef565b610ace866114dd565b604051602001610ae093929190612a47565b60408051601f1981840301815291815281516020928301206000818152600390935291205490915060ff1615610b7d5760405162461bcd60e51b8152602060048201526024808201527f4678526f6f7454756e6e656c3a20455849545f414c52454144595f50524f434560448201527f535345440000000000000000000000000000000000000000000000000000000060648201526084016103df565b600081815260036020526040812080547fffffffffffffffffffffffffffffffffffffffffffffffffffffffffffffff00166001179055610bbd856114f9565b90506000610bca82611643565b9050610bd5816116d3565b60025473ffffffffffffffffffffffffffffffffffffffff908116911614610c655760405162461bcd60e51b815260206004820152602560248201527f4678526f6f7454756e6e656c3a20494e56414c49445f46585f4348494c445f5460448201527f554e4e454c00000000000000000000000000000000000000000000000000000060648201526084016103df565b6000610c70876116fc565b9050610c90610c80846020015190565b87610c8a8a611718565b84611734565b610d025760405162461bcd60e51b815260206004820152602360248201527f4678526f6f7454756e6e656c3a20494e56414c49445f524543454950545f505260448201527f4f4f46000000000000000000000000000000000000000000000000000000000060648201526084016103df565b610d3085610d0f896119eb565b610d188a611a07565b84610d228c611a23565b610d2b8d611a3f565b611a5b565b506000610d3c83611bb6565b90507f8c5261668696ce22758910d05bab8f186d6eb247ceac2af2e82c7dc17669b036610d72610d6d836000611bf2565b611c2a565b14610dbf5760405162461bcd60e51b815260206004820152601f60248201527f4678526f6f7454756e6e656c3a20494e56414c49445f5349474e41545552450060448201526064016103df565b6000610dca84611ca5565b806020019051810190610ddd919061297a565b9b9a5050505050505050505050565b60008060008084806020019051810190610e0691906127c5565b73ffffffffffffffffffffffffffffffffffffffff8481166000908152600460205260409020549498509296509094509250848116911614610eb05760405162461bcd60e51b815260206004820152602a60248201527f46784552433230526f6f7454756e6e656c3a20494e56414c49445f4d4150504960448201527f4e475f4f4e5f455849540000000000000000000000000000000000000000000060648201526084016103df565b6040517f70a08231000000000000000000000000000000000000000000000000000000008152306004820152849060009073ffffffffffffffffffffffffffffffffffffffff8316906370a082319060240160206040518083038186803b158015610f1a57600080fd5b505afa158015610f2e573d6000803e3d6000fd5b505050506040513d601f19601f82011682018060405250810190610f5291906129c3565b905082811015610ff25773ffffffffffffffffffffffffffffffffffffffff821663d3c0029c610f828584611cc1565b6040517fffffffff0000000000000000000000000000000000000000000000000000000060e084901b1681526004810191909152306024820152604401600060405180830381600087803b158015610fd957600080fd5b505af1158015610fed573d6000803e3d6000fd5b505050505b6040517f095ea7b30000000000000000000000000000000000000000000000000000000081523060048201526024810184905273ffffffffffffffffffffffffffffffffffffffff83169063095ea7b390604401602060405180830381600087803b15801561106057600080fd5b505af1158015611074573d6000803e3d6000fd5b505050506040513d601f19601f820116820180604052508101906110989190612884565b506110ba73ffffffffffffffffffffffffffffffffffffffff87168585611ccd565b8373ffffffffffffffffffffffffffffffffffffffff168573ffffffffffffffffffffffffffffffffffffffff168773ffffffffffffffffffffffffffffffffffffffff167f1a77c658a097b28097b54b8acb928a569a3830a6cbed2de1f60001c0757eb0d68660405161113091815260200190565b60405180910390a450505050505050565b60006111a3826040518060400160405280602081526020017f5361666545524332303a206c6f772d6c6576656c2063616c6c206661696c65648152508573ffffffffffffffffffffffffffffffffffffffff16611d239092919063ffffffff16565b80519091501561123357808060200190518101906111c19190612884565b6112335760405162461bcd60e51b815260206004820152602a60248201527f5361666545524332303a204552433230206f7065726174696f6e20646964206e60448201527f6f7420737563636565640000000000000000000000000000000000000000000060648201526084016103df565b505050565b604080516020810190915260608152600061128261127d8460408051808201825260008082526020918201528151808301909252825182529182019181019190915290565b611d32565b60408051602081019091529081529392505050565b60606112c082600001516008815181106112b3576112b3612eaa565b6020026020010151611e48565b92915050565b60006112c082600001516002815181106112e2576112e2612eaa565b6020026020010151611c2a565b604080516020810190915260008152815160609190156112c057600080611317600086611ee5565b60f81c9050600181148061132e57508060ff166003145b156113ee576001855160026113439190612d3a565b61134d9190612d77565b67ffffffffffffffff81111561136557611365612ed9565b6040519080825280601f01601f19166020018201604052801561138f576020820181803683370190505b509250600061139f600187611ee5565b905080846000815181106113b5576113b5612eaa565b60200101907effffffffffffffffffffffffffffffffffffffffffffffffffffffffffffff1916908160001a9053506001925050611452565b6002855160026113fe9190612d3a565b6114089190612d77565b67ffffffffffffffff81111561142057611420612ed9565b6040519080825280601f01601f19166020018201604052801561144a576020820181803683370190505b509250600091505b60ff82165b83518110156114d45761148161147060ff851683612d77565b61147b906002612bc5565b87611ee5565b84828151811061149357611493612eaa565b60200101907effffffffffffffffffffffffffffffffffffffffffffffffffffffffffffff1916908160001a905350806114cc81612ddd565b915050611457565b50505092915050565b60006112c082600001516009815181106112e2576112e2612eaa565b61151d60405180606001604052806060815260200160608152602001600081525090565b61153782600001516006815181106112b3576112b3612eaa565b60208281018290526040805180820182526000808252908301528051808201909152825181529181019082015261156d81611f66565b156115825761157b81611d32565b825261162f565b6020820151805160009061159890600190612d77565b67ffffffffffffffff8111156115b0576115b0612ed9565b6040519080825280601f01601f1916602001820160405280156115da576020820181803683370190505b5090506000808360210191508260200190506115f882828551611f9f565b60408051808201825260008082526020918201528151808301909252845182528085019082015261162890611d32565b8652505050505b611638836114dd565b604083015250919050565b604080516080810182526000918101828152606080830193909352815260208101919091526000611691836000015160038151811061168457611684612eaa565b6020026020010151611d32565b8360400151815181106116a6576116a6612eaa565b6020026020010151905060405180604001604052808281526020016116ca83611d32565b90529392505050565b60006112c082602001516000815181106116ef576116ef612eaa565b602002602001015161201a565b60006112c082600001516005815181106112e2576112e2612eaa565b60606112c082600001516007815181106112b3576112b3612eaa565b6000806117688460408051808201825260008082526020918201528151808301909252825182529182019181019190915290565b9050600061177582611d32565b9050606080856000806117878b6112ef565b90508051600014156117a35760009750505050505050506119e3565b60005b86518110156119da5781518311156117c9576000985050505050505050506119e3565b6117eb8782815181106117de576117de612eaa565b6020026020010151612034565b95508580519060200120841461180c576000985050505050505050506119e3565b61182187828151811061168457611684612eaa565b94508451601114156118f6578151831415611883578c80519060200120611854866010815181106112b3576112b3612eaa565b805190602001201415611872576001985050505050505050506119e3565b6000985050505050505050506119e3565b600082848151811061189757611897612eaa565b016020015160f81c905060108111156118bc57600099505050505050505050506119e3565b6118e1868260ff16815181106118d4576118d4612eaa565b60200260200101516120b4565b94506118ee600185612bc5565b9350506119c8565b84516002141561187257600061192261191b876000815181106112b3576112b3612eaa565b84866120e2565b83519091506119318286612bc5565b1415611986578d80519060200120611955876001815181106112b3576112b3612eaa565b80519060200120141561197457600199505050505050505050506119e3565b600099505050505050505050506119e3565b8061199d57600099505050505050505050506119e3565b6119a78185612bc5565b93506119bf866001815181106118d4576118d4612eaa565b94506119c89050565b806119d281612ddd565b9150506117a6565b50505050505050505b949350505050565b60006112c082600001516003815181106112e2576112e2612eaa565b60006112c082600001516004815181106112e2576112e2612eaa565b60006112c082600001516000815181106112e2576112e2612eaa565b60606112c082600001516001815181106112b3576112b3612eaa565b6001546040517f41539d4a0000000000000000000000000000000000000000000000000000000081526004810184905260009182918291829173ffffffffffffffffffffffffffffffffffffffff909116906341539d4a9060240160a06040518083038186803b158015611ace57600080fd5b505afa158015611ae2573d6000803e3d6000fd5b505050506040513d601f19601f82011682018060405250810190611b0691906128f8565b5093505092509250611b5d828b611b1d9190612d77565b6040805160208082018f90528183018e9052606082018d905260808083018d90528351808403909101815260a0909201909252805191012090858861221b565b611ba95760405162461bcd60e51b815260206004820152601c60248201527f4678526f6f7454756e6e656c3a20494e56414c49445f4845414445520000000060448201526064016103df565b9998505050505050505050565b6040805160208101909152606081526040518060200160405280611bea846020015160018151811061168457611684612eaa565b905292915050565b60408051808201909152600080825260208201528251805183908110611c1a57611c1a612eaa565b6020026020010151905092915050565b805160009015801590611c3f57508151602110155b611c4857600080fd5b6000611c578360200151612391565b90506000818460000151611c6b9190612d77565b9050600080838660200151611c809190612bc5565b9050805191506020831015611c9c57826020036101000a820491505b50949350505050565b60606112c082602001516002815181106112b3576112b3612eaa565b60006103508284612d77565b60405173ffffffffffffffffffffffffffffffffffffffff83166024820152604481018290526112339084907fa9059cbb0000000000000000000000000000000000000000000000000000000090606401610995565b60606119e3848460008561240c565b6060611d3d82611f66565b611d4657600080fd5b6000611d5183612558565b905060008167ffffffffffffffff811115611d6e57611d6e612ed9565b604051908082528060200260200182016040528015611db357816020015b6040805180820190915260008082526020820152815260200190600190039081611d8c5790505b5090506000611dc58560200151612391565b8560200151611dd49190612bc5565b90506000805b84811015611e3d57611deb836125db565b9150604051806040016040528083815260200184815250848281518110611e1457611e14612eaa565b6020908102919091010152611e298284612bc5565b925080611e3581612ddd565b915050611dda565b509195945050505050565b8051606090611e5657600080fd5b6000611e658360200151612391565b90506000818460000151611e799190612d77565b905060008167ffffffffffffffff811115611e9657611e96612ed9565b6040519080825280601f01601f191660200182016040528015611ec0576020820181803683370190505b5090506000816020019050611c9c848760200151611ede9190612bc5565b828561269d565b6000611ef2600284612e16565b15611f2c57601082611f05600286612bdd565b81518110611f1557611f15612eaa565b0160200151611f27919060f81c612e2a565b611f5c565b601082611f3a600286612bdd565b81518110611f4a57611f4a612eaa565b0160200151611f5c919060f81c612bf1565b60f81b9392505050565b8051600090611f7757506000919050565b6020820151805160001a9060c0821015611f95575060009392505050565b5060019392505050565b80611fa957505050565b60208110611fe15782518252611fc0602084612bc5565b9250611fcd602083612bc5565b9150611fda602082612d77565b9050611fa9565b60006001611ff0836020612d77565b611ffc90610100612c74565b6120069190612d77565b935183518516941916939093179091525050565b805160009060151461202b57600080fd5b6112c082611c2a565b60606000826000015167ffffffffffffffff81111561205557612055612ed9565b6040519080825280601f01601f19166020018201604052801561207f576020820181803683370190505b5090508051600014156120925792915050565b60008160200190506120ad846020015182866000015161269d565b5092915050565b80516000906021146120c557600080fd5b600080836020015160016120d99190612bc5565b51949350505050565b600080806120ef866112ef565b90506000815167ffffffffffffffff81111561210d5761210d612ed9565b6040519080825280601f01601f191660200182016040528015612137576020820181803683370190505b509050845b82516121489087612bc5565b8110156121eb57600087828151811061216357612163612eaa565b01602001517fff0000000000000000000000000000000000000000000000000000000000000016905080836121988985612d77565b815181106121a8576121a8612eaa565b60200101907effffffffffffffffffffffffffffffffffffffffffffffffffffffffffffff1916908160001a9053505080806121e390612ddd565b91505061213c565b5080805190602001208280519060200120141561220b5781519250612210565b600092505b509095945050505050565b60006020825161222b9190612e16565b156122785760405162461bcd60e51b815260206004820152601460248201527f496e76616c69642070726f6f66206c656e67746800000000000000000000000060448201526064016103df565b6000602083516122889190612bdd565b9050612295816002612c74565b85106122e35760405162461bcd60e51b815260206004820152601560248201527f4c65616620696e64657820697320746f6f20626967000000000000000000000060448201526064016103df565b60008660205b8551811161238357858101519250612302600289612e16565b612337576040805160208101849052908101849052606001604051602081830303815290604052805190602001209150612364565b60408051602081018590529081018390526060016040516020818303038152906040528051906020012091505b61236f600289612bdd565b975061237c602082612bc5565b90506122e9565b509094149695505050505050565b8051600090811a60808110156123aa5750600092915050565b60b88110806123c5575060c081108015906123c5575060f881105b156123d35750600192915050565b60c0811015612400576123e8600160b8612d8e565b6123f59060ff1682612d77565b610350906001612bc5565b6123e8600160f8612d8e565b6060824710156124845760405162461bcd60e51b815260206004820152602660248201527f416464726573733a20696e73756666696369656e742062616c616e636520666f60448201527f722063616c6c000000000000000000000000000000000000000000000000000060648201526084016103df565b843b6124d25760405162461bcd60e51b815260206004820152601d60248201527f416464726573733a2063616c6c20746f206e6f6e2d636f6e747261637400000060448201526064016103df565b6000808673ffffffffffffffffffffffffffffffffffffffff1685876040516124fb9190612a2b565b60006040518083038185875af1925050503d8060008114612538576040519150601f19603f3d011682016040523d82523d6000602084013e61253d565b606091505b509150915061254d8282866126e9565b979650505050505050565b805160009061256957506000919050565b6000806125798460200151612391565b84602001516125889190612bc5565b90506000846000015185602001516125a09190612bc5565b90505b808210156125d2576125b4826125db565b6125be9083612bc5565b9150826125ca81612ddd565b9350506125a3565b50909392505050565b80516000908190811a60808110156125f657600191506120ad565b60b881101561261c5761260a608082612d77565b612615906001612bc5565b91506120ad565b60c08110156126495760b78103600185019450806020036101000a855104600182018101935050506120ad565b60f881101561265d5761260a60c082612d77565b60019390930151602084900360f7016101000a90049092017fffffffffffffffffffffffffffffffffffffffffffffffffffffffffffffff0a0192915050565b806126a757505050565b602081106126df57825182526126be602084612bc5565b92506126cb602083612bc5565b91506126d8602082612d77565b90506126a7565b80611fe157505050565b606083156126f8575081610350565b8251156127085782518084602001fd5b8160405162461bcd60e51b81526004016103df9190612b59565b600061273561273084612b9d565b612b6c565b905082815283838301111561274957600080fd5b610350836020830184612db1565b600082601f83011261276857600080fd5b813561277661273082612b9d565b81815284602083860101111561278b57600080fd5b816020850160208301376000918101602001919091529392505050565b6000602082840312156127ba57600080fd5b813561035081612f08565b600080600080608085870312156127db57600080fd5b84516127e681612f08565b60208601519094506127f781612f08565b604086015190935061280881612f08565b6060959095015193969295505050565b6000806000806080858703121561282e57600080fd5b843561283981612f08565b9350602085013561284981612f08565b925060408501359150606085013567ffffffffffffffff81111561286c57600080fd5b61287887828801612757565b91505092959194509250565b60006020828403121561289657600080fd5b8151801515811461035057600080fd5b6000602082840312156128b857600080fd5b5035919050565b6000806000606084860312156128d457600080fd5b833592506020840135915060408401356128ed81612f08565b809150509250925092565b600080600080600060a0868803121561291057600080fd5b85519450602086015193506040860151925060608601519150608086015161293781612f08565b809150509295509295909350565b60006020828403121561295757600080fd5b813567ffffffffffffffff81111561296e57600080fd5b6119e384828501612757565b60006020828403121561298c57600080fd5b815167ffffffffffffffff8111156129a357600080fd5b8201601f810184136129b457600080fd5b6119e384825160208401612722565b6000602082840312156129d557600080fd5b5051919050565b6000602082840312156129ee57600080fd5b815160ff8116811461035057600080fd5b60008151808452612a17816020860160208601612db1565b601f01601f19169290920160200192915050565b60008251612a3d818460208701612db1565b9190910192915050565b83815260008351612a5f816020850160208801612db1565b60209201918201929092526040019392505050565b600073ffffffffffffffffffffffffffffffffffffffff8088168352808716602084015280861660408401525083606083015260a0608083015261254d60a08301846129ff565b73ffffffffffffffffffffffffffffffffffffffff831681526040602082015260006119e360408301846129ff565b73ffffffffffffffffffffffffffffffffffffffff85168152608060208201526000612b1960808301866129ff565b8281036040840152612b2b81866129ff565b91505060ff8316606083015295945050505050565b8281526040602082015260006119e360408301846129ff565b60208152600061035060208301846129ff565b604051601f8201601f1916810167ffffffffffffffff81118282101715612b9557612b95612ed9565b604052919050565b600067ffffffffffffffff821115612bb757612bb7612ed9565b50601f01601f191660200190565b60008219821115612bd857612bd8612e4c565b500190565b600082612bec57612bec612e7b565b500490565b600060ff831680612c0457612c04612e7b565b8060ff84160491505092915050565b600181815b80851115612c6c57817fffffffffffffffffffffffffffffffffffffffffffffffffffffffffffffffff04821115612c5257612c52612e4c565b80851615612c5f57918102915b93841c9390800290612c18565b509250929050565b60006103508383600082612c8a575060016112c0565b81612c97575060006112c0565b8160018114612cad5760028114612cb757612cd3565b60019150506112c0565b60ff841115612cc857612cc8612e4c565b50506001821b6112c0565b5060208310610133831016604e8410600b8410161715612cf6575081810a6112c0565b612d008383612c13565b807fffffffffffffffffffffffffffffffffffffffffffffffffffffffffffffffff04821115612d3257612d32612e4c565b029392505050565b6000817fffffffffffffffffffffffffffffffffffffffffffffffffffffffffffffffff0483118215151615612d7257612d72612e4c565b500290565b600082821015612d8957612d89612e4c565b500390565b600060ff821660ff841680821015612da857612da8612e4c565b90039392505050565b60005b83811015612dcc578181015183820152602001612db4565b838111156109f95750506000910152565b60007fffffffffffffffffffffffffffffffffffffffffffffffffffffffffffffffff821415612e0f57612e0f612e4c565b5060010190565b600082612e2557612e25612e7b565b500690565b600060ff831680612e3d57612e3d612e7b565b8060ff84160691505092915050565b7f4e487b7100000000000000000000000000000000000000000000000000000000600052601160045260246000fd5b7f4e487b7100000000000000000000000000000000000000000000000000000000600052601260045260246000fd5b7f4e487b7100000000000000000000000000000000000000000000000000000000600052603260045260246000fd5b7f4e487b7100000000000000000000000000000000000000000000000000000000600052604160045260246000fd5b73ffffffffffffffffffffffffffffffffffffffff81168114612f2a57600080fd5b5056fea26469706673582212205adcbe0c163b39641ab5103fb7f9fca5d082c988596c4615fb3d8054ced1f0a164736f6c63430008070033",
  "linkReferences": {},
  "deployedLinkReferences": {}
}