{
  "_format": "hh-sol-artifact-1",
  "contractName": "FxMintableERC20ChildTunnel",
  "sourceName": "contracts/examples/mintable-erc20-transfer/FxMintableERC20ChildTunnel.sol",
  "abi": [
    {
      "inputs": [
        {
          "internalType": "address",
          "name": "_fxChild",
          "type": "address"
        },
        {
          "internalType": "address",
          "name": "_childTokenTemplate",
          "type": "address"
        },
        {
          "internalType": "address",
          "name": "_rootTokenTemplate",
          "type": "address"
        }
      ],
      "stateMutability": "nonpayable",
      "type": "constructor"
    },
    {
      "anonymous": false,
      "inputs": [
        {
          "indexed": false,
          "internalType": "bytes",
          "name": "message",
          "type": "bytes"
        }
      ],
      "name": "MessageSent",
      "type": "event"
    },
    {
      "anonymous": false,
      "inputs": [
        {
          "indexed": true,
          "internalType": "address",
          "name": "previousOwner",
          "type": "address"
        },
        {
          "indexed": true,
          "internalType": "address",
          "name": "newOwner",
          "type": "address"
        }
      ],
      "name": "OwnershipTransferred",
      "type": "event"
    },
    {
      "anonymous": false,
      "inputs": [
        {
          "indexed": true,
          "internalType": "address",
          "name": "rootToken",
          "type": "address"
        },
        {
          "indexed": true,
          "internalType": "address",
          "name": "childToken",
          "type": "address"
        }
      ],
      "name": "TokenMapped",
      "type": "event"
    },
    {
      "inputs": [],
      "name": "DEPOSIT",
      "outputs": [
        {
          "internalType": "bytes32",
          "name": "",
          "type": "bytes32"
        }
      ],
      "stateMutability": "view",
      "type": "function"
    },
    {
      "inputs": [],
      "name": "childTokenTemplate",
      "outputs": [
        {
          "internalType": "address",
          "name": "",
          "type": "address"
        }
      ],
      "stateMutability": "view",
      "type": "function"
    },
    {
      "inputs": [
        {
          "internalType": "bytes32",
          "name": "salt",
          "type": "bytes32"
        },
        {
          "internalType": "bytes32",
          "name": "bytecodeHash",
          "type": "bytes32"
        },
        {
          "internalType": "address",
          "name": "deployer",
          "type": "address"
        }
      ],
      "name": "computedCreate2Address",
      "outputs": [
        {
          "internalType": "address",
          "name": "",
          "type": "address"
        }
      ],
      "stateMutability": "pure",
      "type": "function"
    },
    {
      "inputs": [
        {
          "internalType": "uint256",
          "name": "uniqueId",
          "type": "uint256"
        },
        {
          "internalType": "string",
          "name": "name",
          "type": "string"
        },
        {
          "internalType": "string",
          "name": "symbol",
          "type": "string"
        },
        {
          "internalType": "uint8",
          "name": "decimals",
          "type": "uint8"
        }
      ],
      "name": "deployChildToken",
      "outputs": [
        {
          "internalType": "address",
          "name": "",
          "type": "address"
        }
      ],
      "stateMutability": "nonpayable",
      "type": "function"
    },
    {
      "inputs": [],
      "name": "fxChild",
      "outputs": [
        {
          "internalType": "address",
          "name": "",
          "type": "address"
        }
      ],
      "stateMutability": "view",
      "type": "function"
    },
    {
      "inputs": [],
      "name": "fxRootTunnel",
      "outputs": [
        {
          "internalType": "address",
          "name": "",
          "type": "address"
        }
      ],
      "stateMutability": "view",
      "type": "function"
    },
    {
      "inputs": [
        {
          "internalType": "address",
          "name": "childToken",
          "type": "address"
        },
        {
          "internalType": "uint256",
          "name": "amount",
          "type": "uint256"
        }
      ],
      "name": "mintToken",
      "outputs": [],
      "stateMutability": "nonpayable",
      "type": "function"
    },
    {
      "inputs": [],
      "name": "owner",
      "outputs": [
        {
          "internalType": "address",
          "name": "",
          "type": "address"
        }
      ],
      "stateMutability": "view",
      "type": "function"
    },
    {
      "inputs": [
        {
          "internalType": "uint256",
          "name": "stateId",
          "type": "uint256"
        },
        {
          "internalType": "address",
          "name": "rootMessageSender",
          "type": "address"
        },
        {
          "internalType": "bytes",
          "name": "data",
          "type": "bytes"
        }
      ],
      "name": "processMessageFromRoot",
      "outputs": [],
      "stateMutability": "nonpayable",
      "type": "function"
    },
    {
      "inputs": [],
      "name": "renounceOwnership",
      "outputs": [],
      "stateMutability": "nonpayable",
      "type": "function"
    },
    {
      "inputs": [
        {
          "internalType": "address",
          "name": "",
          "type": "address"
        }
      ],
      "name": "rootToChildToken",
      "outputs": [
        {
          "internalType": "address",
          "name": "",
          "type": "address"
        }
      ],
      "stateMutability": "view",
      "type": "function"
    },
    {
      "inputs": [],
      "name": "rootTokenTemplateCodeHash",
      "outputs": [
        {
          "internalType": "bytes32",
          "name": "",
          "type": "bytes32"
        }
      ],
      "stateMutability": "view",
      "type": "function"
    },
    {
      "inputs": [
        {
          "internalType": "address",
          "name": "_fxRootTunnel",
          "type": "address"
        }
      ],
      "name": "setFxRootTunnel",
      "outputs": [],
      "stateMutability": "nonpayable",
      "type": "function"
    },
    {
      "inputs": [
        {
          "internalType": "address",
          "name": "newOwner",
          "type": "address"
        }
      ],
      "name": "transferOwnership",
      "outputs": [],
      "stateMutability": "nonpayable",
      "type": "function"
    },
    {
      "inputs": [
        {
          "internalType": "address",
          "name": "childToken",
          "type": "address"
        },
        {
          "internalType": "uint256",
          "name": "amount",
          "type": "uint256"
        }
      ],
      "name": "withdraw",
      "outputs": [],
      "stateMutability": "nonpayable",
      "type": "function"
    }
  ],
  "bytecode": "0x60806040523480156200001157600080fd5b5060405162001c6f38038062001c6f8339810160408190526200003491620001a0565b600080546001600160a01b031916339081178255604051859282917f8be0079c531659141344cd1fd0a4f28419497f9722a3daafe3b4186f6b6457e0908290a350600180546001600160a01b03199081166001600160a01b039384161790915560048054909116918416919091179055620000b5823b63ffffffff16151590565b620001065760405162461bcd60e51b815260206004820152601e60248201527f546f6b656e2074656d706c617465206973206e6f7420636f6e74726163740000604482015260640160405180910390fd5b60408051693d602d80600a3d3981f360b01b602082015269363d3d373d3d3d363d7360b01b602a8201526001600160601b0319606084901b1660348201526e5af43d82803e903d91602b57fd5bf360881b6048820152815180820360370181526057909101909152805160209091012060055550620001ea915050565b80516001600160a01b03811681146200019b57600080fd5b919050565b600080600060608486031215620001b657600080fd5b620001c18462000183565b9250620001d16020850162000183565b9150620001e16040850162000183565b90509250925092565b611a7580620001fa6000396000f3fe608060405234801561001057600080fd5b50600436106100f55760003560e01c80638da5cb5b11610097578063d81c8e5211610066578063d81c8e5214610222578063ea60c7c414610249578063f2fde38b1461027f578063f3fef3a31461029257600080fd5b80638da5cb5b146101ba5780639a7c4b71146101d8578063a3984fec146101eb578063b68ad1e41461020257600080fd5b80637337957f116100d35780637337957f1461016157806379c65068146101745780637f1e9cb01461018757806388837094146101a757600080fd5b806301f1d031146100fa578063450d11f014610137578063715018a614610157575b600080fd5b61010d610108366004611734565b6102a5565b60405173ffffffffffffffffffffffffffffffffffffffff90911681526020015b60405180910390f35b60015461010d9073ffffffffffffffffffffffffffffffffffffffff1681565b61015f610594565b005b61010d61016f3660046115da565b61066a565b61015f6101823660046115ae565b6106f2565b60025461010d9073ffffffffffffffffffffffffffffffffffffffff1681565b61015f6101b53660046114f2565b61094d565b60005473ffffffffffffffffffffffffffffffffffffffff1661010d565b61015f6101e63660046116ab565b610a20565b6101f460055481565b60405190815260200161012e565b60045461010d9073ffffffffffffffffffffffffffffffffffffffff1681565b6101f47f87a7811f4bfedea3d341ad165680ae306b01aaeacc205d227629cf157dd9f82181565b61010d6102573660046114f2565b60036020526000908152604090205473ffffffffffffffffffffffffffffffffffffffff1681565b61015f61028d3660046114f2565b610af4565b61015f6102a03660046115ae565b610c71565b6000805473ffffffffffffffffffffffffffffffffffffffff1633146103125760405162461bcd60e51b815260206004820181905260248201527f4f776e61626c653a2063616c6c6572206973206e6f7420746865206f776e657260448201526064015b60405180910390fd5b60008560405160200161032791815260200190565b60408051601f19818403018152919052805160209091012060045490915060009061036990839073ffffffffffffffffffffffffffffffffffffffff16611055565b6040517fffffffffffffffffffffffffffffffffffffffff000000000000000000000000606083901b16602082015290915060009060340160408051601f1981840301815291905280516020909101206005546002549192506000916103e691849173ffffffffffffffffffffffffffffffffffffffff1661066a565b73ffffffffffffffffffffffffffffffffffffffff80821660009081526003602052604090205491925016156104845760405162461bcd60e51b815260206004820152602a60248201527f46784d696e7461626c6545524332304368696c6454756e6e656c3a20414c524560448201527f4144595f4d4150504544000000000000000000000000000000000000000000006064820152608401610309565b73ffffffffffffffffffffffffffffffffffffffff81811660008181526003602052604080822080547fffffffffffffffffffffffff0000000000000000000000000000000000000000169488169485179055517f85920d35e6c72f6b2affffa04298b0cecfeba86e4a9f407df661f1cb8ab5e6179190a36040517f8420ce9900000000000000000000000000000000000000000000000000000000815273ffffffffffffffffffffffffffffffffffffffff841690638420ce999061055690309085908d908d908d906004016118aa565b600060405180830381600087803b15801561057057600080fd5b505af1158015610584573d6000803e3d6000fd5b5050505050505050949350505050565b60005473ffffffffffffffffffffffffffffffffffffffff1633146105fb5760405162461bcd60e51b815260206004820181905260248201527f4f776e61626c653a2063616c6c6572206973206e6f7420746865206f776e65726044820152606401610309565b6000805460405173ffffffffffffffffffffffffffffffffffffffff909116907f8be0079c531659141344cd1fd0a4f28419497f9722a3daafe3b4186f6b6457e0908390a3600080547fffffffffffffffffffffffff0000000000000000000000000000000000000000169055565b604080517fff00000000000000000000000000000000000000000000000000000000000000602080830191909152606084901b7fffffffffffffffffffffffffffffffffffffffff00000000000000000000000016602183015260358201869052605580830186905283518084039091018152607590920190925280519101205b9392505050565b60005473ffffffffffffffffffffffffffffffffffffffff1633146107595760405162461bcd60e51b815260206004820181905260248201527f4f776e61626c653a2063616c6c6572206973206e6f7420746865206f776e65726044820152606401610309565b600082905060008173ffffffffffffffffffffffffffffffffffffffff16630a8a49146040518163ffffffff1660e01b815260040160206040518083038186803b1580156107a657600080fd5b505afa1580156107ba573d6000803e3d6000fd5b505050506040513d601f19601f820116820180604052508101906107de919061150f565b905073ffffffffffffffffffffffffffffffffffffffff84161580159061081a575073ffffffffffffffffffffffffffffffffffffffff811615155b801561084f575073ffffffffffffffffffffffffffffffffffffffff8082166000908152600360205260409020548582169116145b6108c15760405162461bcd60e51b815260206004820152602360248201527f467845524332304368696c6454756e6e656c3a204e4f5f4d41505045445f544f60448201527f4b454e00000000000000000000000000000000000000000000000000000000006064820152608401610309565b6040517f40c10f190000000000000000000000000000000000000000000000000000000081523360048201526024810184905273ffffffffffffffffffffffffffffffffffffffff8316906340c10f1990604401600060405180830381600087803b15801561092f57600080fd5b505af1158015610943573d6000803e3d6000fd5b5050505050505050565b60025473ffffffffffffffffffffffffffffffffffffffff16156109d95760405162461bcd60e51b815260206004820152602a60248201527f4678426173654368696c6454756e6e656c3a20524f4f545f54554e4e454c5f4160448201527f4c52454144595f534554000000000000000000000000000000000000000000006064820152608401610309565b600280547fffffffffffffffffffffffff00000000000000000000000000000000000000001673ffffffffffffffffffffffffffffffffffffffff92909216919091179055565b60015473ffffffffffffffffffffffffffffffffffffffff163314610aad5760405162461bcd60e51b815260206004820152602160248201527f4678426173654368696c6454756e6e656c3a20494e56414c49445f53454e444560448201527f52000000000000000000000000000000000000000000000000000000000000006064820152608401610309565b610aee848484848080601f01602080910402602001604051908101604052809392919081815260200183838082843760009201919091525061114a92505050565b50505050565b60005473ffffffffffffffffffffffffffffffffffffffff163314610b5b5760405162461bcd60e51b815260206004820181905260248201527f4f776e61626c653a2063616c6c6572206973206e6f7420746865206f776e65726044820152606401610309565b73ffffffffffffffffffffffffffffffffffffffff8116610be45760405162461bcd60e51b815260206004820152602660248201527f4f776e61626c653a206e6577206f776e657220697320746865207a65726f206160448201527f64647265737300000000000000000000000000000000000000000000000000006064820152608401610309565b6000805460405173ffffffffffffffffffffffffffffffffffffffff808516939216917f8be0079c531659141344cd1fd0a4f28419497f9722a3daafe3b4186f6b6457e091a3600080547fffffffffffffffffffffffff00000000000000000000000000000000000000001673ffffffffffffffffffffffffffffffffffffffff92909216919091179055565b600082905060008173ffffffffffffffffffffffffffffffffffffffff16630a8a49146040518163ffffffff1660e01b815260040160206040518083038186803b158015610cbe57600080fd5b505afa158015610cd2573d6000803e3d6000fd5b505050506040513d601f19601f82011682018060405250810190610cf6919061150f565b905073ffffffffffffffffffffffffffffffffffffffff841615801590610d32575073ffffffffffffffffffffffffffffffffffffffff811615155b8015610d67575073ffffffffffffffffffffffffffffffffffffffff8082166000908152600360205260409020548582169116145b610dd95760405162461bcd60e51b815260206004820152602360248201527f467845524332304368696c6454756e6e656c3a204e4f5f4d41505045445f544f60448201527f4b454e00000000000000000000000000000000000000000000000000000000006064820152608401610309565b6040517f9dc29fac0000000000000000000000000000000000000000000000000000000081523360048201526024810184905273ffffffffffffffffffffffffffffffffffffffff831690639dc29fac90604401600060405180830381600087803b158015610e4757600080fd5b505af1158015610e5b573d6000803e3d6000fd5b50505050600084905060008173ffffffffffffffffffffffffffffffffffffffff166306fdde036040518163ffffffff1660e01b815260040160006040518083038186803b158015610eac57600080fd5b505afa158015610ec0573d6000803e3d6000fd5b505050506040513d6000823e601f3d908101601f19168201604052610ee8919081019061165a565b905060008273ffffffffffffffffffffffffffffffffffffffff166395d89b416040518163ffffffff1660e01b815260040160006040518083038186803b158015610f3257600080fd5b505afa158015610f46573d6000803e3d6000fd5b505050506040513d6000823e601f3d908101601f19168201604052610f6e919081019061165a565b905060008373ffffffffffffffffffffffffffffffffffffffff1663313ce5676040518163ffffffff1660e01b815260040160206040518083038186803b158015610fb857600080fd5b505afa158015610fcc573d6000803e3d6000fd5b505050506040513d601f19601f82011682018060405250810190610ff091906117b4565b905060008383836040516020016110099392919061191e565b604051602081830303815290604052905061104a868a338b85604051602001611036959493929190611858565b6040516020818303038152906040526112a3565b505050505050505050565b6000808260601b90506040517f3d602d80600a3d3981f3363d3d373d3d3d363d7300000000000000000000000081528160148201527f5af43d82803e903d91602b57fd5bf300000000000000000000000000000000006028820152846037826000f592505073ffffffffffffffffffffffffffffffffffffffff82166111435760405162461bcd60e51b815260206004820152602160248201527f437265617465323a204661696c6564206f6e206d696e696d616c206465706c6f60448201527f79000000000000000000000000000000000000000000000000000000000000006064820152608401610309565b5092915050565b600254829073ffffffffffffffffffffffffffffffffffffffff8083169116146111dc5760405162461bcd60e51b815260206004820152602b60248201527f4678426173654368696c6454756e6e656c3a20494e56414c49445f53454e444560448201527f525f46524f4d5f524f4f540000000000000000000000000000000000000000006064820152608401610309565b600080838060200190518101906111f39190611613565b915091507f87a7811f4bfedea3d341ad165680ae306b01aaeacc205d227629cf157dd9f82182141561122d57611228816112dd565b61129b565b60405162461bcd60e51b815260206004820152602560248201527f467845524332304368696c6454756e6e656c3a20494e56414c49445f53594e4360448201527f5f545950450000000000000000000000000000000000000000000000000000006064820152608401610309565b505050505050565b7f8c5261668696ce22758910d05bab8f186d6eb247ceac2af2e82c7dc17669b036816040516112d2919061190b565b60405180910390a150565b6000806000806000858060200190518101906112f9919061152c565b73ffffffffffffffffffffffffffffffffffffffff858116600090815260036020526040908190205490517f40c10f19000000000000000000000000000000000000000000000000000000008152858316600482015260248101859052969b5094995092975090955093501690819081906340c10f1990604401600060405180830381600087803b15801561138d57600080fd5b505af11580156113a1573d6000803e3d6000fd5b50505050843b63ffffffff1615610943576000621e8480905060008089858a8a8a8a6040516024016113d8969594939291906117fd565b60408051601f198184030181529190526020810180517bffffffffffffffffffffffffffffffffffffffffffffffffffffffff167f166480c20000000000000000000000000000000000000000000000000000000017815281519192506000918291828c88f1505050505050505050505050565b600061145f61145a84611988565b611957565b905082815283838301111561147357600080fd5b6106eb8360208301846119b0565b600082601f83011261149257600080fd5b6106eb8383516020850161144c565b600082601f8301126114b257600080fd5b81356114c061145a82611988565b8181528460208386010111156114d557600080fd5b816020850160208301376000918101602001919091529392505050565b60006020828403121561150457600080fd5b81356106eb81611a0b565b60006020828403121561152157600080fd5b81516106eb81611a0b565b600080600080600060a0868803121561154457600080fd5b855161154f81611a0b565b602087015190955061156081611a0b565b604087015190945061157181611a0b565b60608701516080880151919450925067ffffffffffffffff81111561159557600080fd5b6115a188828901611481565b9150509295509295909350565b600080604083850312156115c157600080fd5b82356115cc81611a0b565b946020939093013593505050565b6000806000606084860312156115ef57600080fd5b8335925060208401359150604084013561160881611a0b565b809150509250925092565b6000806040838503121561162657600080fd5b82519150602083015167ffffffffffffffff81111561164457600080fd5b61165085828601611481565b9150509250929050565b60006020828403121561166c57600080fd5b815167ffffffffffffffff81111561168357600080fd5b8201601f8101841361169457600080fd5b6116a38482516020840161144c565b949350505050565b600080600080606085870312156116c157600080fd5b8435935060208501356116d381611a0b565b9250604085013567ffffffffffffffff808211156116f057600080fd5b818701915087601f83011261170457600080fd5b81358181111561171357600080fd5b88602082850101111561172557600080fd5b95989497505060200194505050565b6000806000806080858703121561174a57600080fd5b84359350602085013567ffffffffffffffff8082111561176957600080fd5b611775888389016114a1565b9450604087013591508082111561178b57600080fd5b50611798878288016114a1565b92505060608501356117a981611a30565b939692955090935050565b6000602082840312156117c657600080fd5b81516106eb81611a30565b600081518084526117e98160208601602086016119b0565b601f01601f19169290920160200192915050565b600073ffffffffffffffffffffffffffffffffffffffff80891683528088166020840152808716604084015280861660608401525083608083015260c060a083015261184c60c08301846117d1565b98975050505050505050565b600073ffffffffffffffffffffffffffffffffffffffff8088168352808716602084015280861660408401525083606083015260a0608083015261189f60a08301846117d1565b979650505050505050565b600073ffffffffffffffffffffffffffffffffffffffff808816835280871660208401525060a060408301526118e360a08301866117d1565b82810360608401526118f581866117d1565b91505060ff831660808301529695505050505050565b6020815260006106eb60208301846117d1565b60608152600061193160608301866117d1565b828103602084015261194381866117d1565b91505060ff83166040830152949350505050565b604051601f8201601f1916810167ffffffffffffffff81118282101715611980576119806119dc565b604052919050565b600067ffffffffffffffff8211156119a2576119a26119dc565b50601f01601f191660200190565b60005b838110156119cb5781810151838201526020016119b3565b83811115610aee5750506000910152565b7f4e487b7100000000000000000000000000000000000000000000000000000000600052604160045260246000fd5b73ffffffffffffffffffffffffffffffffffffffff81168114611a2d57600080fd5b50565b60ff81168114611a2d57600080fdfea264697066735822122031a7a88da7d93e56e81e1ed5f5af476df1e8fc4b3a749f79b9df8f5b4e22258864736f6c63430008070033",
  "linkReferences": {},
  "deployedLinkReferences": {}
}