{
  "_format": "hh-sol-artifact-1",
  "contractName": "FxERC721",
  "sourceName": "contracts/tokens/FxERC721.sol",
  "abi": [
    {
      "anonymous": false,
      "inputs": [
        {
          "indexed": true,
          "internalType": "address",
          "name": "owner",
          "type": "address"
        },
        {
          "indexed": true,
          "internalType": "address",
          "name": "approved",
          "type": "address"
        },
        {
          "indexed": true,
          "internalType": "uint256",
          "name": "tokenId",
          "type": "uint256"
        }
      ],
      "name": "Approval",
      "type": "event"
    },
    {
      "anonymous": false,
      "inputs": [
        {
          "indexed": true,
          "internalType": "address",
          "name": "owner",
          "type": "address"
        },
        {
          "indexed": true,
          "internalType": "address",
          "name": "operator",
          "type": "address"
        },
        {
          "indexed": false,
          "internalType": "bool",
          "name": "approved",
          "type": "bool"
        }
      ],
      "name": "ApprovalForAll",
      "type": "event"
    },
    {
      "anonymous": false,
      "inputs": [
        {
          "indexed": true,
          "internalType": "address",
          "name": "from",
          "type": "address"
        },
        {
          "indexed": true,
          "internalType": "address",
          "name": "to",
          "type": "address"
        },
        {
          "indexed": true,
          "internalType": "uint256",
          "name": "tokenId",
          "type": "uint256"
        }
      ],
      "name": "Transfer",
      "type": "event"
    },
    {
      "inputs": [
        {
          "internalType": "address",
          "name": "to",
          "type": "address"
        },
        {
          "internalType": "uint256",
          "name": "tokenId",
          "type": "uint256"
        }
      ],
      "name": "approve",
      "outputs": [],
      "stateMutability": "nonpayable",
      "type": "function"
    },
    {
      "inputs": [
        {
          "internalType": "address",
          "name": "owner",
          "type": "address"
        }
      ],
      "name": "balanceOf",
      "outputs": [
        {
          "internalType": "uint256",
          "name": "",
          "type": "uint256"
        }
      ],
      "stateMutability": "view",
      "type": "function"
    },
    {
      "inputs": [
        {
          "internalType": "uint256",
          "name": "tokenId",
          "type": "uint256"
        }
      ],
      "name": "burn",
      "outputs": [],
      "stateMutability": "nonpayable",
      "type": "function"
    },
    {
      "inputs": [],
      "name": "connectedToken",
      "outputs": [
        {
          "internalType": "address",
          "name": "",
          "type": "address"
        }
      ],
      "stateMutability": "view",
      "type": "function"
    },
    {
      "inputs": [],
      "name": "fxManager",
      "outputs": [
        {
          "internalType": "address",
          "name": "",
          "type": "address"
        }
      ],
      "stateMutability": "view",
      "type": "function"
    },
    {
      "inputs": [
        {
          "internalType": "uint256",
          "name": "tokenId",
          "type": "uint256"
        }
      ],
      "name": "getApproved",
      "outputs": [
        {
          "internalType": "address",
          "name": "",
          "type": "address"
        }
      ],
      "stateMutability": "view",
      "type": "function"
    },
    {
      "inputs": [
        {
          "internalType": "address",
          "name": "fxManager_",
          "type": "address"
        },
        {
          "internalType": "address",
          "name": "connectedToken_",
          "type": "address"
        },
        {
          "internalType": "string",
          "name": "name_",
          "type": "string"
        },
        {
          "internalType": "string",
          "name": "symbol_",
          "type": "string"
        }
      ],
      "name": "initialize",
      "outputs": [],
      "stateMutability": "nonpayable",
      "type": "function"
    },
    {
      "inputs": [
        {
          "internalType": "address",
          "name": "owner",
          "type": "address"
        },
        {
          "internalType": "address",
          "name": "operator",
          "type": "address"
        }
      ],
      "name": "isApprovedForAll",
      "outputs": [
        {
          "internalType": "bool",
          "name": "",
          "type": "bool"
        }
      ],
      "stateMutability": "view",
      "type": "function"
    },
    {
      "inputs": [
        {
          "internalType": "address",
          "name": "user",
          "type": "address"
        },
        {
          "internalType": "uint256",
          "name": "tokenId",
          "type": "uint256"
        },
        {
          "internalType": "bytes",
          "name": "_data",
          "type": "bytes"
        }
      ],
      "name": "mint",
      "outputs": [],
      "stateMutability": "nonpayable",
      "type": "function"
    },
    {
      "inputs": [],
      "name": "name",
      "outputs": [
        {
          "internalType": "string",
          "name": "",
          "type": "string"
        }
      ],
      "stateMutability": "view",
      "type": "function"
    },
    {
      "inputs": [
        {
          "internalType": "uint256",
          "name": "tokenId",
          "type": "uint256"
        }
      ],
      "name": "ownerOf",
      "outputs": [
        {
          "internalType": "address",
          "name": "",
          "type": "address"
        }
      ],
      "stateMutability": "view",
      "type": "function"
    },
    {
      "inputs": [
        {
          "internalType": "address",
          "name": "from",
          "type": "address"
        },
        {
          "internalType": "address",
          "name": "to",
          "type": "address"
        },
        {
          "internalType": "uint256",
          "name": "tokenId",
          "type": "uint256"
        }
      ],
      "name": "safeTransferFrom",
      "outputs": [],
      "stateMutability": "nonpayable",
      "type": "function"
    },
    {
      "inputs": [
        {
          "internalType": "address",
          "name": "from",
          "type": "address"
        },
        {
          "internalType": "address",
          "name": "to",
          "type": "address"
        },
        {
          "internalType": "uint256",
          "name": "tokenId",
          "type": "uint256"
        },
        {
          "internalType": "bytes",
          "name": "_data",
          "type": "bytes"
        }
      ],
      "name": "safeTransferFrom",
      "outputs": [],
      "stateMutability": "nonpayable",
      "type": "function"
    },
    {
      "inputs": [
        {
          "internalType": "address",
          "name": "operator",
          "type": "address"
        },
        {
          "internalType": "bool",
          "name": "approved",
          "type": "bool"
        }
      ],
      "name": "setApprovalForAll",
      "outputs": [],
      "stateMutability": "nonpayable",
      "type": "function"
    },
    {
      "inputs": [
        {
          "internalType": "string",
          "name": "_name",
          "type": "string"
        },
        {
          "internalType": "string",
          "name": "_symbol",
          "type": "string"
        }
      ],
      "name": "setupMetaData",
      "outputs": [],
      "stateMutability": "nonpayable",
      "type": "function"
    },
    {
      "inputs": [
        {
          "internalType": "bytes4",
          "name": "interfaceId",
          "type": "bytes4"
        }
      ],
      "name": "supportsInterface",
      "outputs": [
        {
          "internalType": "bool",
          "name": "",
          "type": "bool"
        }
      ],
      "stateMutability": "view",
      "type": "function"
    },
    {
      "inputs": [],
      "name": "symbol",
      "outputs": [
        {
          "internalType": "string",
          "name": "",
          "type": "string"
        }
      ],
      "stateMutability": "view",
      "type": "function"
    },
    {
      "inputs": [
        {
          "internalType": "uint256",
          "name": "tokenId",
          "type": "uint256"
        }
      ],
      "name": "tokenURI",
      "outputs": [
        {
          "internalType": "string",
          "name": "",
          "type": "string"
        }
      ],
      "stateMutability": "view",
      "type": "function"
    },
    {
      "inputs": [
        {
          "internalType": "address",
          "name": "from",
          "type": "address"
        },
        {
          "internalType": "address",
          "name": "to",
          "type": "address"
        },
        {
          "internalType": "uint256",
          "name": "tokenId",
          "type": "uint256"
        }
      ],
      "name": "transferFrom",
      "outputs": [],
      "stateMutability": "nonpayable",
      "type": "function"
    }
  ],
  "bytecode": "0x608060405234801561001057600080fd5b50611e11806100206000396000f3fe608060405234801561001057600080fd5b50600436106101515760003560e01c806342966c68116100cd5780639b77915311610081578063b88d4fde11610066578063b88d4fde146102b6578063c87b56dd146102c9578063e985e9c5146102dc57600080fd5b80639b77915314610292578063a22cb465146102a357600080fd5b806370a08231116100b257806370a082311461025657806394d008ef1461027757806395d89b411461028a57600080fd5b806342966c68146102305780636352211e1461024357600080fd5b80630a8a49141161012457806323b872dd1161010957806323b872dd146101f75780633d30498f1461020a57806342842e0e1461021d57600080fd5b80630a8a4914146101d35780632016a0d2146101e457600080fd5b806301ffc9a71461015657806306fdde031461017e578063081812fc14610193578063095ea7b3146101be575b600080fd5b610169610164366004611a62565b610318565b60405190151581526020015b60405180910390f35b6101866103fd565b6040516101759190611bce565b6101a66101a1366004611b00565b61048f565b6040516001600160a01b039091168152602001610175565b6101d16101cc3660046119e1565b61053a565b005b6007546001600160a01b03166101a6565b6101d16101f2366004611888565b6106e2565b6101d161020536600461190d565b6107a8565b6101d1610218366004611a9c565b610834565b6101d161022b36600461190d565b61089c565b6101d161023e366004611b00565b6108b7565b6101a6610251366004611b00565b61091d565b61026961026436600461183a565b6109a8565b604051908152602001610175565b6101d1610285366004611a0b565b610a42565b610186610aa7565b6006546001600160a01b03166101a6565b6101d16102b13660046119a5565b610ab6565b6101d16102c4366004611949565b610b99565b6101866102d7366004611b00565b610c21565b6101696102ea366004611855565b6001600160a01b03918216600090815260056020908152604080832093909416825291909152205460ff1690565b60007fffffffff0000000000000000000000000000000000000000000000000000000082167f80ac58cd0000000000000000000000000000000000000000000000000000000014806103ab57507fffffffff0000000000000000000000000000000000000000000000000000000082167f5b5e139f00000000000000000000000000000000000000000000000000000000145b806103f757507f01ffc9a7000000000000000000000000000000000000000000000000000000007fffffffff000000000000000000000000000000000000000000000000000000008316145b92915050565b60606000805461040c90611c50565b80601f016020809104026020016040519081016040528092919081815260200182805461043890611c50565b80156104855780601f1061045a57610100808354040283529160200191610485565b820191906000526020600020905b81548152906001019060200180831161046857829003601f168201915b5050505050905090565b6000818152600260205260408120546001600160a01b031661051e5760405162461bcd60e51b815260206004820152602c60248201527f4552433732313a20617070726f76656420717565727920666f72206e6f6e657860448201527f697374656e7420746f6b656e000000000000000000000000000000000000000060648201526084015b60405180910390fd5b506000908152600460205260409020546001600160a01b031690565b60006105458261091d565b9050806001600160a01b0316836001600160a01b031614156105cf5760405162461bcd60e51b815260206004820152602160248201527f4552433732313a20617070726f76616c20746f2063757272656e74206f776e6560448201527f72000000000000000000000000000000000000000000000000000000000000006064820152608401610515565b336001600160a01b03821614806105eb57506105eb81336102ea565b61065d5760405162461bcd60e51b815260206004820152603860248201527f4552433732313a20617070726f76652063616c6c6572206973206e6f74206f7760448201527f6e6572206e6f7220617070726f76656420666f7220616c6c00000000000000006064820152608401610515565b600082815260046020526040902080547fffffffffffffffffffffffff0000000000000000000000000000000000000000166001600160a01b03851617905581836001600160a01b0316826001600160a01b03167f8c5be1e5ebec7d5bd14f71427d1e84f3dd0314c0f7b2291e5b200ac8c7c3b92560405160405180910390a4505050565b6006546001600160a01b031615801561070457506007546001600160a01b0316155b6107505760405162461bcd60e51b815260206004820152601c60248201527f546f6b656e20697320616c726561647920696e697469616c697a6564000000006044820152606401610515565b600680546001600160a01b038087167fffffffffffffffffffffffff00000000000000000000000000000000000000009283161790925560078054928616929091169190911790556107a28282610834565b50505050565b6107b23382610d17565b6108245760405162461bcd60e51b815260206004820152603160248201527f4552433732313a207472616e736665722063616c6c6572206973206e6f74206f60448201527f776e6572206e6f7220617070726f7665640000000000000000000000000000006064820152608401610515565b61082f838383610e1f565b505050565b6006546001600160a01b0316331461088e5760405162461bcd60e51b815260206004820152600e60248201527f496e76616c69642073656e6465720000000000000000000000000000000000006044820152606401610515565b610898828261106e565b5050565b61082f83838360405180602001604052806000815250610b99565b6006546001600160a01b031633146109115760405162461bcd60e51b815260206004820152600e60248201527f496e76616c69642073656e6465720000000000000000000000000000000000006044820152606401610515565b61091a81611095565b50565b6000818152600260205260408120546001600160a01b0316806103f75760405162461bcd60e51b815260206004820152602960248201527f4552433732313a206f776e657220717565727920666f72206e6f6e657869737460448201527f656e7420746f6b656e00000000000000000000000000000000000000000000006064820152608401610515565b60006001600160a01b038216610a265760405162461bcd60e51b815260206004820152602a60248201527f4552433732313a2062616c616e636520717565727920666f7220746865207a6560448201527f726f2061646472657373000000000000000000000000000000000000000000006064820152608401610515565b506001600160a01b031660009081526003602052604090205490565b6006546001600160a01b03163314610a9c5760405162461bcd60e51b815260206004820152600e60248201527f496e76616c69642073656e6465720000000000000000000000000000000000006044820152606401610515565b61082f838383611171565b60606001805461040c90611c50565b6001600160a01b038216331415610b0f5760405162461bcd60e51b815260206004820152601960248201527f4552433732313a20617070726f766520746f2063616c6c6572000000000000006044820152606401610515565b3360008181526005602090815260408083206001600160a01b0387168085529083529281902080547fffffffffffffffffffffffffffffffffffffffffffffffffffffffffffffff001686151590811790915590519081529192917f17307eab39ab6107e8899845ad3d59bd9653f200f220920489ca2b5937696c31910160405180910390a35050565b610ba33383610d17565b610c155760405162461bcd60e51b815260206004820152603160248201527f4552433732313a207472616e736665722063616c6c6572206973206e6f74206f60448201527f776e6572206e6f7220617070726f7665640000000000000000000000000000006064820152608401610515565b6107a2848484846111fa565b6000818152600260205260409020546060906001600160a01b0316610cae5760405162461bcd60e51b815260206004820152602f60248201527f4552433732314d657461646174613a2055524920717565727920666f72206e6f60448201527f6e6578697374656e7420746f6b656e00000000000000000000000000000000006064820152608401610515565b6000610cc560408051602081019091526000815290565b90506000815111610ce55760405180602001604052806000815250610d10565b80610cef84611283565b604051602001610d00929190611b63565b6040516020818303038152906040525b9392505050565b6000818152600260205260408120546001600160a01b0316610da15760405162461bcd60e51b815260206004820152602c60248201527f4552433732313a206f70657261746f7220717565727920666f72206e6f6e657860448201527f697374656e7420746f6b656e00000000000000000000000000000000000000006064820152608401610515565b6000610dac8361091d565b9050806001600160a01b0316846001600160a01b03161480610de75750836001600160a01b0316610ddc8461048f565b6001600160a01b0316145b80610e1757506001600160a01b0380821660009081526005602090815260408083209388168352929052205460ff165b949350505050565b826001600160a01b0316610e328261091d565b6001600160a01b031614610eae5760405162461bcd60e51b815260206004820152602960248201527f4552433732313a207472616e73666572206f6620746f6b656e2074686174206960448201527f73206e6f74206f776e00000000000000000000000000000000000000000000006064820152608401610515565b6001600160a01b038216610f295760405162461bcd60e51b8152602060048201526024808201527f4552433732313a207472616e7366657220746f20746865207a65726f2061646460448201527f72657373000000000000000000000000000000000000000000000000000000006064820152608401610515565b600081815260046020526040902080547fffffffffffffffffffffffff0000000000000000000000000000000000000000169055806000610f698261091d565b6001600160a01b03167f8c5be1e5ebec7d5bd14f71427d1e84f3dd0314c0f7b2291e5b200ac8c7c3b92560405160405180910390a46001600160a01b0383166000908152600360205260408120805460019290610fc7908490611c0d565b90915550506001600160a01b0382166000908152600360205260408120805460019290610ff5908490611be1565b909155505060008181526002602052604080822080547fffffffffffffffffffffffff0000000000000000000000000000000000000000166001600160a01b0386811691821790925591518493918716917fddf252ad1be2c89b69c2b068fc378daa952ba7f163c4a11628f55a4df523b3ef91a4505050565b81516110819060009060208501906116da565b50805161082f9060019060208401906116da565b60006110a08261091d565b9050600082815260046020526040902080547fffffffffffffffffffffffff00000000000000000000000000000000000000001690556001600160a01b03811660009081526003602052604081208054600192906110ff908490611c0d565b909155505060008281526002602052604080822080547fffffffffffffffffffffffff0000000000000000000000000000000000000000169055518391906001600160a01b038416907fddf252ad1be2c89b69c2b068fc378daa952ba7f163c4a11628f55a4df523b3ef908390a45050565b61117b83836113b5565b611188600084848461150f565b61082f5760405162461bcd60e51b815260206004820152603260248201527f4552433732313a207472616e7366657220746f206e6f6e20455243373231526560448201527f63656976657220696d706c656d656e74657200000000000000000000000000006064820152608401610515565b611205848484610e1f565b6112118484848461150f565b6107a25760405162461bcd60e51b815260206004820152603260248201527f4552433732313a207472616e7366657220746f206e6f6e20455243373231526560448201527f63656976657220696d706c656d656e74657200000000000000000000000000006064820152608401610515565b6060816112c357505060408051808201909152600181527f3000000000000000000000000000000000000000000000000000000000000000602082015290565b8160005b81156112ed57806112d781611ca4565b91506112e69050600a83611bf9565b91506112c7565b60008167ffffffffffffffff81111561130857611308611d7e565b6040519080825280601f01601f191660200182016040528015611332576020820181803683370190505b5090505b8415610e1757611347600183611c0d565b9150611354600a86611cdd565b61135f906030611be1565b60f81b81838151811061137457611374611d4f565b60200101907effffffffffffffffffffffffffffffffffffffffffffffffffffffffffffff1916908160001a9053506113ae600a86611bf9565b9450611336565b6001600160a01b03821661140b5760405162461bcd60e51b815260206004820181905260248201527f4552433732313a206d696e7420746f20746865207a65726f20616464726573736044820152606401610515565b6000818152600260205260409020546001600160a01b0316156114705760405162461bcd60e51b815260206004820152601c60248201527f4552433732313a20746f6b656e20616c7265616479206d696e746564000000006044820152606401610515565b6001600160a01b0382166000908152600360205260408120805460019290611499908490611be1565b909155505060008181526002602052604080822080547fffffffffffffffffffffffff0000000000000000000000000000000000000000166001600160a01b03861690811790915590518392907fddf252ad1be2c89b69c2b068fc378daa952ba7f163c4a11628f55a4df523b3ef908290a45050565b60006001600160a01b0384163b156116cf576040517f150b7a020000000000000000000000000000000000000000000000000000000081526001600160a01b0385169063150b7a029061156c903390899088908890600401611b92565b602060405180830381600087803b15801561158657600080fd5b505af19250505080156115d4575060408051601f3d9081017fffffffffffffffffffffffffffffffffffffffffffffffffffffffffffffffe01682019092526115d191810190611a7f565b60015b611684573d808015611602576040519150601f19603f3d011682016040523d82523d6000602084013e611607565b606091505b50805161167c5760405162461bcd60e51b815260206004820152603260248201527f4552433732313a207472616e7366657220746f206e6f6e20455243373231526560448201527f63656976657220696d706c656d656e74657200000000000000000000000000006064820152608401610515565b805181602001fd5b7fffffffff00000000000000000000000000000000000000000000000000000000167f150b7a0200000000000000000000000000000000000000000000000000000000149050610e17565b506001949350505050565b8280546116e690611c50565b90600052602060002090601f016020900481019282611708576000855561174e565b82601f1061172157805160ff191683800117855561174e565b8280016001018555821561174e579182015b8281111561174e578251825591602001919060010190611733565b5061175a92915061175e565b5090565b5b8082111561175a576000815560010161175f565b80356001600160a01b038116811461178a57600080fd5b919050565b600082601f8301126117a057600080fd5b813567ffffffffffffffff808211156117bb576117bb611d7e565b604051601f83017fffffffffffffffffffffffffffffffffffffffffffffffffffffffffffffffe0908116603f0116810190828211818310171561180157611801611d7e565b8160405283815286602085880101111561181a57600080fd5b836020870160208301376000602085830101528094505050505092915050565b60006020828403121561184c57600080fd5b610d1082611773565b6000806040838503121561186857600080fd5b61187183611773565b915061187f60208401611773565b90509250929050565b6000806000806080858703121561189e57600080fd5b6118a785611773565b93506118b560208601611773565b9250604085013567ffffffffffffffff808211156118d257600080fd5b6118de8883890161178f565b935060608701359150808211156118f457600080fd5b506119018782880161178f565b91505092959194509250565b60008060006060848603121561192257600080fd5b61192b84611773565b925061193960208501611773565b9150604084013590509250925092565b6000806000806080858703121561195f57600080fd5b61196885611773565b935061197660208601611773565b925060408501359150606085013567ffffffffffffffff81111561199957600080fd5b6119018782880161178f565b600080604083850312156119b857600080fd5b6119c183611773565b9150602083013580151581146119d657600080fd5b809150509250929050565b600080604083850312156119f457600080fd5b6119fd83611773565b946020939093013593505050565b600080600060608486031215611a2057600080fd5b611a2984611773565b925060208401359150604084013567ffffffffffffffff811115611a4c57600080fd5b611a588682870161178f565b9150509250925092565b600060208284031215611a7457600080fd5b8135610d1081611dad565b600060208284031215611a9157600080fd5b8151610d1081611dad565b60008060408385031215611aaf57600080fd5b823567ffffffffffffffff80821115611ac757600080fd5b611ad38683870161178f565b93506020850135915080821115611ae957600080fd5b50611af68582860161178f565b9150509250929050565b600060208284031215611b1257600080fd5b5035919050565b60008151808452611b31816020860160208601611c24565b601f017fffffffffffffffffffffffffffffffffffffffffffffffffffffffffffffffe0169290920160200192915050565b60008351611b75818460208801611c24565b835190830190611b89818360208801611c24565b01949350505050565b60006001600160a01b03808716835280861660208401525083604083015260806060830152611bc46080830184611b19565b9695505050505050565b602081526000610d106020830184611b19565b60008219821115611bf457611bf4611cf1565b500190565b600082611c0857611c08611d20565b500490565b600082821015611c1f57611c1f611cf1565b500390565b60005b83811015611c3f578181015183820152602001611c27565b838111156107a25750506000910152565b600181811c90821680611c6457607f821691505b60208210811415611c9e577f4e487b7100000000000000000000000000000000000000000000000000000000600052602260045260246000fd5b50919050565b60007fffffffffffffffffffffffffffffffffffffffffffffffffffffffffffffffff821415611cd657611cd6611cf1565b5060010190565b600082611cec57611cec611d20565b500690565b7f4e487b7100000000000000000000000000000000000000000000000000000000600052601160045260246000fd5b7f4e487b7100000000000000000000000000000000000000000000000000000000600052601260045260246000fd5b7f4e487b7100000000000000000000000000000000000000000000000000000000600052603260045260246000fd5b7f4e487b7100000000000000000000000000000000000000000000000000000000600052604160045260246000fd5b7fffffffff000000000000000000000000000000000000000000000000000000008116811461091a57600080fdfea264697066735822122094a84e53bb5749a46da63b6a0c00a805ee303b25db8d6e1d344a4018b6543bd764736f6c63430008070033",
  "linkReferences": {},
  "deployedLinkReferences": {}
}