{
  "_format": "hh-sol-artifact-1",
  "contractName": "CareToken",
  "sourceName": "contracts/lib/CareToken.sol",
  "abi": [
    {
      "inputs": [],
      "stateMutability": "nonpayable",
      "type": "constructor"
    },
    {
      "anonymous": false,
      "inputs": [
        {
          "indexed": true,
          "internalType": "address",
          "name": "owner",
          "type": "address"
        },
        {
          "indexed": true,
          "internalType": "address",
          "name": "spender",
          "type": "address"
        },
        {
          "indexed": false,
          "internalType": "uint256",
          "name": "value",
          "type": "uint256"
        }
      ],
      "name": "Approval",
      "type": "event"
    },
    {
      "anonymous": false,
      "inputs": [
        {
          "indexed": true,
          "internalType": "address",
          "name": "from",
          "type": "address"
        },
        {
          "indexed": true,
          "internalType": "address",
          "name": "to",
          "type": "address"
        },
        {
          "indexed": false,
          "internalType": "uint256",
          "name": "value",
          "type": "uint256"
        }
      ],
      "name": "Transfer",
      "type": "event"
    },
    {
      "inputs": [],
      "name": "INITIAL_ALLOTMENT",
      "outputs": [
        {
          "internalType": "uint256",
          "name": "",
          "type": "uint256"
        }
      ],
      "stateMutability": "view",
      "type": "function"
    },
    {
      "inputs": [],
      "name": "OldCareToken",
      "outputs": [
        {
          "internalType": "contract IOldCareToken",
          "name": "",
          "type": "address"
        }
      ],
      "stateMutability": "view",
      "type": "function"
    },
    {
      "inputs": [],
      "name": "SOPV0Contract",
      "outputs": [
        {
          "internalType": "contract ISpiritOrbPetsv0",
          "name": "",
          "type": "address"
        }
      ],
      "stateMutability": "view",
      "type": "function"
    },
    {
      "inputs": [
        {
          "internalType": "uint256",
          "name": "",
          "type": "uint256"
        }
      ],
      "name": "_approvedMinters",
      "outputs": [
        {
          "internalType": "address",
          "name": "",
          "type": "address"
        }
      ],
      "stateMutability": "view",
      "type": "function"
    },
    {
      "inputs": [],
      "name": "_closedMintToOwner",
      "outputs": [
        {
          "internalType": "bool",
          "name": "",
          "type": "bool"
        }
      ],
      "stateMutability": "view",
      "type": "function"
    },
    {
      "inputs": [],
      "name": "_emissionEnd",
      "outputs": [
        {
          "internalType": "uint256",
          "name": "",
          "type": "uint256"
        }
      ],
      "stateMutability": "view",
      "type": "function"
    },
    {
      "inputs": [],
      "name": "_emissionPerDay",
      "outputs": [
        {
          "internalType": "uint256",
          "name": "",
          "type": "uint256"
        }
      ],
      "stateMutability": "view",
      "type": "function"
    },
    {
      "inputs": [],
      "name": "_emissionStart",
      "outputs": [
        {
          "internalType": "uint256",
          "name": "",
          "type": "uint256"
        }
      ],
      "stateMutability": "view",
      "type": "function"
    },
    {
      "inputs": [],
      "name": "_freezeApprovedMintersList",
      "outputs": [
        {
          "internalType": "bool",
          "name": "",
          "type": "bool"
        }
      ],
      "stateMutability": "view",
      "type": "function"
    },
    {
      "inputs": [],
      "name": "_owner",
      "outputs": [
        {
          "internalType": "address",
          "name": "",
          "type": "address"
        }
      ],
      "stateMutability": "view",
      "type": "function"
    },
    {
      "inputs": [
        {
          "internalType": "uint256",
          "name": "tokenIndex",
          "type": "uint256"
        }
      ],
      "name": "accumulated",
      "outputs": [
        {
          "internalType": "uint256",
          "name": "",
          "type": "uint256"
        }
      ],
      "stateMutability": "view",
      "type": "function"
    },
    {
      "inputs": [
        {
          "internalType": "address",
          "name": "addr",
          "type": "address"
        }
      ],
      "name": "addApprovedContract",
      "outputs": [],
      "stateMutability": "nonpayable",
      "type": "function"
    },
    {
      "inputs": [
        {
          "internalType": "address",
          "name": "owner",
          "type": "address"
        },
        {
          "internalType": "address",
          "name": "spender",
          "type": "address"
        }
      ],
      "name": "allowance",
      "outputs": [
        {
          "internalType": "uint256",
          "name": "",
          "type": "uint256"
        }
      ],
      "stateMutability": "view",
      "type": "function"
    },
    {
      "inputs": [
        {
          "internalType": "address",
          "name": "spender",
          "type": "address"
        },
        {
          "internalType": "uint256",
          "name": "amount",
          "type": "uint256"
        }
      ],
      "name": "approve",
      "outputs": [
        {
          "internalType": "bool",
          "name": "",
          "type": "bool"
        }
      ],
      "stateMutability": "nonpayable",
      "type": "function"
    },
    {
      "inputs": [
        {
          "internalType": "address",
          "name": "account",
          "type": "address"
        }
      ],
      "name": "balanceOf",
      "outputs": [
        {
          "internalType": "uint256",
          "name": "",
          "type": "uint256"
        }
      ],
      "stateMutability": "view",
      "type": "function"
    },
    {
      "inputs": [],
      "name": "beginEmissionOfTokens",
      "outputs": [],
      "stateMutability": "nonpayable",
      "type": "function"
    },
    {
      "inputs": [
        {
          "internalType": "address",
          "name": "account",
          "type": "address"
        },
        {
          "internalType": "uint256",
          "name": "amount",
          "type": "uint256"
        }
      ],
      "name": "burn",
      "outputs": [],
      "stateMutability": "nonpayable",
      "type": "function"
    },
    {
      "inputs": [
        {
          "internalType": "uint256[]",
          "name": "tokenIndices",
          "type": "uint256[]"
        }
      ],
      "name": "claim",
      "outputs": [
        {
          "internalType": "uint256",
          "name": "",
          "type": "uint256"
        }
      ],
      "stateMutability": "nonpayable",
      "type": "function"
    },
    {
      "inputs": [],
      "name": "closeMintToOwner",
      "outputs": [],
      "stateMutability": "nonpayable",
      "type": "function"
    },
    {
      "inputs": [],
      "name": "decimals",
      "outputs": [
        {
          "internalType": "uint8",
          "name": "",
          "type": "uint8"
        }
      ],
      "stateMutability": "view",
      "type": "function"
    },
    {
      "inputs": [
        {
          "internalType": "address",
          "name": "spender",
          "type": "address"
        },
        {
          "internalType": "uint256",
          "name": "subtractedValue",
          "type": "uint256"
        }
      ],
      "name": "decreaseAllowance",
      "outputs": [
        {
          "internalType": "bool",
          "name": "",
          "type": "bool"
        }
      ],
      "stateMutability": "nonpayable",
      "type": "function"
    },
    {
      "inputs": [],
      "name": "freezeApprovedMinters",
      "outputs": [],
      "stateMutability": "nonpayable",
      "type": "function"
    },
    {
      "inputs": [],
      "name": "getApprovedContractList",
      "outputs": [
        {
          "internalType": "address[]",
          "name": "",
          "type": "address[]"
        }
      ],
      "stateMutability": "view",
      "type": "function"
    },
    {
      "inputs": [
        {
          "internalType": "address",
          "name": "spender",
          "type": "address"
        },
        {
          "internalType": "uint256",
          "name": "addedValue",
          "type": "uint256"
        }
      ],
      "name": "increaseAllowance",
      "outputs": [
        {
          "internalType": "bool",
          "name": "",
          "type": "bool"
        }
      ],
      "stateMutability": "nonpayable",
      "type": "function"
    },
    {
      "inputs": [
        {
          "internalType": "uint256",
          "name": "tokenIndex",
          "type": "uint256"
        }
      ],
      "name": "lastClaim",
      "outputs": [
        {
          "internalType": "uint256",
          "name": "",
          "type": "uint256"
        }
      ],
      "stateMutability": "view",
      "type": "function"
    },
    {
      "inputs": [
        {
          "internalType": "uint256",
          "name": "amount",
          "type": "uint256"
        }
      ],
      "name": "mint",
      "outputs": [],
      "stateMutability": "nonpayable",
      "type": "function"
    },
    {
      "inputs": [
        {
          "internalType": "uint256",
          "name": "amount",
          "type": "uint256"
        },
        {
          "internalType": "address",
          "name": "mintToAddress",
          "type": "address"
        }
      ],
      "name": "mintToApprovedContract",
      "outputs": [],
      "stateMutability": "nonpayable",
      "type": "function"
    },
    {
      "inputs": [],
      "name": "name",
      "outputs": [
        {
          "internalType": "string",
          "name": "",
          "type": "string"
        }
      ],
      "stateMutability": "view",
      "type": "function"
    },
    {
      "inputs": [
        {
          "internalType": "uint256",
          "name": "index",
          "type": "uint256"
        }
      ],
      "name": "removeApprovedContract",
      "outputs": [],
      "stateMutability": "nonpayable",
      "type": "function"
    },
    {
      "inputs": [
        {
          "internalType": "address",
          "name": "addr",
          "type": "address"
        }
      ],
      "name": "setOldCareTokenContract",
      "outputs": [],
      "stateMutability": "nonpayable",
      "type": "function"
    },
    {
      "inputs": [
        {
          "internalType": "address",
          "name": "addr",
          "type": "address"
        }
      ],
      "name": "setOwner",
      "outputs": [],
      "stateMutability": "nonpayable",
      "type": "function"
    },
    {
      "inputs": [
        {
          "internalType": "address",
          "name": "addr",
          "type": "address"
        }
      ],
      "name": "setSOPV0Contract",
      "outputs": [],
      "stateMutability": "nonpayable",
      "type": "function"
    },
    {
      "inputs": [],
      "name": "symbol",
      "outputs": [
        {
          "internalType": "string",
          "name": "",
          "type": "string"
        }
      ],
      "stateMutability": "view",
      "type": "function"
    },
    {
      "inputs": [],
      "name": "totalSupply",
      "outputs": [
        {
          "internalType": "uint256",
          "name": "",
          "type": "uint256"
        }
      ],
      "stateMutability": "view",
      "type": "function"
    },
    {
      "inputs": [
        {
          "internalType": "address",
          "name": "recipient",
          "type": "address"
        },
        {
          "internalType": "uint256",
          "name": "amount",
          "type": "uint256"
        }
      ],
      "name": "transfer",
      "outputs": [
        {
          "internalType": "bool",
          "name": "",
          "type": "bool"
        }
      ],
      "stateMutability": "nonpayable",
      "type": "function"
    },
    {
      "inputs": [
        {
          "internalType": "address",
          "name": "sender",
          "type": "address"
        },
        {
          "internalType": "address",
          "name": "recipient",
          "type": "address"
        },
        {
          "internalType": "uint256",
          "name": "amount",
          "type": "uint256"
        }
      ],
      "name": "transferFrom",
      "outputs": [
        {
          "internalType": "bool",
          "name": "",
          "type": "bool"
        }
      ],
      "stateMutability": "nonpayable",
      "type": "function"
    }
  ],
  "bytecode": "0x60806040526007805461ffff1916905568056bc75e2d631000006009556000600a819055600b55678ac7230489e80000600c553480156200003f57600080fd5b50604080518082018252601a81527f537069726974204f72622050657473204361726520546f6b656e0000000000006020808301918252835180850190945260048452634341524560e01b908401528151919291620000a191600391620001d6565b508051620000b7906004906020840190620001d6565b505050620000d633690878678326eac9000000620000ee60201b60201c565b600580546001600160a01b03191633179055620002e0565b6001600160a01b038216620001495760405162461bcd60e51b815260206004820152601f60248201527f45524332303a206d696e7420746f20746865207a65726f206164647265737300604482015260640160405180910390fd5b80600260008282546200015d91906200027c565b90915550506001600160a01b038216600090815260208190526040812080548392906200018c9084906200027c565b90915550506040518181526001600160a01b038316906000907fddf252ad1be2c89b69c2b068fc378daa952ba7f163c4a11628f55a4df523b3ef9060200160405180910390a35050565b828054620001e490620002a3565b90600052602060002090601f01602090048101928262000208576000855562000253565b82601f106200022357805160ff191683800117855562000253565b8280016001018555821562000253579182015b828111156200025357825182559160200191906001019062000236565b506200026192915062000265565b5090565b5b8082111562000261576000815560010162000266565b600082198211156200029e57634e487b7160e01b600052601160045260246000fd5b500190565b600181811c90821680620002b857607f821691505b60208210811415620002da57634e487b7160e01b600052602260045260246000fd5b50919050565b61271280620002f06000396000f3fe608060405234801561001057600080fd5b506004361061025c5760003560e01c806370a0823111610145578063b2bdfa7b116100bd578063ce72d21e1161008c578063d3c0029c11610071578063d3c0029c146104c7578063dd62ed3e146104da578063f8719dbb1461051357600080fd5b8063ce72d21e146104b2578063d13b8b47146104bf57600080fd5b8063b2bdfa7b14610464578063c2f2941114610477578063c607cde71461048a578063c8f5705a1461049d57600080fd5b806395d89b4111610114578063a0712d68116100f9578063a0712d681461042b578063a457c2d71461043e578063a9059cbb1461045157600080fd5b806395d89b41146104105780639dc29fac1461041857600080fd5b806370a08231146103c25780637b11f754146103eb5780638780a616146103f457806390d177a3146103fd57600080fd5b8063350171bc116101d85780633d3728b5116101a75780635f3c63391161018c5780635f3c63391461038a57806369e286ef1461039c5780636ba4c138146103af57600080fd5b80633d3728b5146103465780635b6b67581461035957600080fd5b8063350171bc14610319578063367df16514610321578063395093511461032a5780633cc1dbd91461033d57600080fd5b806318160ddd1161022f57806328910e341161021457806328910e34146102ef5780632a0fff9014610302578063313ce5671461030a57600080fd5b806318160ddd146102ca57806323b872dd146102dc57600080fd5b806306fdde0314610261578063095ea7b31461027f578063135171be146102a257806313af4035146102b7575b600080fd5b610269610526565b6040516102769190612464565b60405180910390f35b61029261028d3660046122b1565b6105b8565b6040519015158152602001610276565b6102b56102b03660046121f6565b6105ce565b005b6102b56102c53660046121f6565b610715565b6002545b604051908152602001610276565b6102926102ea366004612270565b6107a9565b6102b56102fd3660046123c0565b610868565b6102b5610a26565b60405160128152602001610276565b6102b5610b2c565b6102ce60095481565b6102926103383660046122b1565b610bb3565b6102ce600a5481565b6102ce6103543660046123c0565b610bef565b600754610372906201000090046001600160a01b031681565b6040516001600160a01b039091168152602001610276565b60075461029290610100900460ff1681565b6102b56103aa3660046121f6565b610e83565b6102ce6103bd3660046122dd565b610f17565b6102ce6103d03660046121f6565b6001600160a01b031660009081526020819052604090205490565b6102ce600c5481565b6102ce600b5481565b61037261040b3660046123c0565b611306565b610269611330565b6102b56104263660046122b1565b61133f565b6102b56104393660046123c0565b611416565b61029261044c3660046122b1565b611507565b61029261045f3660046122b1565b6115b8565b600554610372906001600160a01b031681565b600854610372906001600160a01b031681565b6102ce6104983660046123c0565b6115c5565b6104a5611895565b6040516102769190612417565b6007546102929060ff1681565b6102b56118f6565b6102b56104d53660046123f2565b611a57565b6102ce6104e8366004612237565b6001600160a01b03918216600090815260016020908152604080832093909416825291909152205490565b6102b56105213660046121f6565b611b2a565b6060600380546105359061257e565b80601f01602080910402602001604051908101604052809291908181526020018280546105619061257e565b80156105ae5780601f10610583576101008083540402835291602001916105ae565b820191906000526020600020905b81548152906001019060200180831161059157829003601f168201915b5050505050905090565b60006105c5338484611bc4565b50600192915050565b6005546001600160a01b0316331461062d5760405162461bcd60e51b815260206004820181905260248201527f4f776e61626c653a2063616c6c6572206973206e6f7420746865206f776e657260448201526064015b60405180910390fd5b600754610100900460ff16156106ab5760405162461bcd60e51b815260206004820152603760248201527f4f6e63652066726f7a656e2c206e6f206d6f726520636f6e747261637473206360448201527f616e206265206164646564206f722072656d6f7665642e0000000000000000006064820152608401610624565b600680546001810182556000919091527ff652222313e28459528d920b65115c16c04f3efc82aaedc97be59f3f377c0d3f0180547fffffffffffffffffffffffff0000000000000000000000000000000000000000166001600160a01b0392909216919091179055565b6005546001600160a01b0316331461076f5760405162461bcd60e51b815260206004820181905260248201527f4f776e61626c653a2063616c6c6572206973206e6f7420746865206f776e65726044820152606401610624565b600580547fffffffffffffffffffffffff0000000000000000000000000000000000000000166001600160a01b0392909216919091179055565b60006107b6848484611d1d565b6001600160a01b0384166000908152600160209081526040808320338452909152902054828110156108505760405162461bcd60e51b815260206004820152602860248201527f45524332303a207472616e7366657220616d6f756e742065786365656473206160448201527f6c6c6f77616e63650000000000000000000000000000000000000000000000006064820152608401610624565b61085d8533858403611bc4565b506001949350505050565b6005546001600160a01b031633146108c25760405162461bcd60e51b815260206004820181905260248201527f4f776e61626c653a2063616c6c6572206973206e6f7420746865206f776e65726044820152606401610624565b600754610100900460ff16156109405760405162461bcd60e51b815260206004820152603760248201527f4f6e63652066726f7a656e2c206e6f206d6f726520636f6e747261637473206360448201527f616e206265206164646564206f722072656d6f7665642e0000000000000000006064820152608401610624565b6006805461095090600190612567565b8154811061096057610960612669565b600091825260209091200154600680546001600160a01b03909216918390811061098c5761098c612669565b9060005260206000200160006101000a8154816001600160a01b0302191690836001600160a01b0316021790555060068054806109cb576109cb61263a565b60008281526020902081017fffffffffffffffffffffffffffffffffffffffffffffffffffffffffffffffff90810180547fffffffffffffffffffffffff000000000000000000000000000000000000000016905501905550565b6005546001600160a01b03163314610a805760405162461bcd60e51b815260206004820181905260248201527f4f776e61626c653a2063616c6c6572206973206e6f7420746865206f776e65726044820152606401610624565b600754610100900460ff1615610afe5760405162461bcd60e51b815260206004820152603760248201527f4f6e63652066726f7a656e2c206e6f206d6f726520636f6e747261637473206360448201527f616e206265206164646564206f722072656d6f7665642e0000000000000000006064820152608401610624565b600780547fffffffffffffffffffffffffffffffffffffffffffffffffffffffffffff00ff16610100179055565b6005546001600160a01b03163314610b865760405162461bcd60e51b815260206004820181905260248201527f4f776e61626c653a2063616c6c6572206973206e6f7420746865206f776e65726044820152606401610624565b600780547fffffffffffffffffffffffffffffffffffffffffffffffffffffffffffffff00166001179055565b3360008181526001602090815260408083206001600160a01b038716845290915281205490916105c5918590610bea9086906124d7565b611bc4565b6007546040517f6352211e0000000000000000000000000000000000000000000000000000000081526000918291620100009091046001600160a01b031690636352211e90610c4690869060040190815260200190565b60206040518083038186803b158015610c5e57600080fd5b505afa158015610c72573d6000803e3d6000fd5b505050506040513d601f19601f82011682018060405250810190610c96919061221a565b6001600160a01b03161415610caa57600080fd5b600760029054906101000a90046001600160a01b03166001600160a01b03166318160ddd6040518163ffffffff1660e01b815260040160206040518083038186803b158015610cf857600080fd5b505afa158015610d0c573d6000803e3d6000fd5b505050506040513d601f19601f82011682018060405250810190610d3091906123d9565b8210610da45760405162461bcd60e51b815260206004820152603260248201527f546f6b656e20696e64657820697320686967686572207468616e20746f74616c60448201527f20636f6c6c656374696f6e20636f756e742e00000000000000000000000000006064820152608401610624565b6008546040517f3d3728b5000000000000000000000000000000000000000000000000000000008152600481018490526000916001600160a01b031690633d3728b59060240160206040518083038186803b158015610e0257600080fd5b505afa158015610e16573d6000803e3d6000fd5b505050506040513d601f19601f82011682018060405250810190610e3a91906123d9565b6000848152600d602052604081205491925090821015610e68576000848152600d6020526040902054610e6a565b815b905080610e7957600a54610e7b565b805b949350505050565b6005546001600160a01b03163314610edd5760405162461bcd60e51b815260206004820181905260248201527f4f776e61626c653a2063616c6c6572206973206e6f7420746865206f776e65726044820152606401610624565b600880547fffffffffffffffffffffffff0000000000000000000000000000000000000000166001600160a01b0392909216919091179055565b6000600a54600014158015610f2d5750600b5415155b610f795760405162461bcd60e51b815260206004820152601c60248201527f456d697373696f6e20686173206e6f74207374617274656420796574000000006044820152606401610624565b6000805b83518110156112a857600760029054906101000a90046001600160a01b03166001600160a01b03166318160ddd6040518163ffffffff1660e01b815260040160206040518083038186803b158015610fd457600080fd5b505afa158015610fe8573d6000803e3d6000fd5b505050506040513d601f19601f8201168201806040525081019061100c91906123d9565b84828151811061101e5761101e612669565b6020026020010151106110985760405162461bcd60e51b8152602060048201526024808201527f4e465420617420696e64657820686173206e6f74206265656e206d696e74656460448201527f20796574000000000000000000000000000000000000000000000000000000006064820152608401610624565b60006110a58260016124d7565b90505b8451811015611145578481815181106110c3576110c3612669565b60200260200101518583815181106110dd576110dd612669565b602002602001015114156111335760405162461bcd60e51b815260206004820152601560248201527f4475706c696361746520746f6b656e20696e64657800000000000000000000006044820152606401610624565b8061113d816125d2565b9150506110a8565b50600084828151811061115a5761115a612669565b60209081029190910101516007546040517f6352211e0000000000000000000000000000000000000000000000000000000081529192503391620100009091046001600160a01b031690636352211e906111bc90859060040190815260200190565b60206040518083038186803b1580156111d457600080fd5b505afa1580156111e8573d6000803e3d6000fd5b505050506040513d601f19601f8201168201806040525081019061120c919061221a565b6001600160a01b0316146112625760405162461bcd60e51b815260206004820152601760248201527f53656e646572206973206e6f7420746865206f776e65720000000000000000006044820152606401610624565b600061126d826115c5565b905080156112935761127f81856124d7565b6000838152600d6020526040902042905593505b505080806112a0906125d2565b915050610f7d565b50806112f65760405162461bcd60e51b815260206004820152601360248201527f4e6f20616363756d756c617465642043415245000000000000000000000000006044820152606401610624565b6113003382611f35565b92915050565b6006818154811061131657600080fd5b6000918252602090912001546001600160a01b0316905081565b6060600480546105359061257e565b6006546113b35760405162461bcd60e51b8152602060048201526024808201527f546865726520617265206e6f20617070726f76656420636f6e7472616374732060448201527f7965742e000000000000000000000000000000000000000000000000000000006064820152608401610624565b6113bc33612014565b6114085760405162461bcd60e51b815260206004820181905260248201527f41646472657373206973206e6f7420617070726f76656420746f206275726e2e6044820152606401610624565b6114128282612079565b5050565b6005546001600160a01b031633146114705760405162461bcd60e51b815260206004820181905260248201527f4f776e61626c653a2063616c6c6572206973206e6f7420746865206f776e65726044820152606401610624565b60075460ff16156114e95760405162461bcd60e51b815260206004820152602760248201527f4d696e74696e6720746f206f776e6572206973207065726d616e656e746c792060448201527f636c6f7365642e000000000000000000000000000000000000000000000000006064820152608401610624565b611504336114ff83670de0b6b3a764000061252a565b611f35565b50565b3360009081526001602090815260408083206001600160a01b0386168452909152812054828110156115a15760405162461bcd60e51b815260206004820152602560248201527f45524332303a2064656372656173656420616c6c6f77616e63652062656c6f7760448201527f207a65726f0000000000000000000000000000000000000000000000000000006064820152608401610624565b6115ae3385858403611bc4565b5060019392505050565b60006105c5338484611d1d565b6000600a546000141580156115db5750600b5415155b6116275760405162461bcd60e51b815260206004820152601c60248201527f456d697373696f6e20686173206e6f74207374617274656420796574000000006044820152606401610624565b6007546040517f6352211e000000000000000000000000000000000000000000000000000000008152600481018490526000916201000090046001600160a01b031690636352211e9060240160206040518083038186803b15801561168b57600080fd5b505afa15801561169f573d6000803e3d6000fd5b505050506040513d601f19601f820116820180604052508101906116c3919061221a565b6001600160a01b0316141561171a5760405162461bcd60e51b815260206004820152601960248201527f4f776e65722063616e6e6f7420626520302061646472657373000000000000006044820152606401610624565b600760029054906101000a90046001600160a01b03166001600160a01b03166318160ddd6040518163ffffffff1660e01b815260040160206040518083038186803b15801561176857600080fd5b505afa15801561177c573d6000803e3d6000fd5b505050506040513d601f19601f820116820180604052508101906117a091906123d9565b82106118145760405162461bcd60e51b815260206004820152603260248201527f546f6b656e20696e64657820697320686967686572207468616e20746f74616c60448201527f20636f6c6c656374696f6e20636f756e742e00000000000000000000000000006064820152608401610624565b600061181f83610bef565b9050600b5481106118335750600092915050565b6000600b54421061184657600b54611848565b425b9050600062015180600c54848461185f9190612567565b611869919061252a565b61187391906124ef565b9050600a54831415610e7b5760095461188c90826124d7565b95945050505050565b606060068054806020026020016040519081016040528092919081815260200182805480156105ae57602002820191906000526020600020905b81546001600160a01b031681526001909101906020018083116118cf575050505050905090565b6005546001600160a01b031633146119505760405162461bcd60e51b815260206004820181905260248201527f4f776e61626c653a2063616c6c6572206973206e6f7420746865206f776e65726044820152606401610624565b600a541580156119605750600b54155b6119ac5760405162461bcd60e51b815260206004820181905260248201527f456d697373696f6e2074696d657374616d707320616c726561647920736574216044820152606401610624565b600860009054906101000a90046001600160a01b03166001600160a01b0316633cc1dbd96040518163ffffffff1660e01b815260040160206040518083038186803b1580156119fa57600080fd5b505afa158015611a0e573d6000803e3d6000fd5b505050506040513d601f19601f82011682018060405250810190611a3291906123d9565b600a819055611a45906312cc03006124d7565b611a52906202a3006124d7565b600b55565b600654611acb5760405162461bcd60e51b8152602060048201526024808201527f546865726520617265206e6f20617070726f76656420636f6e7472616374732060448201527f7965742e000000000000000000000000000000000000000000000000000000006064820152608401610624565b611ad433612014565b611b205760405162461bcd60e51b815260206004820181905260248201527f41646472657373206973206e6f7420617070726f76656420746f206d696e742e6044820152606401610624565b6114128183611f35565b6005546001600160a01b03163314611b845760405162461bcd60e51b815260206004820181905260248201527f4f776e61626c653a2063616c6c6572206973206e6f7420746865206f776e65726044820152606401610624565b600780546001600160a01b0390921662010000027fffffffffffffffffffff0000000000000000000000000000000000000000ffff909216919091179055565b6001600160a01b038316611c3f5760405162461bcd60e51b8152602060048201526024808201527f45524332303a20617070726f76652066726f6d20746865207a65726f2061646460448201527f72657373000000000000000000000000000000000000000000000000000000006064820152608401610624565b6001600160a01b038216611cbb5760405162461bcd60e51b815260206004820152602260248201527f45524332303a20617070726f766520746f20746865207a65726f20616464726560448201527f73730000000000000000000000000000000000000000000000000000000000006064820152608401610624565b6001600160a01b0383811660008181526001602090815260408083209487168084529482529182902085905590518481527f8c5be1e5ebec7d5bd14f71427d1e84f3dd0314c0f7b2291e5b200ac8c7c3b92591015b60405180910390a3505050565b6001600160a01b038316611d995760405162461bcd60e51b815260206004820152602560248201527f45524332303a207472616e736665722066726f6d20746865207a65726f20616460448201527f64726573730000000000000000000000000000000000000000000000000000006064820152608401610624565b6001600160a01b038216611e155760405162461bcd60e51b815260206004820152602360248201527f45524332303a207472616e7366657220746f20746865207a65726f206164647260448201527f65737300000000000000000000000000000000000000000000000000000000006064820152608401610624565b6001600160a01b03831660009081526020819052604090205481811015611ea45760405162461bcd60e51b815260206004820152602660248201527f45524332303a207472616e7366657220616d6f756e742065786365656473206260448201527f616c616e636500000000000000000000000000000000000000000000000000006064820152608401610624565b6001600160a01b03808516600090815260208190526040808220858503905591851681529081208054849290611edb9084906124d7565b92505081905550826001600160a01b0316846001600160a01b03167fddf252ad1be2c89b69c2b068fc378daa952ba7f163c4a11628f55a4df523b3ef84604051611f2791815260200190565b60405180910390a350505050565b6001600160a01b038216611f8b5760405162461bcd60e51b815260206004820152601f60248201527f45524332303a206d696e7420746f20746865207a65726f2061646472657373006044820152606401610624565b8060026000828254611f9d91906124d7565b90915550506001600160a01b03821660009081526020819052604081208054839290611fca9084906124d7565b90915550506040518181526001600160a01b038316906000907fddf252ad1be2c89b69c2b068fc378daa952ba7f163c4a11628f55a4df523b3ef9060200160405180910390a35050565b600080805b60065481101561207257836001600160a01b03166006828154811061204057612040612669565b6000918252602090912001546001600160a01b0316141561206057600191505b8061206a816125d2565b915050612019565b5092915050565b6001600160a01b0382166120f55760405162461bcd60e51b815260206004820152602160248201527f45524332303a206275726e2066726f6d20746865207a65726f2061646472657360448201527f73000000000000000000000000000000000000000000000000000000000000006064820152608401610624565b6001600160a01b038216600090815260208190526040902054818110156121845760405162461bcd60e51b815260206004820152602260248201527f45524332303a206275726e20616d6f756e7420657863656564732062616c616e60448201527f63650000000000000000000000000000000000000000000000000000000000006064820152608401610624565b6001600160a01b03831660009081526020819052604081208383039055600280548492906121b3908490612567565b90915550506040518281526000906001600160a01b038516907fddf252ad1be2c89b69c2b068fc378daa952ba7f163c4a11628f55a4df523b3ef90602001611d10565b60006020828403121561220857600080fd5b8135612213816126c7565b9392505050565b60006020828403121561222c57600080fd5b8151612213816126c7565b6000806040838503121561224a57600080fd5b8235612255816126c7565b91506020830135612265816126c7565b809150509250929050565b60008060006060848603121561228557600080fd5b8335612290816126c7565b925060208401356122a0816126c7565b929592945050506040919091013590565b600080604083850312156122c457600080fd5b82356122cf816126c7565b946020939093013593505050565b600060208083850312156122f057600080fd5b823567ffffffffffffffff8082111561230857600080fd5b818501915085601f83011261231c57600080fd5b81358181111561232e5761232e612698565b8060051b6040517fffffffffffffffffffffffffffffffffffffffffffffffffffffffffffffffe0603f8301168101818110858211171561237157612371612698565b604052828152858101935084860182860187018a101561239057600080fd5b600095505b838610156123b3578035855260019590950194938601938601612395565b5098975050505050505050565b6000602082840312156123d257600080fd5b5035919050565b6000602082840312156123eb57600080fd5b5051919050565b6000806040838503121561240557600080fd5b823591506020830135612265816126c7565b6020808252825182820181905260009190848201906040850190845b818110156124585783516001600160a01b031683529284019291840191600101612433565b50909695505050505050565b600060208083528351808285015260005b8181101561249157858101830151858201604001528201612475565b818111156124a3576000604083870101525b50601f017fffffffffffffffffffffffffffffffffffffffffffffffffffffffffffffffe016929092016040019392505050565b600082198211156124ea576124ea61260b565b500190565b600082612525577f4e487b7100000000000000000000000000000000000000000000000000000000600052601260045260246000fd5b500490565b6000817fffffffffffffffffffffffffffffffffffffffffffffffffffffffffffffffff04831182151516156125625761256261260b565b500290565b6000828210156125795761257961260b565b500390565b600181811c9082168061259257607f821691505b602082108114156125cc577f4e487b7100000000000000000000000000000000000000000000000000000000600052602260045260246000fd5b50919050565b60007fffffffffffffffffffffffffffffffffffffffffffffffffffffffffffffffff8214156126045761260461260b565b5060010190565b7f4e487b7100000000000000000000000000000000000000000000000000000000600052601160045260246000fd5b7f4e487b7100000000000000000000000000000000000000000000000000000000600052603160045260246000fd5b7f4e487b7100000000000000000000000000000000000000000000000000000000600052603260045260246000fd5b7f4e487b7100000000000000000000000000000000000000000000000000000000600052604160045260246000fd5b6001600160a01b038116811461150457600080fdfea264697066735822122051829f76918a5cb39cedc56781f14b2a0e2b672c4ad7a12cb73066e1d20320ea64736f6c63430008070033",
  "linkReferences": {},
  "deployedLinkReferences": {}
}