{
  "_format": "hh-sol-artifact-1",
  "contractName": "FxERC721RootTunnel",
  "sourceName": "contracts/examples/erc721-transfer/FxERC721RootTunnel.sol",
  "abi": [
    {
      "inputs": [
        {
          "internalType": "address",
          "name": "_checkpointManager",
          "type": "address"
        },
        {
          "internalType": "address",
          "name": "_fxRoot",
          "type": "address"
        },
        {
          "internalType": "address",
          "name": "_fxERC721Token",
          "type": "address"
        }
      ],
      "stateMutability": "nonpayable",
      "type": "constructor"
    },
    {
      "anonymous": false,
      "inputs": [
        {
          "indexed": true,
          "internalType": "address",
          "name": "rootToken",
          "type": "address"
        },
        {
          "indexed": true,
          "internalType": "address",
          "name": "depositor",
          "type": "address"
        },
        {
          "indexed": true,
          "internalType": "address",
          "name": "userAddress",
          "type": "address"
        },
        {
          "indexed": false,
          "internalType": "uint256",
          "name": "id",
          "type": "uint256"
        }
      ],
      "name": "FxDepositERC721",
      "type": "event"
    },
    {
      "anonymous": false,
      "inputs": [
        {
          "indexed": true,
          "internalType": "address",
          "name": "rootToken",
          "type": "address"
        },
        {
          "indexed": true,
          "internalType": "address",
          "name": "childToken",
          "type": "address"
        },
        {
          "indexed": true,
          "internalType": "address",
          "name": "userAddress",
          "type": "address"
        },
        {
          "indexed": false,
          "internalType": "uint256",
          "name": "id",
          "type": "uint256"
        }
      ],
      "name": "FxWithdrawERC721",
      "type": "event"
    },
    {
      "anonymous": false,
      "inputs": [
        {
          "indexed": true,
          "internalType": "address",
          "name": "rootToken",
          "type": "address"
        },
        {
          "indexed": true,
          "internalType": "address",
          "name": "childToken",
          "type": "address"
        }
      ],
      "name": "TokenMappedERC721",
      "type": "event"
    },
    {
      "inputs": [],
      "name": "DEPOSIT",
      "outputs": [
        {
          "internalType": "bytes32",
          "name": "",
          "type": "bytes32"
        }
      ],
      "stateMutability": "view",
      "type": "function"
    },
    {
      "inputs": [],
      "name": "MAP_TOKEN",
      "outputs": [
        {
          "internalType": "bytes32",
          "name": "",
          "type": "bytes32"
        }
      ],
      "stateMutability": "view",
      "type": "function"
    },
    {
      "inputs": [],
      "name": "SEND_MESSAGE_EVENT_SIG",
      "outputs": [
        {
          "internalType": "bytes32",
          "name": "",
          "type": "bytes32"
        }
      ],
      "stateMutability": "view",
      "type": "function"
    },
    {
      "inputs": [],
      "name": "checkpointManager",
      "outputs": [
        {
          "internalType": "contract ICheckpointManager",
          "name": "",
          "type": "address"
        }
      ],
      "stateMutability": "view",
      "type": "function"
    },
    {
      "inputs": [],
      "name": "childTokenTemplateCodeHash",
      "outputs": [
        {
          "internalType": "bytes32",
          "name": "",
          "type": "bytes32"
        }
      ],
      "stateMutability": "view",
      "type": "function"
    },
    {
      "inputs": [
        {
          "internalType": "bytes32",
          "name": "salt",
          "type": "bytes32"
        },
        {
          "internalType": "bytes32",
          "name": "bytecodeHash",
          "type": "bytes32"
        },
        {
          "internalType": "address",
          "name": "deployer",
          "type": "address"
        }
      ],
      "name": "computedCreate2Address",
      "outputs": [
        {
          "internalType": "address",
          "name": "",
          "type": "address"
        }
      ],
      "stateMutability": "pure",
      "type": "function"
    },
    {
      "inputs": [
        {
          "internalType": "address",
          "name": "rootToken",
          "type": "address"
        },
        {
          "internalType": "address",
          "name": "user",
          "type": "address"
        },
        {
          "internalType": "uint256",
          "name": "tokenId",
          "type": "uint256"
        },
        {
          "internalType": "bytes",
          "name": "data",
          "type": "bytes"
        }
      ],
      "name": "deposit",
      "outputs": [],
      "stateMutability": "nonpayable",
      "type": "function"
    },
    {
      "inputs": [],
      "name": "fxChildTunnel",
      "outputs": [
        {
          "internalType": "address",
          "name": "",
          "type": "address"
        }
      ],
      "stateMutability": "view",
      "type": "function"
    },
    {
      "inputs": [],
      "name": "fxRoot",
      "outputs": [
        {
          "internalType": "contract IFxStateSender",
          "name": "",
          "type": "address"
        }
      ],
      "stateMutability": "view",
      "type": "function"
    },
    {
      "inputs": [
        {
          "internalType": "address",
          "name": "rootToken",
          "type": "address"
        }
      ],
      "name": "mapToken",
      "outputs": [],
      "stateMutability": "nonpayable",
      "type": "function"
    },
    {
      "inputs": [
        {
          "internalType": "address",
          "name": "",
          "type": "address"
        },
        {
          "internalType": "address",
          "name": "",
          "type": "address"
        },
        {
          "internalType": "uint256",
          "name": "",
          "type": "uint256"
        },
        {
          "internalType": "bytes",
          "name": "",
          "type": "bytes"
        }
      ],
      "name": "onERC721Received",
      "outputs": [
        {
          "internalType": "bytes4",
          "name": "",
          "type": "bytes4"
        }
      ],
      "stateMutability": "pure",
      "type": "function"
    },
    {
      "inputs": [
        {
          "internalType": "bytes32",
          "name": "",
          "type": "bytes32"
        }
      ],
      "name": "processedExits",
      "outputs": [
        {
          "internalType": "bool",
          "name": "",
          "type": "bool"
        }
      ],
      "stateMutability": "view",
      "type": "function"
    },
    {
      "inputs": [
        {
          "internalType": "bytes",
          "name": "inputData",
          "type": "bytes"
        }
      ],
      "name": "receiveMessage",
      "outputs": [],
      "stateMutability": "nonpayable",
      "type": "function"
    },
    {
      "inputs": [
        {
          "internalType": "address",
          "name": "",
          "type": "address"
        }
      ],
      "name": "rootToChildTokens",
      "outputs": [
        {
          "internalType": "address",
          "name": "",
          "type": "address"
        }
      ],
      "stateMutability": "view",
      "type": "function"
    },
    {
      "inputs": [
        {
          "internalType": "address",
          "name": "_fxChildTunnel",
          "type": "address"
        }
      ],
      "name": "setFxChildTunnel",
      "outputs": [],
      "stateMutability": "nonpayable",
      "type": "function"
    }
  ],
  "bytecode": "0x60806040523480156200001157600080fd5b5060405162002dc938038062002dc9833981016040819052620000349162000106565b600180546001600160a01b038086166001600160a01b0319928316179092556000805492851692909116919091179055620000d48160408051693d602d80600a3d3981f360b01b602082015269363d3d373d3d3d363d7360b01b602a82015260609290921b6001600160601b03191660348301526e5af43d82803e903d91602b57fd5bf360881b6048830152805160378184030181526057909201905290565b80516020909101206005555062000150915050565b80516001600160a01b03811681146200010157600080fd5b919050565b6000806000606084860312156200011c57600080fd5b6200012784620000e9565b92506200013760208501620000e9565b91506200014760408501620000e9565b90509250925092565b612c6980620001606000396000f3fe608060405234801561001057600080fd5b50600436106100f55760003560e01c8063972c492811610097578063de9b771f11610066578063de9b771f146102ea578063e9c670ad1461030a578063f4a120f71461031d578063f953cec71461033057600080fd5b8063972c49281461026e578063aea4e49e1461028e578063c0857ba0146102a3578063d81c8e52146102c357600080fd5b806369914b3e116100d357806369914b3e146101d05780637337957f146101d9578063886a69ba1461021157806388e700681461023857600080fd5b80630e387de6146100fa578063150b7a0214610134578063607f2d421461019d575b600080fd5b6101217f8c5261668696ce22758910d05bab8f186d6eb247ceac2af2e82c7dc17669b03681565b6040519081526020015b60405180910390f35b61016c610142366004612494565b7f150b7a020000000000000000000000000000000000000000000000000000000095945050505050565b6040517fffffffff00000000000000000000000000000000000000000000000000000000909116815260200161012b565b6101c06101ab36600461259f565b60036020526000908152604090205460ff1681565b604051901515815260200161012b565b61012160055481565b6101ec6101e73660046125b8565b610343565b60405173ffffffffffffffffffffffffffffffffffffffff909116815260200161012b565b6101217f2cef46a936bdc5b7e6e8c71aa04560c41cf7d88bb26901a7e7f4936ff02accad81565b6101ec6102463660046123f5565b60046020526000908152604090205473ffffffffffffffffffffffffffffffffffffffff1681565b6002546101ec9073ffffffffffffffffffffffffffffffffffffffff1681565b6102a161029c3660046123f5565b6103cb565b005b6001546101ec9073ffffffffffffffffffffffffffffffffffffffff1681565b6101217f87a7811f4bfedea3d341ad165680ae306b01aaeacc205d227629cf157dd9f82181565b6000546101ec9073ffffffffffffffffffffffffffffffffffffffff1681565b6102a1610318366004612533565b6104bd565b6102a161032b3660046123f5565b610675565b6102a161033e36600461263e565b6109ac565b604080517fff00000000000000000000000000000000000000000000000000000000000000602080830191909152606084901b7fffffffffffffffffffffffffffffffffffffffff00000000000000000000000016602183015260358201869052605580830186905283518084039091018152607590920190925280519101205b9392505050565b60025473ffffffffffffffffffffffffffffffffffffffff1615610476576040517f08c379a000000000000000000000000000000000000000000000000000000000815260206004820152602a60248201527f467842617365526f6f7454756e6e656c3a204348494c445f54554e4e454c5f4160448201527f4c52454144595f5345540000000000000000000000000000000000000000000060648201526084015b60405180910390fd5b600280547fffffffffffffffffffffffff00000000000000000000000000000000000000001673ffffffffffffffffffffffffffffffffffffffff92909216919091179055565b73ffffffffffffffffffffffffffffffffffffffff848116600090815260046020526040902054166104f2576104f284610675565b6040517fb88d4fde00000000000000000000000000000000000000000000000000000000815273ffffffffffffffffffffffffffffffffffffffff85169063b88d4fde9061054a90339030908790879060040161279c565b600060405180830381600087803b15801561056457600080fd5b505af1158015610578573d6000803e3d6000fd5b5050505060007f87a7811f4bfedea3d341ad165680ae306b01aaeacc205d227629cf157dd9f82185338686866040516020016105b895949392919061274a565b60408051601f19818403018152908290526105d69291602001612855565b60405160208183030381529060405290506105f0816109c6565b8373ffffffffffffffffffffffffffffffffffffffff163373ffffffffffffffffffffffffffffffffffffffff168673ffffffffffffffffffffffffffffffffffffffff167f6027944915fe4eed24b493e60b41ddaea5f543d0cfc0f0357f1cdef7a2ad33798660405161066691815260200190565b60405180910390a45050505050565b73ffffffffffffffffffffffffffffffffffffffff818116600090815260046020526040902054161561072a576040517f08c379a000000000000000000000000000000000000000000000000000000000815260206004820152602260248201527f4678455243373231526f6f7454756e6e656c3a20414c52454144595f4d41505060448201527f4544000000000000000000000000000000000000000000000000000000000000606482015260840161046d565b600081905060008173ffffffffffffffffffffffffffffffffffffffff166306fdde036040518163ffffffff1660e01b815260040160006040518083038186803b15801561077757600080fd5b505afa15801561078b573d6000803e3d6000fd5b505050506040513d6000823e601f3d908101601f191682016040526107b391908101906126a8565b905060008273ffffffffffffffffffffffffffffffffffffffff166395d89b416040518163ffffffff1660e01b815260040160006040518083038186803b1580156107fd57600080fd5b505afa158015610811573d6000803e3d6000fd5b505050506040513d6000823e601f3d908101601f1916820160405261083991908101906126a8565b905060007f2cef46a936bdc5b7e6e8c71aa04560c41cf7d88bb26901a7e7f4936ff02accad85848460405160200161087393929190612814565b60408051601f19818403018152908290526108919291602001612855565b60405160208183030381529060405290506108ab816109c6565b6040517fffffffffffffffffffffffffffffffffffffffff000000000000000000000000606087901b16602082015260009060340160408051601f19818403018152919052805160209091012060055460025491925060009161092591849173ffffffffffffffffffffffffffffffffffffffff16610343565b73ffffffffffffffffffffffffffffffffffffffff88811660008181526004602052604080822080547fffffffffffffffffffffffff000000000000000000000000000000000000000016948616948517905551939450919290917fac7bdfd1c9797163cad973ce9aca20e24ed965aaf4613f777293bffc303562d091a350505050505050565b60006109b782610a57565b90506109c281610e1b565b5050565b6000546002546040517fb472047700000000000000000000000000000000000000000000000000000000815273ffffffffffffffffffffffffffffffffffffffff9283169263b472047792610a229291169085906004016127e5565b600060405180830381600087803b158015610a3c57600080fd5b505af1158015610a50573d6000803e3d6000fd5b5050505050565b60606000610a648361100d565b90506000610a718261106c565b90506000610a7e8361109b565b9050600081610a8c846110c4565b610a95866112b2565b604051602001610aa79392919061271d565b60408051601f1981840301815291815281516020928301206000818152600390935291205490915060ff1615610b5e576040517f08c379a0000000000000000000000000000000000000000000000000000000008152602060048201526024808201527f4678526f6f7454756e6e656c3a20455849545f414c52454144595f50524f434560448201527f5353454400000000000000000000000000000000000000000000000000000000606482015260840161046d565b600081815260036020526040812080547fffffffffffffffffffffffffffffffffffffffffffffffffffffffffffffff00166001179055610b9e856112ce565b90506000610bab82611418565b9050610bb6816114a8565b60025473ffffffffffffffffffffffffffffffffffffffff908116911614610c60576040517f08c379a000000000000000000000000000000000000000000000000000000000815260206004820152602560248201527f4678526f6f7454756e6e656c3a20494e56414c49445f46585f4348494c445f5460448201527f554e4e454c000000000000000000000000000000000000000000000000000000606482015260840161046d565b6000610c6b876114d1565b9050610c8b610c7b846020015190565b87610c858a6114ed565b84611509565b610d17576040517f08c379a000000000000000000000000000000000000000000000000000000000815260206004820152602360248201527f4678526f6f7454756e6e656c3a20494e56414c49445f524543454950545f505260448201527f4f4f460000000000000000000000000000000000000000000000000000000000606482015260840161046d565b610d4585610d24896117c0565b610d2d8a6117dc565b84610d378c6117f8565b610d408d611814565b611830565b506000610d51836119a5565b90507f8c5261668696ce22758910d05bab8f186d6eb247ceac2af2e82c7dc17669b036610d87610d828360006119e1565b611a19565b14610dee576040517f08c379a000000000000000000000000000000000000000000000000000000000815260206004820152601f60248201527f4678526f6f7454756e6e656c3a20494e56414c49445f5349474e415455524500604482015260640161046d565b6000610df984611a94565b806020019051810190610e0c9190612673565b9b9a5050505050505050505050565b600080600080600085806020019051810190610e379190612412565b73ffffffffffffffffffffffffffffffffffffffff858116600090815260046020526040902054959a5093985091965094509250858116911614610efd576040517f08c379a000000000000000000000000000000000000000000000000000000000815260206004820152602b60248201527f4678455243373231526f6f7454756e6e656c3a20494e56414c49445f4d41505060448201527f494e475f4f4e5f45584954000000000000000000000000000000000000000000606482015260840161046d565b6040517fb88d4fde00000000000000000000000000000000000000000000000000000000815273ffffffffffffffffffffffffffffffffffffffff86169063b88d4fde90610f5590309087908790879060040161279c565b600060405180830381600087803b158015610f6f57600080fd5b505af1158015610f83573d6000803e3d6000fd5b505050508273ffffffffffffffffffffffffffffffffffffffff168473ffffffffffffffffffffffffffffffffffffffff168673ffffffffffffffffffffffffffffffffffffffff167fdf709ff47fc84022ec81f28321525a93cfb41fac4318bf8a368d685c6f3ea69185604051610ffd91815260200190565b60405180910390a4505050505050565b60408051602081019091526060815260006110576110528460408051808201825260008082526020918201528151808301909252825182529182019181019190915290565b611ab0565b60408051602081019091529081529392505050565b6060611095826000015160088151811061108857611088612bb0565b6020026020010151611bc6565b92915050565b600061109582600001516002815181106110b7576110b7612bb0565b6020026020010151611a19565b60408051602081019091526000815281516060919015611095576000806110ec600086611c63565b60f81c9050600181148061110357508060ff166003145b156111c3576001855160026111189190612a3c565b6111229190612a79565b67ffffffffffffffff81111561113a5761113a612bdf565b6040519080825280601f01601f191660200182016040528015611164576020820181803683370190505b5092506000611174600187611c63565b9050808460008151811061118a5761118a612bb0565b60200101907effffffffffffffffffffffffffffffffffffffffffffffffffffffffffffff1916908160001a9053506001925050611227565b6002855160026111d39190612a3c565b6111dd9190612a79565b67ffffffffffffffff8111156111f5576111f5612bdf565b6040519080825280601f01601f19166020018201604052801561121f576020820181803683370190505b509250600091505b60ff82165b83518110156112a95761125661124560ff851683612a79565b6112509060026128c7565b87611c63565b84828151811061126857611268612bb0565b60200101907effffffffffffffffffffffffffffffffffffffffffffffffffffffffffffff1916908160001a905350806112a181612ae3565b91505061122c565b50505092915050565b600061109582600001516009815181106110b7576110b7612bb0565b6112f260405180606001604052806060815260200160608152602001600081525090565b61130c826000015160068151811061108857611088612bb0565b60208281018290526040805180820182526000808252908301528051808201909152825181529181019082015261134281611ce4565b156113575761135081611ab0565b8252611404565b6020820151805160009061136d90600190612a79565b67ffffffffffffffff81111561138557611385612bdf565b6040519080825280601f01601f1916602001820160405280156113af576020820181803683370190505b5090506000808360210191508260200190506113cd82828551611d1d565b6040805180820182526000808252602091820152815180830190925284518252808501908201526113fd90611ab0565b8652505050505b61140d836112b2565b604083015250919050565b604080516080810182526000918101828152606080830193909352815260208101919091526000611466836000015160038151811061145957611459612bb0565b6020026020010151611ab0565b83604001518151811061147b5761147b612bb0565b60200260200101519050604051806040016040528082815260200161149f83611ab0565b90529392505050565b600061109582602001516000815181106114c4576114c4612bb0565b6020026020010151611d98565b600061109582600001516005815181106110b7576110b7612bb0565b6060611095826000015160078151811061108857611088612bb0565b60008061153d8460408051808201825260008082526020918201528151808301909252825182529182019181019190915290565b9050600061154a82611ab0565b90506060808560008061155c8b6110c4565b90508051600014156115785760009750505050505050506117b8565b60005b86518110156117af57815183111561159e576000985050505050505050506117b8565b6115c08782815181106115b3576115b3612bb0565b6020026020010151611db2565b9550858051906020012084146115e1576000985050505050505050506117b8565b6115f687828151811061145957611459612bb0565b94508451601114156116cb578151831415611658578c805190602001206116298660108151811061108857611088612bb0565b805190602001201415611647576001985050505050505050506117b8565b6000985050505050505050506117b8565b600082848151811061166c5761166c612bb0565b016020015160f81c9050601081111561169157600099505050505050505050506117b8565b6116b6868260ff16815181106116a9576116a9612bb0565b6020026020010151611e32565b94506116c36001856128c7565b93505061179d565b8451600214156116475760006116f76116f08760008151811061108857611088612bb0565b8486611e60565b835190915061170682866128c7565b141561175b578d8051906020012061172a8760018151811061108857611088612bb0565b80519060200120141561174957600199505050505050505050506117b8565b600099505050505050505050506117b8565b8061177257600099505050505050505050506117b8565b61177c81856128c7565b9350611794866001815181106116a9576116a9612bb0565b945061179d9050565b806117a781612ae3565b91505061157b565b50505050505050505b949350505050565b600061109582600001516003815181106110b7576110b7612bb0565b600061109582600001516004815181106110b7576110b7612bb0565b600061109582600001516000815181106110b7576110b7612bb0565b6060611095826000015160018151811061108857611088612bb0565b6001546040517f41539d4a0000000000000000000000000000000000000000000000000000000081526004810184905260009182918291829173ffffffffffffffffffffffffffffffffffffffff909116906341539d4a9060240160a06040518083038186803b1580156118a357600080fd5b505afa1580156118b7573d6000803e3d6000fd5b505050506040513d601f19601f820116820180604052508101906118db91906125f1565b5093505092509250611932828b6118f29190612a79565b6040805160208082018f90528183018e9052606082018d905260808083018d90528351808403909101815260a09092019092528051910120908588611f99565b611998576040517f08c379a000000000000000000000000000000000000000000000000000000000815260206004820152601c60248201527f4678526f6f7454756e6e656c3a20494e56414c49445f48454144455200000000604482015260640161046d565b9998505050505050505050565b60408051602081019091526060815260405180602001604052806119d9846020015160018151811061145957611459612bb0565b905292915050565b60408051808201909152600080825260208201528251805183908110611a0957611a09612bb0565b6020026020010151905092915050565b805160009015801590611a2e57508151602110155b611a3757600080fd5b6000611a468360200151612143565b90506000818460000151611a5a9190612a79565b9050600080838660200151611a6f91906128c7565b9050805191506020831015611a8b57826020036101000a820491505b50949350505050565b6060611095826020015160028151811061108857611088612bb0565b6060611abb82611ce4565b611ac457600080fd5b6000611acf836121be565b905060008167ffffffffffffffff811115611aec57611aec612bdf565b604051908082528060200260200182016040528015611b3157816020015b6040805180820190915260008082526020820152815260200190600190039081611b0a5790505b5090506000611b438560200151612143565b8560200151611b5291906128c7565b90506000805b84811015611bbb57611b6983612241565b9150604051806040016040528083815260200184815250848281518110611b9257611b92612bb0565b6020908102919091010152611ba782846128c7565b925080611bb381612ae3565b915050611b58565b509195945050505050565b8051606090611bd457600080fd5b6000611be38360200151612143565b90506000818460000151611bf79190612a79565b905060008167ffffffffffffffff811115611c1457611c14612bdf565b6040519080825280601f01601f191660200182016040528015611c3e576020820181803683370190505b5090506000816020019050611a8b848760200151611c5c91906128c7565b8285612303565b6000611c70600284612b1c565b15611caa57601082611c836002866128df565b81518110611c9357611c93612bb0565b0160200151611ca5919060f81c612b30565b611cda565b601082611cb86002866128df565b81518110611cc857611cc8612bb0565b0160200151611cda919060f81c6128f3565b60f81b9392505050565b8051600090611cf557506000919050565b6020820151805160001a9060c0821015611d13575060009392505050565b5060019392505050565b80611d2757505050565b60208110611d5f5782518252611d3e6020846128c7565b9250611d4b6020836128c7565b9150611d58602082612a79565b9050611d27565b60006001611d6e836020612a79565b611d7a90610100612976565b611d849190612a79565b935183518516941916939093179091525050565b8051600090601514611da957600080fd5b61109582611a19565b60606000826000015167ffffffffffffffff811115611dd357611dd3612bdf565b6040519080825280601f01601f191660200182016040528015611dfd576020820181803683370190505b509050805160001415611e105792915050565b6000816020019050611e2b8460200151828660000151612303565b5092915050565b8051600090602114611e4357600080fd5b60008083602001516001611e5791906128c7565b51949350505050565b60008080611e6d866110c4565b90506000815167ffffffffffffffff811115611e8b57611e8b612bdf565b6040519080825280601f01601f191660200182016040528015611eb5576020820181803683370190505b509050845b8251611ec690876128c7565b811015611f69576000878281518110611ee157611ee1612bb0565b01602001517fff000000000000000000000000000000000000000000000000000000000000001690508083611f168985612a79565b81518110611f2657611f26612bb0565b60200101907effffffffffffffffffffffffffffffffffffffffffffffffffffffffffffff1916908160001a905350508080611f6190612ae3565b915050611eba565b50808051906020012082805190602001201415611f895781519250611f8e565b600092505b509095945050505050565b600060208251611fa99190612b1c565b15612010576040517f08c379a000000000000000000000000000000000000000000000000000000000815260206004820152601460248201527f496e76616c69642070726f6f66206c656e677468000000000000000000000000604482015260640161046d565b60006020835161202091906128df565b905061202d816002612976565b8510612095576040517f08c379a000000000000000000000000000000000000000000000000000000000815260206004820152601560248201527f4c65616620696e64657820697320746f6f206269670000000000000000000000604482015260640161046d565b60008660205b85518111612135578581015192506120b4600289612b1c565b6120e9576040805160208101849052908101849052606001604051602081830303815290604052805190602001209150612116565b60408051602081018590529081018390526060016040516020818303038152906040528051906020012091505b6121216002896128df565b975061212e6020826128c7565b905061209b565b509094149695505050505050565b8051600090811a608081101561215c5750600092915050565b60b8811080612177575060c08110801590612177575060f881105b156121855750600192915050565b60c08110156121b25761219a600160b8612a90565b6121a79060ff1682612a79565b6103c49060016128c7565b61219a600160f8612a90565b80516000906121cf57506000919050565b6000806121df8460200151612143565b84602001516121ee91906128c7565b905060008460000151856020015161220691906128c7565b90505b808210156122385761221a82612241565b61222490836128c7565b91508261223081612ae3565b935050612209565b50909392505050565b80516000908190811a608081101561225c5760019150611e2b565b60b881101561228257612270608082612a79565b61227b9060016128c7565b9150611e2b565b60c08110156122af5760b78103600185019450806020036101000a85510460018201810193505050611e2b565b60f88110156122c35761227060c082612a79565b60019390930151602084900360f7016101000a90049092017fffffffffffffffffffffffffffffffffffffffffffffffffffffffffffffff0a0192915050565b8061230d57505050565b6020811061234557825182526123246020846128c7565b92506123316020836128c7565b915061233e602082612a79565b905061230d565b80611d5f57505050565b600061236261235d8461289f565b61286e565b905082815283838301111561237657600080fd5b6103c4836020830184612ab3565b600082601f83011261239557600080fd5b81356123a361235d8261289f565b8181528460208386010111156123b857600080fd5b816020850160208301376000918101602001919091529392505050565b600082601f8301126123e657600080fd5b6103c48383516020850161234f565b60006020828403121561240757600080fd5b81356103c481612c0e565b600080600080600060a0868803121561242a57600080fd5b855161243581612c0e565b602087015190955061244681612c0e565b604087015190945061245781612c0e565b60608701516080880151919450925067ffffffffffffffff81111561247b57600080fd5b612487888289016123d5565b9150509295509295909350565b6000806000806000608086880312156124ac57600080fd5b85356124b781612c0e565b945060208601356124c781612c0e565b935060408601359250606086013567ffffffffffffffff808211156124eb57600080fd5b818801915088601f8301126124ff57600080fd5b81358181111561250e57600080fd5b89602082850101111561252057600080fd5b9699959850939650602001949392505050565b6000806000806080858703121561254957600080fd5b843561255481612c0e565b9350602085013561256481612c0e565b925060408501359150606085013567ffffffffffffffff81111561258757600080fd5b61259387828801612384565b91505092959194509250565b6000602082840312156125b157600080fd5b5035919050565b6000806000606084860312156125cd57600080fd5b833592506020840135915060408401356125e681612c0e565b809150509250925092565b600080600080600060a0868803121561260957600080fd5b85519450602086015193506040860151925060608601519150608086015161263081612c0e565b809150509295509295909350565b60006020828403121561265057600080fd5b813567ffffffffffffffff81111561266757600080fd5b6117b884828501612384565b60006020828403121561268557600080fd5b815167ffffffffffffffff81111561269c57600080fd5b6117b8848285016123d5565b6000602082840312156126ba57600080fd5b815167ffffffffffffffff8111156126d157600080fd5b8201601f810184136126e257600080fd5b6117b88482516020840161234f565b60008151808452612709816020860160208601612ab3565b601f01601f19169290920160200192915050565b83815260008351612735816020850160208801612ab3565b60209201918201929092526040019392505050565b600073ffffffffffffffffffffffffffffffffffffffff8088168352808716602084015280861660408401525083606083015260a0608083015261279160a08301846126f1565b979650505050505050565b600073ffffffffffffffffffffffffffffffffffffffff8087168352808616602084015250836040830152608060608301526127db60808301846126f1565b9695505050505050565b73ffffffffffffffffffffffffffffffffffffffff831681526040602082015260006117b860408301846126f1565b73ffffffffffffffffffffffffffffffffffffffff8416815260606020820152600061284360608301856126f1565b82810360408401526127db81856126f1565b8281526040602082015260006117b860408301846126f1565b604051601f8201601f1916810167ffffffffffffffff8111828210171561289757612897612bdf565b604052919050565b600067ffffffffffffffff8211156128b9576128b9612bdf565b50601f01601f191660200190565b600082198211156128da576128da612b52565b500190565b6000826128ee576128ee612b81565b500490565b600060ff83168061290657612906612b81565b8060ff84160491505092915050565b600181815b8085111561296e57817fffffffffffffffffffffffffffffffffffffffffffffffffffffffffffffffff0482111561295457612954612b52565b8085161561296157918102915b93841c939080029061291a565b509250929050565b60006103c4838360008261298c57506001611095565b8161299957506000611095565b81600181146129af57600281146129b9576129d5565b6001915050611095565b60ff8411156129ca576129ca612b52565b50506001821b611095565b5060208310610133831016604e8410600b84101617156129f8575081810a611095565b612a028383612915565b807fffffffffffffffffffffffffffffffffffffffffffffffffffffffffffffffff04821115612a3457612a34612b52565b029392505050565b6000817fffffffffffffffffffffffffffffffffffffffffffffffffffffffffffffffff0483118215151615612a7457612a74612b52565b500290565b600082821015612a8b57612a8b612b52565b500390565b600060ff821660ff841680821015612aaa57612aaa612b52565b90039392505050565b60005b83811015612ace578181015183820152602001612ab6565b83811115612add576000848401525b50505050565b60007fffffffffffffffffffffffffffffffffffffffffffffffffffffffffffffffff821415612b1557612b15612b52565b5060010190565b600082612b2b57612b2b612b81565b500690565b600060ff831680612b4357612b43612b81565b8060ff84160691505092915050565b7f4e487b7100000000000000000000000000000000000000000000000000000000600052601160045260246000fd5b7f4e487b7100000000000000000000000000000000000000000000000000000000600052601260045260246000fd5b7f4e487b7100000000000000000000000000000000000000000000000000000000600052603260045260246000fd5b7f4e487b7100000000000000000000000000000000000000000000000000000000600052604160045260246000fd5b73ffffffffffffffffffffffffffffffffffffffff81168114612c3057600080fd5b5056fea2646970667358221220480c47f62e2aa975a59eb4111c1029301d6545679932b651d5fdbfdf1ee29e8864736f6c63430008070033",
  "linkReferences": {},
  "deployedLinkReferences": {}
}