{
  "_format": "hh-sol-artifact-1",
  "contractName": "FxERC1155",
  "sourceName": "contracts/tokens/FxERC1155.sol",
  "abi": [
    {
      "anonymous": false,
      "inputs": [
        {
          "indexed": true,
          "internalType": "address",
          "name": "account",
          "type": "address"
        },
        {
          "indexed": true,
          "internalType": "address",
          "name": "operator",
          "type": "address"
        },
        {
          "indexed": false,
          "internalType": "bool",
          "name": "approved",
          "type": "bool"
        }
      ],
      "name": "ApprovalForAll",
      "type": "event"
    },
    {
      "anonymous": false,
      "inputs": [
        {
          "indexed": true,
          "internalType": "address",
          "name": "operator",
          "type": "address"
        },
        {
          "indexed": true,
          "internalType": "address",
          "name": "from",
          "type": "address"
        },
        {
          "indexed": true,
          "internalType": "address",
          "name": "to",
          "type": "address"
        },
        {
          "indexed": false,
          "internalType": "uint256[]",
          "name": "ids",
          "type": "uint256[]"
        },
        {
          "indexed": false,
          "internalType": "uint256[]",
          "name": "values",
          "type": "uint256[]"
        }
      ],
      "name": "TransferBatch",
      "type": "event"
    },
    {
      "anonymous": false,
      "inputs": [
        {
          "indexed": true,
          "internalType": "address",
          "name": "operator",
          "type": "address"
        },
        {
          "indexed": true,
          "internalType": "address",
          "name": "from",
          "type": "address"
        },
        {
          "indexed": true,
          "internalType": "address",
          "name": "to",
          "type": "address"
        },
        {
          "indexed": false,
          "internalType": "uint256",
          "name": "id",
          "type": "uint256"
        },
        {
          "indexed": false,
          "internalType": "uint256",
          "name": "value",
          "type": "uint256"
        }
      ],
      "name": "TransferSingle",
      "type": "event"
    },
    {
      "anonymous": false,
      "inputs": [
        {
          "indexed": false,
          "internalType": "string",
          "name": "value",
          "type": "string"
        },
        {
          "indexed": true,
          "internalType": "uint256",
          "name": "id",
          "type": "uint256"
        }
      ],
      "name": "URI",
      "type": "event"
    },
    {
      "inputs": [
        {
          "internalType": "address",
          "name": "account",
          "type": "address"
        },
        {
          "internalType": "uint256",
          "name": "id",
          "type": "uint256"
        }
      ],
      "name": "balanceOf",
      "outputs": [
        {
          "internalType": "uint256",
          "name": "",
          "type": "uint256"
        }
      ],
      "stateMutability": "view",
      "type": "function"
    },
    {
      "inputs": [
        {
          "internalType": "address[]",
          "name": "accounts",
          "type": "address[]"
        },
        {
          "internalType": "uint256[]",
          "name": "ids",
          "type": "uint256[]"
        }
      ],
      "name": "balanceOfBatch",
      "outputs": [
        {
          "internalType": "uint256[]",
          "name": "",
          "type": "uint256[]"
        }
      ],
      "stateMutability": "view",
      "type": "function"
    },
    {
      "inputs": [
        {
          "internalType": "address",
          "name": "user",
          "type": "address"
        },
        {
          "internalType": "uint256",
          "name": "id",
          "type": "uint256"
        },
        {
          "internalType": "uint256",
          "name": "amount",
          "type": "uint256"
        }
      ],
      "name": "burn",
      "outputs": [],
      "stateMutability": "nonpayable",
      "type": "function"
    },
    {
      "inputs": [
        {
          "internalType": "address",
          "name": "user",
          "type": "address"
        },
        {
          "internalType": "uint256[]",
          "name": "ids",
          "type": "uint256[]"
        },
        {
          "internalType": "uint256[]",
          "name": "amounts",
          "type": "uint256[]"
        }
      ],
      "name": "burnBatch",
      "outputs": [],
      "stateMutability": "nonpayable",
      "type": "function"
    },
    {
      "inputs": [],
      "name": "connectedToken",
      "outputs": [
        {
          "internalType": "address",
          "name": "",
          "type": "address"
        }
      ],
      "stateMutability": "view",
      "type": "function"
    },
    {
      "inputs": [],
      "name": "fxManager",
      "outputs": [
        {
          "internalType": "address",
          "name": "",
          "type": "address"
        }
      ],
      "stateMutability": "view",
      "type": "function"
    },
    {
      "inputs": [
        {
          "internalType": "address",
          "name": "fxManager_",
          "type": "address"
        },
        {
          "internalType": "address",
          "name": "connectedToken_",
          "type": "address"
        },
        {
          "internalType": "string",
          "name": "uri_",
          "type": "string"
        }
      ],
      "name": "initialize",
      "outputs": [],
      "stateMutability": "nonpayable",
      "type": "function"
    },
    {
      "inputs": [
        {
          "internalType": "address",
          "name": "account",
          "type": "address"
        },
        {
          "internalType": "address",
          "name": "operator",
          "type": "address"
        }
      ],
      "name": "isApprovedForAll",
      "outputs": [
        {
          "internalType": "bool",
          "name": "",
          "type": "bool"
        }
      ],
      "stateMutability": "view",
      "type": "function"
    },
    {
      "inputs": [
        {
          "internalType": "address",
          "name": "user",
          "type": "address"
        },
        {
          "internalType": "uint256",
          "name": "id",
          "type": "uint256"
        },
        {
          "internalType": "uint256",
          "name": "amount",
          "type": "uint256"
        },
        {
          "internalType": "bytes",
          "name": "data",
          "type": "bytes"
        }
      ],
      "name": "mint",
      "outputs": [],
      "stateMutability": "nonpayable",
      "type": "function"
    },
    {
      "inputs": [
        {
          "internalType": "address",
          "name": "user",
          "type": "address"
        },
        {
          "internalType": "uint256[]",
          "name": "ids",
          "type": "uint256[]"
        },
        {
          "internalType": "uint256[]",
          "name": "amounts",
          "type": "uint256[]"
        },
        {
          "internalType": "bytes",
          "name": "data",
          "type": "bytes"
        }
      ],
      "name": "mintBatch",
      "outputs": [],
      "stateMutability": "nonpayable",
      "type": "function"
    },
    {
      "inputs": [
        {
          "internalType": "address",
          "name": "from",
          "type": "address"
        },
        {
          "internalType": "address",
          "name": "to",
          "type": "address"
        },
        {
          "internalType": "uint256[]",
          "name": "ids",
          "type": "uint256[]"
        },
        {
          "internalType": "uint256[]",
          "name": "amounts",
          "type": "uint256[]"
        },
        {
          "internalType": "bytes",
          "name": "data",
          "type": "bytes"
        }
      ],
      "name": "safeBatchTransferFrom",
      "outputs": [],
      "stateMutability": "nonpayable",
      "type": "function"
    },
    {
      "inputs": [
        {
          "internalType": "address",
          "name": "from",
          "type": "address"
        },
        {
          "internalType": "address",
          "name": "to",
          "type": "address"
        },
        {
          "internalType": "uint256",
          "name": "id",
          "type": "uint256"
        },
        {
          "internalType": "uint256",
          "name": "amount",
          "type": "uint256"
        },
        {
          "internalType": "bytes",
          "name": "data",
          "type": "bytes"
        }
      ],
      "name": "safeTransferFrom",
      "outputs": [],
      "stateMutability": "nonpayable",
      "type": "function"
    },
    {
      "inputs": [
        {
          "internalType": "address",
          "name": "operator",
          "type": "address"
        },
        {
          "internalType": "bool",
          "name": "approved",
          "type": "bool"
        }
      ],
      "name": "setApprovalForAll",
      "outputs": [],
      "stateMutability": "nonpayable",
      "type": "function"
    },
    {
      "inputs": [
        {
          "internalType": "string",
          "name": "_uri",
          "type": "string"
        }
      ],
      "name": "setupMetaData",
      "outputs": [],
      "stateMutability": "nonpayable",
      "type": "function"
    },
    {
      "inputs": [
        {
          "internalType": "bytes4",
          "name": "interfaceId",
          "type": "bytes4"
        }
      ],
      "name": "supportsInterface",
      "outputs": [
        {
          "internalType": "bool",
          "name": "",
          "type": "bool"
        }
      ],
      "stateMutability": "view",
      "type": "function"
    },
    {
      "inputs": [
        {
          "internalType": "uint256",
          "name": "",
          "type": "uint256"
        }
      ],
      "name": "uri",
      "outputs": [
        {
          "internalType": "string",
          "name": "",
          "type": "string"
        }
      ],
      "stateMutability": "view",
      "type": "function"
    }
  ],
  "bytecode": "0x608060405234801561001057600080fd5b506125d2806100206000396000f3fe608060405234801561001057600080fd5b50600436106100ff5760003560e01c80634e1273f411610097578063a22cb46511610066578063a22cb46514610237578063e985e9c51461024a578063f242432a14610286578063f5298aca1461029957600080fd5b80634e1273f4146101e05780636b20c45414610200578063731133e9146102135780639b7791531461022657600080fd5b80630e89341c116100d35780630e89341c146101875780631f7fdffa146101a75780632eb2c2d6146101ba5780634571e3a6146101cd57600080fd5b8062fdd58e1461010457806301ffc9a71461012a5780630a6d21521461014d5780630a8a491414610162575b600080fd5b610117610112366004611f79565b6102ac565b6040519081526020015b60405180910390f35b61013d6101383660046120fc565b610355565b6040519015158152602001610121565b61016061015b36600461213d565b61043a565b005b6004546001600160a01b03165b6040516001600160a01b039091168152602001610121565b61019a61019536600461217a565b6104a0565b60405161012191906122fd565b6101606101b5366004611ea4565b610534565b6101606101c8366004611ccd565b6105a0565b6101606101db366004611d77565b610917565b6101f36101ee36600461202b565b6109db565b60405161012191906122bc565b61016061020e366004611e3a565b610b19565b610160610221366004611fd6565b610b7e565b6003546001600160a01b031661016f565b610160610245366004611f3d565b610be4565b61013d610258366004611c9a565b6001600160a01b03918216600090815260016020908152604080832093909416825291909152205460ff1690565b610160610294366004611dd5565b610ced565b6101606102a7366004611fa3565b610f5d565b60006001600160a01b03831661032f5760405162461bcd60e51b815260206004820152602b60248201527f455243313135353a2062616c616e636520717565727920666f7220746865207a60448201527f65726f206164647265737300000000000000000000000000000000000000000060648201526084015b60405180910390fd5b506000908152602081815260408083206001600160a01b03949094168352929052205490565b60007fffffffff0000000000000000000000000000000000000000000000000000000082167fd9b67a260000000000000000000000000000000000000000000000000000000014806103e857507fffffffff0000000000000000000000000000000000000000000000000000000082167f0e89341c00000000000000000000000000000000000000000000000000000000145b8061043457507f01ffc9a7000000000000000000000000000000000000000000000000000000007fffffffff000000000000000000000000000000000000000000000000000000008316145b92915050565b6003546001600160a01b031633146104945760405162461bcd60e51b815260206004820152600e60248201527f496e76616c69642073656e6465720000000000000000000000000000000000006044820152606401610326565b61049d81610fc2565b50565b6060600280546104af90612363565b80601f01602080910402602001604051908101604052809291908181526020018280546104db90612363565b80156105285780601f106104fd57610100808354040283529160200191610528565b820191906000526020600020905b81548152906001019060200180831161050b57829003601f168201915b50505050509050919050565b6003546001600160a01b0316331461058e5760405162461bcd60e51b815260206004820152600e60248201527f496e76616c69642073656e6465720000000000000000000000000000000000006044820152606401610326565b61059a84848484610fcb565b50505050565b81518351146106175760405162461bcd60e51b815260206004820152602860248201527f455243313135353a2069647320616e6420616d6f756e7473206c656e6774682060448201527f6d69736d617463680000000000000000000000000000000000000000000000006064820152608401610326565b6001600160a01b0384166106935760405162461bcd60e51b815260206004820152602560248201527f455243313135353a207472616e7366657220746f20746865207a65726f20616460448201527f64726573730000000000000000000000000000000000000000000000000000006064820152608401610326565b6001600160a01b0385163314806106af57506106af8533610258565b6107215760405162461bcd60e51b815260206004820152603260248201527f455243313135353a207472616e736665722063616c6c6572206973206e6f742060448201527f6f776e6572206e6f7220617070726f76656400000000000000000000000000006064820152608401610326565b3360005b84518110156108a95760008582815181106107425761074261244c565b6020026020010151905060008583815181106107605761076061244c565b602090810291909101810151600084815280835260408082206001600160a01b038e1683529093529190912054909150818110156108065760405162461bcd60e51b815260206004820152602a60248201527f455243313135353a20696e73756666696369656e742062616c616e636520666f60448201527f72207472616e73666572000000000000000000000000000000000000000000006064820152608401610326565b610810828261234c565b60008085815260200190815260200160002060008c6001600160a01b03166001600160a01b03168152602001908152602001600020819055508160008085815260200190815260200160002060008b6001600160a01b03166001600160a01b03168152602001908152602001600020600082825461088e9190612334565b92505081905550505050806108a2906123e4565b9050610725565b50846001600160a01b0316866001600160a01b0316826001600160a01b03167f4a39dc06d4c0dbc64b70af90fd698a233a518aa5d07e595d983b8c0526c8f7fb87876040516108f99291906122cf565b60405180910390a461090f8187878787876111be565b505050505050565b6003546001600160a01b031615801561093957506004546001600160a01b0316155b6109855760405162461bcd60e51b815260206004820152601c60248201527f546f6b656e20697320616c726561647920696e697469616c697a6564000000006044820152606401610326565b600380546001600160a01b038086167fffffffffffffffffffffffff00000000000000000000000000000000000000009283161790925560048054928516929091169190911790556109d68161043a565b505050565b60608151835114610a545760405162461bcd60e51b815260206004820152602960248201527f455243313135353a206163636f756e747320616e6420696473206c656e67746860448201527f206d69736d6174636800000000000000000000000000000000000000000000006064820152608401610326565b6000835167ffffffffffffffff811115610a7057610a7061247b565b604051908082528060200260200182016040528015610a99578160200160208202803683370190505b50905060005b8451811015610b1157610ae4858281518110610abd57610abd61244c565b6020026020010151858381518110610ad757610ad761244c565b60200260200101516102ac565b828281518110610af657610af661244c565b6020908102919091010152610b0a816123e4565b9050610a9f565b509392505050565b6003546001600160a01b03163314610b735760405162461bcd60e51b815260206004820152600e60248201527f496e76616c69642073656e6465720000000000000000000000000000000000006044820152606401610326565b6109d68383836113d2565b6003546001600160a01b03163314610bd85760405162461bcd60e51b815260206004820152600e60248201527f496e76616c69642073656e6465720000000000000000000000000000000000006044820152606401610326565b61059a8484848461165c565b336001600160a01b0383161415610c635760405162461bcd60e51b815260206004820152602960248201527f455243313135353a2073657474696e6720617070726f76616c2073746174757360448201527f20666f722073656c6600000000000000000000000000000000000000000000006064820152608401610326565b3360008181526001602090815260408083206001600160a01b0387168085529083529281902080547fffffffffffffffffffffffffffffffffffffffffffffffffffffffffffffff001686151590811790915590519081529192917f17307eab39ab6107e8899845ad3d59bd9653f200f220920489ca2b5937696c31910160405180910390a35050565b6001600160a01b038416610d695760405162461bcd60e51b815260206004820152602560248201527f455243313135353a207472616e7366657220746f20746865207a65726f20616460448201527f64726573730000000000000000000000000000000000000000000000000000006064820152608401610326565b6001600160a01b038516331480610d855750610d858533610258565b610df75760405162461bcd60e51b815260206004820152602960248201527f455243313135353a2063616c6c6572206973206e6f74206f776e6572206e6f7260448201527f20617070726f76656400000000000000000000000000000000000000000000006064820152608401610326565b33610e17818787610e0788611779565b610e1088611779565b5050505050565b6000848152602081815260408083206001600160a01b038a16845290915290205483811015610eae5760405162461bcd60e51b815260206004820152602a60248201527f455243313135353a20696e73756666696369656e742062616c616e636520666f60448201527f72207472616e73666572000000000000000000000000000000000000000000006064820152608401610326565b610eb8848261234c565b6000868152602081815260408083206001600160a01b038c81168552925280832093909355881681529081208054869290610ef4908490612334565b909155505060408051868152602081018690526001600160a01b03808916928a821692918616917fc3d58168c5ae7397731d063d5bbf3d657854427343f4c083240f7aacaa2d0f62910160405180910390a4610f548288888888886117c4565b50505050505050565b6003546001600160a01b03163314610fb75760405162461bcd60e51b815260206004820152600e60248201527f496e76616c69642073656e6465720000000000000000000000000000000000006044820152606401610326565b6109d683838361192e565b61049d81611ae3565b6001600160a01b0384166110475760405162461bcd60e51b815260206004820152602160248201527f455243313135353a206d696e7420746f20746865207a65726f2061646472657360448201527f73000000000000000000000000000000000000000000000000000000000000006064820152608401610326565b81518351146110be5760405162461bcd60e51b815260206004820152602860248201527f455243313135353a2069647320616e6420616d6f756e7473206c656e6774682060448201527f6d69736d617463680000000000000000000000000000000000000000000000006064820152608401610326565b3360005b845181101561115a578381815181106110dd576110dd61244c565b60200260200101516000808784815181106110fa576110fa61244c565b602002602001015181526020019081526020016000206000886001600160a01b03166001600160a01b0316815260200190815260200160002060008282546111429190612334565b90915550819050611152816123e4565b9150506110c2565b50846001600160a01b031660006001600160a01b0316826001600160a01b03167f4a39dc06d4c0dbc64b70af90fd698a233a518aa5d07e595d983b8c0526c8f7fb87876040516111ab9291906122cf565b60405180910390a4610e10816000878787875b6001600160a01b0384163b1561090f576040517fbc197c810000000000000000000000000000000000000000000000000000000081526001600160a01b0385169063bc197c819061121b908990899088908890889060040161221b565b602060405180830381600087803b15801561123557600080fd5b505af1925050508015611265575060408051601f3d908101601f1916820190925261126291810190612120565b60015b61131b576112716124aa565b806308c379a014156112ab57506112866124c6565b8061129157506112ad565b8060405162461bcd60e51b815260040161032691906122fd565b505b60405162461bcd60e51b815260206004820152603460248201527f455243313135353a207472616e7366657220746f206e6f6e204552433131353560448201527f526563656976657220696d706c656d656e7465720000000000000000000000006064820152608401610326565b7fffffffff0000000000000000000000000000000000000000000000000000000081167fbc197c810000000000000000000000000000000000000000000000000000000014610f545760405162461bcd60e51b815260206004820152602860248201527f455243313135353a204552433131353552656365697665722072656a6563746560448201527f6420746f6b656e730000000000000000000000000000000000000000000000006064820152608401610326565b6001600160a01b03831661144e5760405162461bcd60e51b815260206004820152602360248201527f455243313135353a206275726e2066726f6d20746865207a65726f206164647260448201527f65737300000000000000000000000000000000000000000000000000000000006064820152608401610326565b80518251146114c55760405162461bcd60e51b815260206004820152602860248201527f455243313135353a2069647320616e6420616d6f756e7473206c656e6774682060448201527f6d69736d617463680000000000000000000000000000000000000000000000006064820152608401610326565b604080516020810190915260009081905233905b83518110156115fd5760008482815181106114f6576114f661244c565b6020026020010151905060008483815181106115145761151461244c565b602090810291909101810151600084815280835260408082206001600160a01b038c1683529093529190912054909150818110156115b95760405162461bcd60e51b8152602060048201526024808201527f455243313135353a206275726e20616d6f756e7420657863656564732062616c60448201527f616e6365000000000000000000000000000000000000000000000000000000006064820152608401610326565b6115c3828261234c565b6000938452602084815260408086206001600160a01b038c16875290915290932092909255508190506115f5816123e4565b9150506114d9565b5060006001600160a01b0316846001600160a01b0316826001600160a01b03167f4a39dc06d4c0dbc64b70af90fd698a233a518aa5d07e595d983b8c0526c8f7fb868660405161164e9291906122cf565b60405180910390a450505050565b6001600160a01b0384166116d85760405162461bcd60e51b815260206004820152602160248201527f455243313135353a206d696e7420746f20746865207a65726f2061646472657360448201527f73000000000000000000000000000000000000000000000000000000000000006064820152608401610326565b336116e981600087610e0788611779565b6000848152602081815260408083206001600160a01b038916845290915281208054859290611719908490612334565b909155505060408051858152602081018590526001600160a01b0380881692600092918516917fc3d58168c5ae7397731d063d5bbf3d657854427343f4c083240f7aacaa2d0f62910160405180910390a4610e10816000878787876117c4565b604080516001808252818301909252606091600091906020808301908036833701905050905082816000815181106117b3576117b361244c565b602090810291909101015292915050565b6001600160a01b0384163b1561090f576040517ff23a6e610000000000000000000000000000000000000000000000000000000081526001600160a01b0385169063f23a6e61906118219089908990889088908890600401612279565b602060405180830381600087803b15801561183b57600080fd5b505af192505050801561186b575060408051601f3d908101601f1916820190925261186891810190612120565b60015b611877576112716124aa565b7fffffffff0000000000000000000000000000000000000000000000000000000081167ff23a6e610000000000000000000000000000000000000000000000000000000014610f545760405162461bcd60e51b815260206004820152602860248201527f455243313135353a204552433131353552656365697665722072656a6563746560448201527f6420746f6b656e730000000000000000000000000000000000000000000000006064820152608401610326565b6001600160a01b0383166119aa5760405162461bcd60e51b815260206004820152602360248201527f455243313135353a206275726e2066726f6d20746865207a65726f206164647260448201527f65737300000000000000000000000000000000000000000000000000000000006064820152608401610326565b336119da818560006119bb87611779565b6119c487611779565b5050604080516020810190915260009052505050565b6000838152602081815260408083206001600160a01b038816845290915290205482811015611a705760405162461bcd60e51b8152602060048201526024808201527f455243313135353a206275726e20616d6f756e7420657863656564732062616c60448201527f616e6365000000000000000000000000000000000000000000000000000000006064820152608401610326565b611a7a838261234c565b6000858152602081815260408083206001600160a01b038a811680865291845282852095909555815189815292830188905292938616917fc3d58168c5ae7397731d063d5bbf3d657854427343f4c083240f7aacaa2d0f62910160405180910390a45050505050565b8051611af6906002906020840190611afa565b5050565b828054611b0690612363565b90600052602060002090601f016020900481019282611b285760008555611b6e565b82601f10611b4157805160ff1916838001178555611b6e565b82800160010185558215611b6e579182015b82811115611b6e578251825591602001919060010190611b53565b50611b7a929150611b7e565b5090565b5b80821115611b7a5760008155600101611b7f565b80356001600160a01b0381168114611baa57600080fd5b919050565b600082601f830112611bc057600080fd5b81356020611bcd82612310565b604051611bda82826123b7565b8381528281019150858301600585901b87018401881015611bfa57600080fd5b60005b85811015611c1957813584529284019290840190600101611bfd565b5090979650505050505050565b600082601f830112611c3757600080fd5b813567ffffffffffffffff811115611c5157611c5161247b565b604051611c686020601f19601f85011601826123b7565b818152846020838601011115611c7d57600080fd5b816020850160208301376000918101602001919091529392505050565b60008060408385031215611cad57600080fd5b611cb683611b93565b9150611cc460208401611b93565b90509250929050565b600080600080600060a08688031215611ce557600080fd5b611cee86611b93565b9450611cfc60208701611b93565b9350604086013567ffffffffffffffff80821115611d1957600080fd5b611d2589838a01611baf565b94506060880135915080821115611d3b57600080fd5b611d4789838a01611baf565b93506080880135915080821115611d5d57600080fd5b50611d6a88828901611c26565b9150509295509295909350565b600080600060608486031215611d8c57600080fd5b611d9584611b93565b9250611da360208501611b93565b9150604084013567ffffffffffffffff811115611dbf57600080fd5b611dcb86828701611c26565b9150509250925092565b600080600080600060a08688031215611ded57600080fd5b611df686611b93565b9450611e0460208701611b93565b93506040860135925060608601359150608086013567ffffffffffffffff811115611e2e57600080fd5b611d6a88828901611c26565b600080600060608486031215611e4f57600080fd5b611e5884611b93565b9250602084013567ffffffffffffffff80821115611e7557600080fd5b611e8187838801611baf565b93506040860135915080821115611e9757600080fd5b50611dcb86828701611baf565b60008060008060808587031215611eba57600080fd5b611ec385611b93565b9350602085013567ffffffffffffffff80821115611ee057600080fd5b611eec88838901611baf565b94506040870135915080821115611f0257600080fd5b611f0e88838901611baf565b93506060870135915080821115611f2457600080fd5b50611f3187828801611c26565b91505092959194509250565b60008060408385031215611f5057600080fd5b611f5983611b93565b915060208301358015158114611f6e57600080fd5b809150509250929050565b60008060408385031215611f8c57600080fd5b611f9583611b93565b946020939093013593505050565b600080600060608486031215611fb857600080fd5b611fc184611b93565b95602085013595506040909401359392505050565b60008060008060808587031215611fec57600080fd5b611ff585611b93565b93506020850135925060408501359150606085013567ffffffffffffffff81111561201f57600080fd5b611f3187828801611c26565b6000806040838503121561203e57600080fd5b823567ffffffffffffffff8082111561205657600080fd5b818501915085601f83011261206a57600080fd5b8135602061207782612310565b60405161208482826123b7565b8381528281019150858301600585901b870184018b10156120a457600080fd5b600096505b848710156120ce576120ba81611b93565b8352600196909601959183019183016120a9565b50965050860135925050808211156120e557600080fd5b506120f285828601611baf565b9150509250929050565b60006020828403121561210e57600080fd5b81356121198161256e565b9392505050565b60006020828403121561213257600080fd5b81516121198161256e565b60006020828403121561214f57600080fd5b813567ffffffffffffffff81111561216657600080fd5b61217284828501611c26565b949350505050565b60006020828403121561218c57600080fd5b5035919050565b600081518084526020808501945080840160005b838110156121c3578151875295820195908201906001016121a7565b509495945050505050565b6000815180845260005b818110156121f4576020818501810151868301820152016121d8565b81811115612206576000602083870101525b50601f01601f19169290920160200192915050565b60006001600160a01b03808816835280871660208401525060a0604083015261224760a0830186612193565b82810360608401526122598186612193565b9050828103608084015261226d81856121ce565b98975050505050505050565b60006001600160a01b03808816835280871660208401525084604083015283606083015260a060808301526122b160a08301846121ce565b979650505050505050565b6020815260006121196020830184612193565b6040815260006122e26040830185612193565b82810360208401526122f48185612193565b95945050505050565b60208152600061211960208301846121ce565b600067ffffffffffffffff82111561232a5761232a61247b565b5060051b60200190565b600082198211156123475761234761241d565b500190565b60008282101561235e5761235e61241d565b500390565b600181811c9082168061237757607f821691505b602082108114156123b1577f4e487b7100000000000000000000000000000000000000000000000000000000600052602260045260246000fd5b50919050565b601f19601f830116810181811067ffffffffffffffff821117156123dd576123dd61247b565b6040525050565b60007fffffffffffffffffffffffffffffffffffffffffffffffffffffffffffffffff8214156124165761241661241d565b5060010190565b7f4e487b7100000000000000000000000000000000000000000000000000000000600052601160045260246000fd5b7f4e487b7100000000000000000000000000000000000000000000000000000000600052603260045260246000fd5b7f4e487b7100000000000000000000000000000000000000000000000000000000600052604160045260246000fd5b600060033d11156124c35760046000803e5060005160e01c5b90565b600060443d10156124d45790565b6040517ffffffffffffffffffffffffffffffffffffffffffffffffffffffffffffffffc803d016004833e81513d67ffffffffffffffff816024840111818411171561252257505050505090565b828501915081518181111561253a5750505050505090565b843d87010160208285010111156125545750505050505090565b612563602082860101876123b7565b509095945050505050565b7fffffffff000000000000000000000000000000000000000000000000000000008116811461049d57600080fdfea2646970667358221220037a8500db82e320341dce10e880a51a29c8c94e9fcb92971e3849223d30269264736f6c63430008070033",
  "linkReferences": {},
  "deployedLinkReferences": {}
}