{
  "_format": "hh-sol-artifact-1",
  "contractName": "FxMintableERC20RootTunnel",
  "sourceName": "contracts/examples/mintable-erc20-transfer/FxMintableERC20RootTunnel.sol",
  "abi": [
    {
      "inputs": [
        {
          "internalType": "address",
          "name": "_checkpointManager",
          "type": "address"
        },
        {
          "internalType": "address",
          "name": "_fxRoot",
          "type": "address"
        },
        {
          "internalType": "address",
          "name": "_rootTokenTemplate",
          "type": "address"
        }
      ],
      "stateMutability": "nonpayable",
      "type": "constructor"
    },
    {
      "inputs": [],
      "name": "DEPOSIT",
      "outputs": [
        {
          "internalType": "bytes32",
          "name": "",
          "type": "bytes32"
        }
      ],
      "stateMutability": "view",
      "type": "function"
    },
    {
      "inputs": [],
      "name": "SEND_MESSAGE_EVENT_SIG",
      "outputs": [
        {
          "internalType": "bytes32",
          "name": "",
          "type": "bytes32"
        }
      ],
      "stateMutability": "view",
      "type": "function"
    },
    {
      "inputs": [],
      "name": "checkpointManager",
      "outputs": [
        {
          "internalType": "contract ICheckpointManager",
          "name": "",
          "type": "address"
        }
      ],
      "stateMutability": "view",
      "type": "function"
    },
    {
      "inputs": [],
      "name": "childTokenTemplateCodeHash",
      "outputs": [
        {
          "internalType": "bytes32",
          "name": "",
          "type": "bytes32"
        }
      ],
      "stateMutability": "view",
      "type": "function"
    },
    {
      "inputs": [
        {
          "internalType": "bytes32",
          "name": "salt",
          "type": "bytes32"
        },
        {
          "internalType": "bytes32",
          "name": "bytecodeHash",
          "type": "bytes32"
        },
        {
          "internalType": "address",
          "name": "deployer",
          "type": "address"
        }
      ],
      "name": "computedCreate2Address",
      "outputs": [
        {
          "internalType": "address",
          "name": "",
          "type": "address"
        }
      ],
      "stateMutability": "pure",
      "type": "function"
    },
    {
      "inputs": [
        {
          "internalType": "address",
          "name": "rootToken",
          "type": "address"
        },
        {
          "internalType": "address",
          "name": "user",
          "type": "address"
        },
        {
          "internalType": "uint256",
          "name": "amount",
          "type": "uint256"
        },
        {
          "internalType": "bytes",
          "name": "data",
          "type": "bytes"
        }
      ],
      "name": "deposit",
      "outputs": [],
      "stateMutability": "nonpayable",
      "type": "function"
    },
    {
      "inputs": [],
      "name": "fxChildTunnel",
      "outputs": [
        {
          "internalType": "address",
          "name": "",
          "type": "address"
        }
      ],
      "stateMutability": "view",
      "type": "function"
    },
    {
      "inputs": [],
      "name": "fxRoot",
      "outputs": [
        {
          "internalType": "contract IFxStateSender",
          "name": "",
          "type": "address"
        }
      ],
      "stateMutability": "view",
      "type": "function"
    },
    {
      "inputs": [
        {
          "internalType": "bytes32",
          "name": "",
          "type": "bytes32"
        }
      ],
      "name": "processedExits",
      "outputs": [
        {
          "internalType": "bool",
          "name": "",
          "type": "bool"
        }
      ],
      "stateMutability": "view",
      "type": "function"
    },
    {
      "inputs": [
        {
          "internalType": "bytes",
          "name": "inputData",
          "type": "bytes"
        }
      ],
      "name": "receiveMessage",
      "outputs": [],
      "stateMutability": "nonpayable",
      "type": "function"
    },
    {
      "inputs": [
        {
          "internalType": "address",
          "name": "",
          "type": "address"
        }
      ],
      "name": "rootToChildTokens",
      "outputs": [
        {
          "internalType": "address",
          "name": "",
          "type": "address"
        }
      ],
      "stateMutability": "view",
      "type": "function"
    },
    {
      "inputs": [],
      "name": "rootTokenTemplate",
      "outputs": [
        {
          "internalType": "address",
          "name": "",
          "type": "address"
        }
      ],
      "stateMutability": "view",
      "type": "function"
    },
    {
      "inputs": [
        {
          "internalType": "address",
          "name": "_fxChildTunnel",
          "type": "address"
        }
      ],
      "name": "setFxChildTunnel",
      "outputs": [],
      "stateMutability": "nonpayable",
      "type": "function"
    }
  ],
  "bytecode": "0x60806040523480156200001157600080fd5b5060405162002ff238038062002ff2833981016040819052620000349162000094565b600180546001600160a01b039485166001600160a01b031991821617909155600080549385169382169390931790925560058054919093169116179055620000de565b80516001600160a01b03811681146200008f57600080fd5b919050565b600080600060608486031215620000aa57600080fd5b620000b58462000077565b9250620000c56020850162000077565b9150620000d56040850162000077565b90509250925092565b612f0480620000ee6000396000f3fe608060405234801561001057600080fd5b50600436106100df5760003560e01c8063972c49281161008c578063d81c8e5211610066578063d81c8e521461023d578063de9b771f14610264578063e9c670ad14610284578063f953cec71461029757600080fd5b8063972c4928146101e8578063aea4e49e14610208578063c0857ba01461021d57600080fd5b806369914b3e116100bd57806369914b3e146101965780637337957f1461019f57806388e70068146101b257600080fd5b80630e387de6146100e45780634ddf62561461011e578063607f2d4214610163575b600080fd5b61010b7f8c5261668696ce22758910d05bab8f186d6eb247ceac2af2e82c7dc17669b03681565b6040519081526020015b60405180910390f35b60055461013e9073ffffffffffffffffffffffffffffffffffffffff1681565b60405173ffffffffffffffffffffffffffffffffffffffff9091168152602001610115565b610186610171366004612800565b60036020526000908152604090205460ff1681565b6040519015158152602001610115565b61010b60065481565b61013e6101ad366004612819565b6102aa565b61013e6101c03660046126d3565b60046020526000908152604090205473ffffffffffffffffffffffffffffffffffffffff1681565b60025461013e9073ffffffffffffffffffffffffffffffffffffffff1681565b61021b6102163660046126d3565b610332565b005b60015461013e9073ffffffffffffffffffffffffffffffffffffffff1681565b61010b7f87a7811f4bfedea3d341ad165680ae306b01aaeacc205d227629cf157dd9f82181565b60005461013e9073ffffffffffffffffffffffffffffffffffffffff1681565b61021b610292366004612772565b61040a565b61021b6102a536600461289f565b610541565b604080517fff00000000000000000000000000000000000000000000000000000000000000602080830191909152606084901b7fffffffffffffffffffffffffffffffffffffffff00000000000000000000000016602183015260358201869052605580830186905283518084039091018152607590920190925280519101205b9392505050565b60025473ffffffffffffffffffffffffffffffffffffffff16156103c35760405162461bcd60e51b815260206004820152602a60248201527f467842617365526f6f7454756e6e656c3a204348494c445f54554e4e454c5f4160448201527f4c52454144595f5345540000000000000000000000000000000000000000000060648201526084015b60405180910390fd5b600280547fffffffffffffffffffffffff00000000000000000000000000000000000000001673ffffffffffffffffffffffffffffffffffffffff92909216919091179055565b73ffffffffffffffffffffffffffffffffffffffff848116600090815260046020526040902054166104a45760405162461bcd60e51b815260206004820152602b60248201527f46784d696e7461626c654552433230526f6f7454756e6e656c3a204e4f5f4d4160448201527f5050494e475f464f554e4400000000000000000000000000000000000000000060648201526084016103ba565b6104c673ffffffffffffffffffffffffffffffffffffffff851633308561055b565b60007f87a7811f4bfedea3d341ad165680ae306b01aaeacc205d227629cf157dd9f8218533868686604051602001610502959493929190612a0a565b60408051601f19818403018152908290526105209291602001612ae1565b604051602081830303815290604052905061053a816105f6565b5050505050565b600061054c82610680565b9050610557816109dc565b5050565b6040805173ffffffffffffffffffffffffffffffffffffffff85811660248301528416604482015260648082018490528251808303909101815260849091019091526020810180517bffffffffffffffffffffffffffffffffffffffffffffffffffffffff167f23b872dd000000000000000000000000000000000000000000000000000000001790526105f0908590610de8565b50505050565b6000546002546040517fb472047700000000000000000000000000000000000000000000000000000000815273ffffffffffffffffffffffffffffffffffffffff9283169263b472047792610652929116908590600401612ab2565b600060405180830381600087803b15801561066c57600080fd5b505af115801561053a573d6000803e3d6000fd5b6060600061068d83610edf565b9050600061069a82610f3e565b905060006106a783610f6d565b90506000816106b584610f96565b6106be86611184565b6040516020016106d0939291906129dd565b60408051601f1981840301815291815281516020928301206000818152600390935291205490915060ff161561076d5760405162461bcd60e51b8152602060048201526024808201527f4678526f6f7454756e6e656c3a20455849545f414c52454144595f50524f434560448201527f535345440000000000000000000000000000000000000000000000000000000060648201526084016103ba565b600081815260036020526040812080547fffffffffffffffffffffffffffffffffffffffffffffffffffffffffffffff001660011790556107ad856111a0565b905060006107ba826112ea565b90506107c58161137a565b60025473ffffffffffffffffffffffffffffffffffffffff9081169116146108555760405162461bcd60e51b815260206004820152602560248201527f4678526f6f7454756e6e656c3a20494e56414c49445f46585f4348494c445f5460448201527f554e4e454c00000000000000000000000000000000000000000000000000000060648201526084016103ba565b6000610860876113a3565b9050610880610870846020015190565b8761087a8a6113bf565b846113db565b6108f25760405162461bcd60e51b815260206004820152602360248201527f4678526f6f7454756e6e656c3a20494e56414c49445f524543454950545f505260448201527f4f4f46000000000000000000000000000000000000000000000000000000000060648201526084016103ba565b610920856108ff89611692565b6109088a6116ae565b846109128c6116ca565b61091b8d6116e6565b611702565b50600061092c8361185d565b90507f8c5261668696ce22758910d05bab8f186d6eb247ceac2af2e82c7dc17669b03661096261095d836000611899565b6118d1565b146109af5760405162461bcd60e51b815260206004820152601f60248201527f4678526f6f7454756e6e656c3a20494e56414c49445f5349474e41545552450060448201526064016103ba565b60006109ba8461194c565b8060200190518101906109cd91906128d4565b9b9a5050505050505050505050565b6000806000806000858060200190518101906109f891906126f0565b94509450945094509450610a138563ffffffff903b16151590565b158015610a45575073ffffffffffffffffffffffffffffffffffffffff85811660009081526004602052604090205416155b15610b1f57600080600083806020019051810190610a639190612909565b9250925092506000610a7788858585611968565b90508873ffffffffffffffffffffffffffffffffffffffff168173ffffffffffffffffffffffffffffffffffffffff1614610b1a5760405162461bcd60e51b815260206004820152603760248201527f46784d696e7461626c654552433230526f6f7454756e6e656c3a20524f4f545f60448201527f544f4b454e5f4352454154494f4e5f4d49534d4154434800000000000000000060648201526084016103ba565b505050505b73ffffffffffffffffffffffffffffffffffffffff858116600090815260046020526040902054811690851614610bbe5760405162461bcd60e51b815260206004820152602a60248201527f46784552433230526f6f7454756e6e656c3a20494e56414c49445f4d4150504960448201527f4e475f4f4e5f455849540000000000000000000000000000000000000000000060648201526084016103ba565b6040517f70a08231000000000000000000000000000000000000000000000000000000008152306004820152859060009073ffffffffffffffffffffffffffffffffffffffff8316906370a082319060240160206040518083038186803b158015610c2857600080fd5b505afa158015610c3c573d6000803e3d6000fd5b505050506040513d601f19601f82011682018060405250810190610c60919061297c565b905083811015610d155773ffffffffffffffffffffffffffffffffffffffff82166340c10f1930610c918785611acf565b6040517fffffffff0000000000000000000000000000000000000000000000000000000060e085901b16815273ffffffffffffffffffffffffffffffffffffffff90921660048301526024820152604401600060405180830381600087803b158015610cfc57600080fd5b505af1158015610d10573d6000803e3d6000fd5b505050505b6040517f095ea7b30000000000000000000000000000000000000000000000000000000081523060048201526024810185905273ffffffffffffffffffffffffffffffffffffffff83169063095ea7b390604401602060405180830381600087803b158015610d8357600080fd5b505af1158015610d97573d6000803e3d6000fd5b505050506040513d601f19601f82011682018060405250810190610dbb91906127de565b50610dde73ffffffffffffffffffffffffffffffffffffffff881630878761055b565b5050505050505050565b6000610e4a826040518060400160405280602081526020017f5361666545524332303a206c6f772d6c6576656c2063616c6c206661696c65648152508573ffffffffffffffffffffffffffffffffffffffff16611b119092919063ffffffff16565b805190915015610eda5780806020019051810190610e6891906127de565b610eda5760405162461bcd60e51b815260206004820152602a60248201527f5361666545524332303a204552433230206f7065726174696f6e20646964206e60448201527f6f7420737563636565640000000000000000000000000000000000000000000060648201526084016103ba565b505050565b6040805160208101909152606081526000610f29610f248460408051808201825260008082526020918201528151808301909252825182529182019181019190915290565b611b20565b60408051602081019091529081529392505050565b6060610f678260000151600881518110610f5a57610f5a612e4b565b6020026020010151611c36565b92915050565b6000610f678260000151600281518110610f8957610f89612e4b565b60200260200101516118d1565b60408051602081019091526000815281516060919015610f6757600080610fbe600086611cd3565b60f81c90506001811480610fd557508060ff166003145b1561109557600185516002610fea9190612cdb565b610ff49190612d18565b67ffffffffffffffff81111561100c5761100c612e7a565b6040519080825280601f01601f191660200182016040528015611036576020820181803683370190505b5092506000611046600187611cd3565b9050808460008151811061105c5761105c612e4b565b60200101907effffffffffffffffffffffffffffffffffffffffffffffffffffffffffffff1916908160001a90535060019250506110f9565b6002855160026110a59190612cdb565b6110af9190612d18565b67ffffffffffffffff8111156110c7576110c7612e7a565b6040519080825280601f01601f1916602001820160405280156110f1576020820181803683370190505b509250600091505b60ff82165b835181101561117b5761112861111760ff851683612d18565b611122906002612b66565b87611cd3565b84828151811061113a5761113a612e4b565b60200101907effffffffffffffffffffffffffffffffffffffffffffffffffffffffffffff1916908160001a9053508061117381612d7e565b9150506110fe565b50505092915050565b6000610f678260000151600981518110610f8957610f89612e4b565b6111c460405180606001604052806060815260200160608152602001600081525090565b6111de8260000151600681518110610f5a57610f5a612e4b565b60208281018290526040805180820182526000808252908301528051808201909152825181529181019082015261121481611d54565b156112295761122281611b20565b82526112d6565b6020820151805160009061123f90600190612d18565b67ffffffffffffffff81111561125757611257612e7a565b6040519080825280601f01601f191660200182016040528015611281576020820181803683370190505b50905060008083602101915082602001905061129f82828551611d8d565b6040805180820182526000808252602091820152815180830190925284518252808501908201526112cf90611b20565b8652505050505b6112df83611184565b604083015250919050565b604080516080810182526000918101828152606080830193909352815260208101919091526000611338836000015160038151811061132b5761132b612e4b565b6020026020010151611b20565b83604001518151811061134d5761134d612e4b565b60200260200101519050604051806040016040528082815260200161137183611b20565b90529392505050565b6000610f67826020015160008151811061139657611396612e4b565b6020026020010151611e08565b6000610f678260000151600581518110610f8957610f89612e4b565b6060610f678260000151600781518110610f5a57610f5a612e4b565b60008061140f8460408051808201825260008082526020918201528151808301909252825182529182019181019190915290565b9050600061141c82611b20565b90506060808560008061142e8b610f96565b905080516000141561144a57600097505050505050505061168a565b60005b86518110156116815781518311156114705760009850505050505050505061168a565b61149287828151811061148557611485612e4b565b6020026020010151611e22565b9550858051906020012084146114b35760009850505050505050505061168a565b6114c887828151811061132b5761132b612e4b565b945084516011141561159d57815183141561152a578c805190602001206114fb86601081518110610f5a57610f5a612e4b565b8051906020012014156115195760019850505050505050505061168a565b60009850505050505050505061168a565b600082848151811061153e5761153e612e4b565b016020015160f81c90506010811115611563576000995050505050505050505061168a565b611588868260ff168151811061157b5761157b612e4b565b6020026020010151611ea2565b9450611595600185612b66565b93505061166f565b8451600214156115195760006115c96115c287600081518110610f5a57610f5a612e4b565b8486611ed0565b83519091506115d88286612b66565b141561162d578d805190602001206115fc87600181518110610f5a57610f5a612e4b565b80519060200120141561161b576001995050505050505050505061168a565b6000995050505050505050505061168a565b80611644576000995050505050505050505061168a565b61164e8185612b66565b93506116668660018151811061157b5761157b612e4b565b945061166f9050565b8061167981612d7e565b91505061144d565b50505050505050505b949350505050565b6000610f678260000151600381518110610f8957610f89612e4b565b6000610f678260000151600481518110610f8957610f89612e4b565b6000610f678260000151600081518110610f8957610f89612e4b565b6060610f678260000151600181518110610f5a57610f5a612e4b565b6001546040517f41539d4a0000000000000000000000000000000000000000000000000000000081526004810184905260009182918291829173ffffffffffffffffffffffffffffffffffffffff909116906341539d4a9060240160a06040518083038186803b15801561177557600080fd5b505afa158015611789573d6000803e3d6000fd5b505050506040513d601f19601f820116820180604052508101906117ad9190612852565b5093505092509250611804828b6117c49190612d18565b6040805160208082018f90528183018e9052606082018d905260808083018d90528351808403909101815260a09092019092528051910120908588612009565b6118505760405162461bcd60e51b815260206004820152601c60248201527f4678526f6f7454756e6e656c3a20494e56414c49445f4845414445520000000060448201526064016103ba565b9998505050505050505050565b6040805160208101909152606081526040518060200160405280611891846020015160018151811061132b5761132b612e4b565b905292915050565b604080518082019091526000808252602082015282518051839081106118c1576118c1612e4b565b6020026020010151905092915050565b8051600090158015906118e657508151602110155b6118ef57600080fd5b60006118fe836020015161217f565b905060008184600001516119129190612d18565b90506000808386602001516119279190612b66565b905080519150602083101561194357826020036101000a820491505b50949350505050565b6060610f678260200151600281518110610f5a57610f5a612e4b565b6040517fffffffffffffffffffffffffffffffffffffffff000000000000000000000000606086901b166020820152600090819060340160408051601f1981840301815291905280516020909101206005549091506000906119e190839073ffffffffffffffffffffffffffffffffffffffff166121fa565b6040517f8420ce9900000000000000000000000000000000000000000000000000000000815290915073ffffffffffffffffffffffffffffffffffffffff821690638420ce9990611a3e90309085908b908b908b90600401612a51565b600060405180830381600087803b158015611a5857600080fd5b505af1158015611a6c573d6000803e3d6000fd5b5050505073ffffffffffffffffffffffffffffffffffffffff818116600090815260046020526040902080547fffffffffffffffffffffffff00000000000000000000000000000000000000001698909116979097179096555093949350505050565b600061032b83836040518060400160405280601e81526020017f536166654d6174683a207375627472616374696f6e206f766572666c6f7700008152506122e8565b606061168a8484600085612322565b6060611b2b82611d54565b611b3457600080fd5b6000611b3f8361246e565b905060008167ffffffffffffffff811115611b5c57611b5c612e7a565b604051908082528060200260200182016040528015611ba157816020015b6040805180820190915260008082526020820152815260200190600190039081611b7a5790505b5090506000611bb3856020015161217f565b8560200151611bc29190612b66565b90506000805b84811015611c2b57611bd9836124f1565b9150604051806040016040528083815260200184815250848281518110611c0257611c02612e4b565b6020908102919091010152611c178284612b66565b925080611c2381612d7e565b915050611bc8565b509195945050505050565b8051606090611c4457600080fd5b6000611c53836020015161217f565b90506000818460000151611c679190612d18565b905060008167ffffffffffffffff811115611c8457611c84612e7a565b6040519080825280601f01601f191660200182016040528015611cae576020820181803683370190505b5090506000816020019050611943848760200151611ccc9190612b66565b82856125b3565b6000611ce0600284612db7565b15611d1a57601082611cf3600286612b7e565b81518110611d0357611d03612e4b565b0160200151611d15919060f81c612dcb565b611d4a565b601082611d28600286612b7e565b81518110611d3857611d38612e4b565b0160200151611d4a919060f81c612b92565b60f81b9392505050565b8051600090611d6557506000919050565b6020820151805160001a9060c0821015611d83575060009392505050565b5060019392505050565b80611d9757505050565b60208110611dcf5782518252611dae602084612b66565b9250611dbb602083612b66565b9150611dc8602082612d18565b9050611d97565b60006001611dde836020612d18565b611dea90610100612c15565b611df49190612d18565b935183518516941916939093179091525050565b8051600090601514611e1957600080fd5b610f67826118d1565b60606000826000015167ffffffffffffffff811115611e4357611e43612e7a565b6040519080825280601f01601f191660200182016040528015611e6d576020820181803683370190505b509050805160001415611e805792915050565b6000816020019050611e9b84602001518286600001516125b3565b5092915050565b8051600090602114611eb357600080fd5b60008083602001516001611ec79190612b66565b51949350505050565b60008080611edd86610f96565b90506000815167ffffffffffffffff811115611efb57611efb612e7a565b6040519080825280601f01601f191660200182016040528015611f25576020820181803683370190505b509050845b8251611f369087612b66565b811015611fd9576000878281518110611f5157611f51612e4b565b01602001517fff000000000000000000000000000000000000000000000000000000000000001690508083611f868985612d18565b81518110611f9657611f96612e4b565b60200101907effffffffffffffffffffffffffffffffffffffffffffffffffffffffffffff1916908160001a905350508080611fd190612d7e565b915050611f2a565b50808051906020012082805190602001201415611ff95781519250611ffe565b600092505b509095945050505050565b6000602082516120199190612db7565b156120665760405162461bcd60e51b815260206004820152601460248201527f496e76616c69642070726f6f66206c656e67746800000000000000000000000060448201526064016103ba565b6000602083516120769190612b7e565b9050612083816002612c15565b85106120d15760405162461bcd60e51b815260206004820152601560248201527f4c65616620696e64657820697320746f6f20626967000000000000000000000060448201526064016103ba565b60008660205b85518111612171578581015192506120f0600289612db7565b612125576040805160208101849052908101849052606001604051602081830303815290604052805190602001209150612152565b60408051602081018590529081018390526060016040516020818303038152906040528051906020012091505b61215d600289612b7e565b975061216a602082612b66565b90506120d7565b509094149695505050505050565b8051600090811a60808110156121985750600092915050565b60b88110806121b3575060c081108015906121b3575060f881105b156121c15750600192915050565b60c08110156121ee576121d6600160b8612d2f565b6121e39060ff1682612d18565b61032b906001612b66565b6121d6600160f8612d2f565b6000808260601b90506040517f3d602d80600a3d3981f3363d3d373d3d3d363d7300000000000000000000000081528160148201527f5af43d82803e903d91602b57fd5bf300000000000000000000000000000000006028820152846037826000f592505073ffffffffffffffffffffffffffffffffffffffff8216611e9b5760405162461bcd60e51b815260206004820152602160248201527f437265617465323a204661696c6564206f6e206d696e696d616c206465706c6f60448201527f790000000000000000000000000000000000000000000000000000000000000060648201526084016103ba565b6000818484111561230c5760405162461bcd60e51b81526004016103ba9190612afa565b5060006123198486612d18565b95945050505050565b60608247101561239a5760405162461bcd60e51b815260206004820152602660248201527f416464726573733a20696e73756666696369656e742062616c616e636520666f60448201527f722063616c6c000000000000000000000000000000000000000000000000000060648201526084016103ba565b843b6123e85760405162461bcd60e51b815260206004820152601d60248201527f416464726573733a2063616c6c20746f206e6f6e2d636f6e747261637400000060448201526064016103ba565b6000808673ffffffffffffffffffffffffffffffffffffffff16858760405161241191906129c1565b60006040518083038185875af1925050503d806000811461244e576040519150601f19603f3d011682016040523d82523d6000602084013e612453565b606091505b50915091506124638282866125ff565b979650505050505050565b805160009061247f57506000919050565b60008061248f846020015161217f565b846020015161249e9190612b66565b90506000846000015185602001516124b69190612b66565b90505b808210156124e8576124ca826124f1565b6124d49083612b66565b9150826124e081612d7e565b9350506124b9565b50909392505050565b80516000908190811a608081101561250c5760019150611e9b565b60b881101561253257612520608082612d18565b61252b906001612b66565b9150611e9b565b60c081101561255f5760b78103600185019450806020036101000a85510460018201810193505050611e9b565b60f88110156125735761252060c082612d18565b60019390930151602084900360f7016101000a90049092017fffffffffffffffffffffffffffffffffffffffffffffffffffffffffffffff0a0192915050565b806125bd57505050565b602081106125f557825182526125d4602084612b66565b92506125e1602083612b66565b91506125ee602082612d18565b90506125bd565b80611dcf57505050565b6060831561260e57508161032b565b82511561261e5782518084602001fd5b8160405162461bcd60e51b81526004016103ba9190612afa565b600082601f83011261264957600080fd5b813561265c61265782612b3e565b612b0d565b81815284602083860101111561267157600080fd5b816020850160208301376000918101602001919091529392505050565b600082601f83011261269f57600080fd5b81516126ad61265782612b3e565b8181528460208386010111156126c257600080fd5b61168a826020830160208701612d52565b6000602082840312156126e557600080fd5b813561032b81612ea9565b600080600080600060a0868803121561270857600080fd5b855161271381612ea9565b602087015190955061272481612ea9565b604087015190945061273581612ea9565b60608701516080880151919450925067ffffffffffffffff81111561275957600080fd5b6127658882890161268e565b9150509295509295909350565b6000806000806080858703121561278857600080fd5b843561279381612ea9565b935060208501356127a381612ea9565b925060408501359150606085013567ffffffffffffffff8111156127c657600080fd5b6127d287828801612638565b91505092959194509250565b6000602082840312156127f057600080fd5b8151801515811461032b57600080fd5b60006020828403121561281257600080fd5b5035919050565b60008060006060848603121561282e57600080fd5b8335925060208401359150604084013561284781612ea9565b809150509250925092565b600080600080600060a0868803121561286a57600080fd5b85519450602086015193506040860151925060608601519150608086015161289181612ea9565b809150509295509295909350565b6000602082840312156128b157600080fd5b813567ffffffffffffffff8111156128c857600080fd5b61168a84828501612638565b6000602082840312156128e657600080fd5b815167ffffffffffffffff8111156128fd57600080fd5b61168a8482850161268e565b60008060006060848603121561291e57600080fd5b835167ffffffffffffffff8082111561293657600080fd5b6129428783880161268e565b9450602086015191508082111561295857600080fd5b506129658682870161268e565b925050604084015160ff8116811461284757600080fd5b60006020828403121561298e57600080fd5b5051919050565b600081518084526129ad816020860160208601612d52565b601f01601f19169290920160200192915050565b600082516129d3818460208701612d52565b9190910192915050565b838152600083516129f5816020850160208801612d52565b60209201918201929092526040019392505050565b600073ffffffffffffffffffffffffffffffffffffffff8088168352808716602084015280861660408401525083606083015260a0608083015261246360a0830184612995565b600073ffffffffffffffffffffffffffffffffffffffff808816835280871660208401525060a06040830152612a8a60a0830186612995565b8281036060840152612a9c8186612995565b91505060ff831660808301529695505050505050565b73ffffffffffffffffffffffffffffffffffffffff8316815260406020820152600061168a6040830184612995565b82815260406020820152600061168a6040830184612995565b60208152600061032b6020830184612995565b604051601f8201601f1916810167ffffffffffffffff81118282101715612b3657612b36612e7a565b604052919050565b600067ffffffffffffffff821115612b5857612b58612e7a565b50601f01601f191660200190565b60008219821115612b7957612b79612ded565b500190565b600082612b8d57612b8d612e1c565b500490565b600060ff831680612ba557612ba5612e1c565b8060ff84160491505092915050565b600181815b80851115612c0d57817fffffffffffffffffffffffffffffffffffffffffffffffffffffffffffffffff04821115612bf357612bf3612ded565b80851615612c0057918102915b93841c9390800290612bb9565b509250929050565b600061032b8383600082612c2b57506001610f67565b81612c3857506000610f67565b8160018114612c4e5760028114612c5857612c74565b6001915050610f67565b60ff841115612c6957612c69612ded565b50506001821b610f67565b5060208310610133831016604e8410600b8410161715612c97575081810a610f67565b612ca18383612bb4565b807fffffffffffffffffffffffffffffffffffffffffffffffffffffffffffffffff04821115612cd357612cd3612ded565b029392505050565b6000817fffffffffffffffffffffffffffffffffffffffffffffffffffffffffffffffff0483118215151615612d1357612d13612ded565b500290565b600082821015612d2a57612d2a612ded565b500390565b600060ff821660ff841680821015612d4957612d49612ded565b90039392505050565b60005b83811015612d6d578181015183820152602001612d55565b838111156105f05750506000910152565b60007fffffffffffffffffffffffffffffffffffffffffffffffffffffffffffffffff821415612db057612db0612ded565b5060010190565b600082612dc657612dc6612e1c565b500690565b600060ff831680612dde57612dde612e1c565b8060ff84160691505092915050565b7f4e487b7100000000000000000000000000000000000000000000000000000000600052601160045260246000fd5b7f4e487b7100000000000000000000000000000000000000000000000000000000600052601260045260246000fd5b7f4e487b7100000000000000000000000000000000000000000000000000000000600052603260045260246000fd5b7f4e487b7100000000000000000000000000000000000000000000000000000000600052604160045260246000fd5b73ffffffffffffffffffffffffffffffffffffffff81168114612ecb57600080fd5b5056fea2646970667358221220ace0a355e0d8fb8913b48c6c7acdb62fdf63e12fa0b78801b15da2fd158af33b64736f6c63430008070033",
  "linkReferences": {},
  "deployedLinkReferences": {}
}