{
  "_format": "hh-sol-artifact-1",
  "contractName": "FxERC20ChildTunnel",
  "sourceName": "contracts/examples/erc20-transfer/FxERC20ChildTunnel.sol",
  "abi": [
    {
      "inputs": [
        {
          "internalType": "address",
          "name": "_fxChild",
          "type": "address"
        },
        {
          "internalType": "address",
          "name": "_tokenTemplate",
          "type": "address"
        }
      ],
      "stateMutability": "nonpayable",
      "type": "constructor"
    },
    {
      "anonymous": false,
      "inputs": [
        {
          "indexed": false,
          "internalType": "bytes",
          "name": "message",
          "type": "bytes"
        }
      ],
      "name": "MessageSent",
      "type": "event"
    },
    {
      "anonymous": false,
      "inputs": [
        {
          "indexed": true,
          "internalType": "address",
          "name": "rootToken",
          "type": "address"
        },
        {
          "indexed": true,
          "internalType": "address",
          "name": "childToken",
          "type": "address"
        }
      ],
      "name": "TokenMapped",
      "type": "event"
    },
    {
      "inputs": [],
      "name": "DEPOSIT",
      "outputs": [
        {
          "internalType": "bytes32",
          "name": "",
          "type": "bytes32"
        }
      ],
      "stateMutability": "view",
      "type": "function"
    },
    {
      "inputs": [],
      "name": "MAP_TOKEN",
      "outputs": [
        {
          "internalType": "bytes32",
          "name": "",
          "type": "bytes32"
        }
      ],
      "stateMutability": "view",
      "type": "function"
    },
    {
      "inputs": [],
      "name": "PREFIX_SYMBOL",
      "outputs": [
        {
          "internalType": "string",
          "name": "",
          "type": "string"
        }
      ],
      "stateMutability": "view",
      "type": "function"
    },
    {
      "inputs": [],
      "name": "SUFFIX_NAME",
      "outputs": [
        {
          "internalType": "string",
          "name": "",
          "type": "string"
        }
      ],
      "stateMutability": "view",
      "type": "function"
    },
    {
      "inputs": [
        {
          "internalType": "bytes32",
          "name": "salt",
          "type": "bytes32"
        },
        {
          "internalType": "bytes32",
          "name": "bytecodeHash",
          "type": "bytes32"
        },
        {
          "internalType": "address",
          "name": "deployer",
          "type": "address"
        }
      ],
      "name": "computedCreate2Address",
      "outputs": [
        {
          "internalType": "address",
          "name": "",
          "type": "address"
        }
      ],
      "stateMutability": "pure",
      "type": "function"
    },
    {
      "inputs": [],
      "name": "fxChild",
      "outputs": [
        {
          "internalType": "address",
          "name": "",
          "type": "address"
        }
      ],
      "stateMutability": "view",
      "type": "function"
    },
    {
      "inputs": [],
      "name": "fxRootTunnel",
      "outputs": [
        {
          "internalType": "address",
          "name": "",
          "type": "address"
        }
      ],
      "stateMutability": "view",
      "type": "function"
    },
    {
      "inputs": [
        {
          "internalType": "uint256",
          "name": "stateId",
          "type": "uint256"
        },
        {
          "internalType": "address",
          "name": "rootMessageSender",
          "type": "address"
        },
        {
          "internalType": "bytes",
          "name": "data",
          "type": "bytes"
        }
      ],
      "name": "processMessageFromRoot",
      "outputs": [],
      "stateMutability": "nonpayable",
      "type": "function"
    },
    {
      "inputs": [
        {
          "internalType": "address",
          "name": "",
          "type": "address"
        }
      ],
      "name": "rootToChildToken",
      "outputs": [
        {
          "internalType": "address",
          "name": "",
          "type": "address"
        }
      ],
      "stateMutability": "view",
      "type": "function"
    },
    {
      "inputs": [
        {
          "internalType": "address",
          "name": "_fxRootTunnel",
          "type": "address"
        }
      ],
      "name": "setFxRootTunnel",
      "outputs": [],
      "stateMutability": "nonpayable",
      "type": "function"
    },
    {
      "inputs": [],
      "name": "tokenTemplate",
      "outputs": [
        {
          "internalType": "address",
          "name": "",
          "type": "address"
        }
      ],
      "stateMutability": "view",
      "type": "function"
    },
    {
      "inputs": [
        {
          "internalType": "address",
          "name": "childToken",
          "type": "address"
        },
        {
          "internalType": "uint256",
          "name": "amount",
          "type": "uint256"
        }
      ],
      "name": "withdraw",
      "outputs": [],
      "stateMutability": "nonpayable",
      "type": "function"
    }
  ],
  "bytecode": "0x60806040523480156200001157600080fd5b506040516200153b3803806200153b8339810160408190526200003491620000eb565b600080546001600160a01b038085166001600160a01b031992831617909255600380549284169290911691909117905562000075813b63ffffffff16151590565b620000c65760405162461bcd60e51b815260206004820152601e60248201527f546f6b656e2074656d706c617465206973206e6f7420636f6e74726163740000604482015260640160405180910390fd5b505062000123565b80516001600160a01b0381168114620000e657600080fd5b919050565b60008060408385031215620000ff57600080fd5b6200010a83620000ce565b91506200011a60208401620000ce565b90509250929050565b61140880620001336000396000f3fe608060405234801561001057600080fd5b50600436106100d45760003560e01c8063886a69ba11610081578063d81c8e521161005b578063d81c8e52146102b3578063ea60c7c4146102da578063f3fef3a31461031057600080fd5b8063886a69ba14610256578063888370941461028b5780639a7c4b71146102a057600080fd5b8063450d11f0116100b2578063450d11f0146101825780637337957f146101a25780637f1e9cb01461023657600080fd5b80630814d3dd146100d95780633740d5a01461012357806339c6c9e014610146575b600080fd5b6003546100f99073ffffffffffffffffffffffffffffffffffffffff1681565b60405173ffffffffffffffffffffffffffffffffffffffff90911681526020015b60405180910390f35b6101396040518060200160405280600081525081565b60405161011a919061133f565b6101396040518060400160405280600781526020017f202843415245290000000000000000000000000000000000000000000000000081525081565b6000546100f99073ffffffffffffffffffffffffffffffffffffffff1681565b6100f96101b0366004611101565b604080517fff0000000000000000000000000000000000000000000000000000000000000060208083019190915260609390931b7fffffffffffffffffffffffffffffffffffffffff0000000000000000000000001660218201526035810194909452605580850193909352805180850390930183526075909301909252805191012090565b6001546100f99073ffffffffffffffffffffffffffffffffffffffff1681565b61027d7f2cef46a936bdc5b7e6e8c71aa04560c41cf7d88bb26901a7e7f4936ff02accad81565b60405190815260200161011a565b61029e610299366004610f82565b610323565b005b61029e6102ae366004611181565b610415565b61027d7f87a7811f4bfedea3d341ad165680ae306b01aaeacc205d227629cf157dd9f82181565b6100f96102e8366004610f82565b60026020526000908152604090205473ffffffffffffffffffffffffffffffffffffffff1681565b61029e61031e3660046110d5565b610503565b60015473ffffffffffffffffffffffffffffffffffffffff16156103ce576040517f08c379a000000000000000000000000000000000000000000000000000000000815260206004820152602a60248201527f4678426173654368696c6454756e6e656c3a20524f4f545f54554e4e454c5f4160448201527f4c52454144595f5345540000000000000000000000000000000000000000000060648201526084015b60405180910390fd5b600180547fffffffffffffffffffffffff00000000000000000000000000000000000000001673ffffffffffffffffffffffffffffffffffffffff92909216919091179055565b60005473ffffffffffffffffffffffffffffffffffffffff1633146104bc576040517f08c379a000000000000000000000000000000000000000000000000000000000815260206004820152602160248201527f4678426173654368696c6454756e6e656c3a20494e56414c49445f53454e444560448201527f520000000000000000000000000000000000000000000000000000000000000060648201526084016103c5565b6104fd848484848080601f01602080910402602001604051908101604052809392919081815260200183838082843760009201919091525061076092505050565b50505050565b600082905060008173ffffffffffffffffffffffffffffffffffffffff16630a8a49146040518163ffffffff1660e01b8152600401602060405180830381600087803b15801561055257600080fd5b505af1158015610566573d6000803e3d6000fd5b505050506040513d601f19601f8201168201806040525081019061058a9190610fa6565b905073ffffffffffffffffffffffffffffffffffffffff8416158015906105c6575073ffffffffffffffffffffffffffffffffffffffff811615155b80156105fb575073ffffffffffffffffffffffffffffffffffffffff8082166000908152600260205260409020548582169116145b610687576040517f08c379a000000000000000000000000000000000000000000000000000000000815260206004820152602360248201527f467845524332304368696c6454756e6e656c3a204e4f5f4d41505045445f544f60448201527f4b454e000000000000000000000000000000000000000000000000000000000060648201526084016103c5565b6040517f9dc29fac0000000000000000000000000000000000000000000000000000000081523360048201526024810184905273ffffffffffffffffffffffffffffffffffffffff831690639dc29fac90604401600060405180830381600087803b1580156106f557600080fd5b505af1158015610709573d6000803e3d6000fd5b50506040805173ffffffffffffffffffffffffffffffffffffffff8086166020830152881691810191909152336060820152608081018690526104fd925060a0019050604051602081830303815290604052610924565b600154829073ffffffffffffffffffffffffffffffffffffffff80831691161461080c576040517f08c379a000000000000000000000000000000000000000000000000000000000815260206004820152602b60248201527f4678426173654368696c6454756e6e656c3a20494e56414c49445f53454e444560448201527f525f46524f4d5f524f4f5400000000000000000000000000000000000000000060648201526084016103c5565b60008083806020019051810190610823919061113a565b915091507f87a7811f4bfedea3d341ad165680ae306b01aaeacc205d227629cf157dd9f82182141561085d576108588161095e565b61091c565b7f2cef46a936bdc5b7e6e8c71aa04560c41cf7d88bb26901a7e7f4936ff02accad8214156108945761088e81610aec565b5061091c565b6040517f08c379a000000000000000000000000000000000000000000000000000000000815260206004820152602560248201527f467845524332304368696c6454756e6e656c3a20494e56414c49445f53594e4360448201527f5f5459504500000000000000000000000000000000000000000000000000000060648201526084016103c5565b505050505050565b7f8c5261668696ce22758910d05bab8f186d6eb247ceac2af2e82c7dc17669b03681604051610953919061133f565b60405180910390a150565b60008060008060008580602001905181019061097a9190610fc3565b73ffffffffffffffffffffffffffffffffffffffff858116600090815260026020526040908190205490517f40c10f19000000000000000000000000000000000000000000000000000000008152858316600482015260248101859052969b5094995092975090955093501690819081906340c10f1990604401600060405180830381600087803b158015610a0e57600080fd5b505af1158015610a22573d6000803e3d6000fd5b50505050843b63ffffffff1615610ae2576000621e8480905060008089858a8a8a8a604051602401610a5996959493929190611283565b604080517fffffffffffffffffffffffffffffffffffffffffffffffffffffffffffffffe08184030181529190526020810180517bffffffffffffffffffffffffffffffffffffffffffffffffffffffff167f166480c20000000000000000000000000000000000000000000000000000000017815281519192506000918291828c88f1505050505b5050505050505050565b600080600080600085806020019051810190610b089190611045565b73ffffffffffffffffffffffffffffffffffffffff8085166000908152600260205260409020549498509296509094509250168015610bc9576040517f08c379a000000000000000000000000000000000000000000000000000000000815260206004820152602260248201527f467845524332304368696c6454756e6e656c3a20414c52454144595f4d41505060448201527f454400000000000000000000000000000000000000000000000000000000000060648201526084016103c5565b60408051606087901b7fffffffffffffffffffffffffffffffffffffffff000000000000000000000000166020808301919091528251601481840301815260349092019092528051910120600354610c3890829073ffffffffffffffffffffffffffffffffffffffff16610dcd565b91508173ffffffffffffffffffffffffffffffffffffffff16638420ce993088886040518060400160405280600781526020017f2028434152452900000000000000000000000000000000000000000000000000815250604051602001610ca0929190611254565b604080517fffffffffffffffffffffffffffffffffffffffffffffffffffffffffffffffe0818403018152602083810183526000845291519092610ce89290918c9101611254565b604051602081830303815290604052886040518663ffffffff1660e01b8152600401610d189594939291906112de565b600060405180830381600087803b158015610d3257600080fd5b505af1158015610d46573d6000803e3d6000fd5b5050505073ffffffffffffffffffffffffffffffffffffffff86811660008181526002602052604080822080547fffffffffffffffffffffffff0000000000000000000000000000000000000000169487169485179055517f85920d35e6c72f6b2affffa04298b0cecfeba86e4a9f407df661f1cb8ab5e6179190a3509695505050505050565b6000808260601b90506040517f3d602d80600a3d3981f3363d3d373d3d3d363d7300000000000000000000000081528160148201527f5af43d82803e903d91602b57fd5bf300000000000000000000000000000000006028820152846037826000f592505073ffffffffffffffffffffffffffffffffffffffff8216610ed5576040517f08c379a000000000000000000000000000000000000000000000000000000000815260206004820152602160248201527f437265617465323a204661696c6564206f6e206d696e696d616c206465706c6f60448201527f790000000000000000000000000000000000000000000000000000000000000060648201526084016103c5565b5092915050565b600082601f830112610eed57600080fd5b815167ffffffffffffffff80821115610f0857610f0861137e565b604051601f83017fffffffffffffffffffffffffffffffffffffffffffffffffffffffffffffffe0908116603f01168101908282118183101715610f4e57610f4e61137e565b81604052838152866020858801011115610f6757600080fd5b610f78846020830160208901611352565b9695505050505050565b600060208284031215610f9457600080fd5b8135610f9f816113ad565b9392505050565b600060208284031215610fb857600080fd5b8151610f9f816113ad565b600080600080600060a08688031215610fdb57600080fd5b8551610fe6816113ad565b6020870151909550610ff7816113ad565b6040870151909450611008816113ad565b60608701516080880151919450925067ffffffffffffffff81111561102c57600080fd5b61103888828901610edc565b9150509295509295909350565b6000806000806080858703121561105b57600080fd5b8451611066816113ad565b602086015190945067ffffffffffffffff8082111561108457600080fd5b61109088838901610edc565b945060408701519150808211156110a657600080fd5b506110b387828801610edc565b925050606085015160ff811681146110ca57600080fd5b939692955090935050565b600080604083850312156110e857600080fd5b82356110f3816113ad565b946020939093013593505050565b60008060006060848603121561111657600080fd5b8335925060208401359150604084013561112f816113ad565b809150509250925092565b6000806040838503121561114d57600080fd5b82519150602083015167ffffffffffffffff81111561116b57600080fd5b61117785828601610edc565b9150509250929050565b6000806000806060858703121561119757600080fd5b8435935060208501356111a9816113ad565b9250604085013567ffffffffffffffff808211156111c657600080fd5b818701915087601f8301126111da57600080fd5b8135818111156111e957600080fd5b8860208285010111156111fb57600080fd5b95989497505060200194505050565b60008151808452611222816020860160208601611352565b601f017fffffffffffffffffffffffffffffffffffffffffffffffffffffffffffffffe0169290920160200192915050565b60008351611266818460208801611352565b83519083019061127a818360208801611352565b01949350505050565b600073ffffffffffffffffffffffffffffffffffffffff80891683528088166020840152808716604084015280861660608401525083608083015260c060a08301526112d260c083018461120a565b98975050505050505050565b600073ffffffffffffffffffffffffffffffffffffffff808816835280871660208401525060a0604083015261131760a083018661120a565b8281036060840152611329818661120a565b91505060ff831660808301529695505050505050565b602081526000610f9f602083018461120a565b60005b8381101561136d578181015183820152602001611355565b838111156104fd5750506000910152565b7f4e487b7100000000000000000000000000000000000000000000000000000000600052604160045260246000fd5b73ffffffffffffffffffffffffffffffffffffffff811681146113cf57600080fd5b5056fea264697066735822122055d65e48364217b3bd97f384521805d7bd50dd3edc105fbcea6f7171f985846764736f6c63430008070033",
  "linkReferences": {},
  "deployedLinkReferences": {}
}