{
  "_format": "hh-sol-artifact-1",
  "contractName": "FxStateChildTunnel",
  "sourceName": "contracts/examples/state-transfer/FxStateChildTunnel.sol",
  "abi": [
    {
      "inputs": [
        {
          "internalType": "address",
          "name": "_fxChild",
          "type": "address"
        }
      ],
      "stateMutability": "nonpayable",
      "type": "constructor"
    },
    {
      "anonymous": false,
      "inputs": [
        {
          "indexed": false,
          "internalType": "bytes",
          "name": "message",
          "type": "bytes"
        }
      ],
      "name": "MessageSent",
      "type": "event"
    },
    {
      "inputs": [],
      "name": "fxChild",
      "outputs": [
        {
          "internalType": "address",
          "name": "",
          "type": "address"
        }
      ],
      "stateMutability": "view",
      "type": "function"
    },
    {
      "inputs": [],
      "name": "fxRootTunnel",
      "outputs": [
        {
          "internalType": "address",
          "name": "",
          "type": "address"
        }
      ],
      "stateMutability": "view",
      "type": "function"
    },
    {
      "inputs": [],
      "name": "latestData",
      "outputs": [
        {
          "internalType": "bytes",
          "name": "",
          "type": "bytes"
        }
      ],
      "stateMutability": "view",
      "type": "function"
    },
    {
      "inputs": [],
      "name": "latestRootMessageSender",
      "outputs": [
        {
          "internalType": "address",
          "name": "",
          "type": "address"
        }
      ],
      "stateMutability": "view",
      "type": "function"
    },
    {
      "inputs": [],
      "name": "latestStateId",
      "outputs": [
        {
          "internalType": "uint256",
          "name": "",
          "type": "uint256"
        }
      ],
      "stateMutability": "view",
      "type": "function"
    },
    {
      "inputs": [
        {
          "internalType": "uint256",
          "name": "stateId",
          "type": "uint256"
        },
        {
          "internalType": "address",
          "name": "rootMessageSender",
          "type": "address"
        },
        {
          "internalType": "bytes",
          "name": "data",
          "type": "bytes"
        }
      ],
      "name": "processMessageFromRoot",
      "outputs": [],
      "stateMutability": "nonpayable",
      "type": "function"
    },
    {
      "inputs": [
        {
          "internalType": "bytes",
          "name": "message",
          "type": "bytes"
        }
      ],
      "name": "sendMessageToRoot",
      "outputs": [],
      "stateMutability": "nonpayable",
      "type": "function"
    },
    {
      "inputs": [
        {
          "internalType": "address",
          "name": "_fxRootTunnel",
          "type": "address"
        }
      ],
      "name": "setFxRootTunnel",
      "outputs": [],
      "stateMutability": "nonpayable",
      "type": "function"
    }
  ],
  "bytecode": "0x608060405234801561001057600080fd5b5060405161093a38038061093a83398101604081905261002f91610054565b600080546001600160a01b0319166001600160a01b0392909216919091179055610084565b60006020828403121561006657600080fd5b81516001600160a01b038116811461007d57600080fd5b9392505050565b6108a7806100936000396000f3fe608060405234801561001057600080fd5b50600436106100885760003560e01c8063888370941161005b57806388837094146101275780639a113ee21461013c5780639a7c4b711461014f578063e6a8e7451461016257600080fd5b8063142bc2ae1461008d578063450d11f0146100ab5780635a319df9146100f05780637f1e9cb014610107575b600080fd5b610095610182565b6040516100a2919061077b565b60405180910390f35b6000546100cb9073ffffffffffffffffffffffffffffffffffffffff1681565b60405173ffffffffffffffffffffffffffffffffffffffff90911681526020016100a2565b6100f960025481565b6040519081526020016100a2565b6001546100cb9073ffffffffffffffffffffffffffffffffffffffff1681565b61013a610135366004610603565b610210565b005b61013a61014a366004610625565b610302565b61013a61015d3660046106f4565b61030e565b6003546100cb9073ffffffffffffffffffffffffffffffffffffffff1681565b6004805461018f906107ee565b80601f01602080910402602001604051908101604052809291908181526020018280546101bb906107ee565b80156102085780601f106101dd57610100808354040283529160200191610208565b820191906000526020600020905b8154815290600101906020018083116101eb57829003601f168201915b505050505081565b60015473ffffffffffffffffffffffffffffffffffffffff16156102bb576040517f08c379a000000000000000000000000000000000000000000000000000000000815260206004820152602a60248201527f4678426173654368696c6454756e6e656c3a20524f4f545f54554e4e454c5f4160448201527f4c52454144595f5345540000000000000000000000000000000000000000000060648201526084015b60405180910390fd5b600180547fffffffffffffffffffffffff00000000000000000000000000000000000000001673ffffffffffffffffffffffffffffffffffffffff92909216919091179055565b61030b816103fc565b50565b60005473ffffffffffffffffffffffffffffffffffffffff1633146103b5576040517f08c379a000000000000000000000000000000000000000000000000000000000815260206004820152602160248201527f4678426173654368696c6454756e6e656c3a20494e56414c49445f53454e444560448201527f520000000000000000000000000000000000000000000000000000000000000060648201526084016102b2565b6103f6848484848080601f01602080910402602001604051908101604052809392919081815260200183838082843760009201919091525061043692505050565b50505050565b7f8c5261668696ce22758910d05bab8f186d6eb247ceac2af2e82c7dc17669b0368160405161042b919061077b565b60405180910390a150565b600154829073ffffffffffffffffffffffffffffffffffffffff8083169116146104e2576040517f08c379a000000000000000000000000000000000000000000000000000000000815260206004820152602b60248201527f4678426173654368696c6454756e6e656c3a20494e56414c49445f53454e444560448201527f525f46524f4d5f524f4f5400000000000000000000000000000000000000000060648201526084016102b2565b6002849055600380547fffffffffffffffffffffffff00000000000000000000000000000000000000001673ffffffffffffffffffffffffffffffffffffffff8516179055815161053a906004906020850190610541565b5050505050565b82805461054d906107ee565b90600052602060002090601f01602090048101928261056f57600085556105b5565b82601f1061058857805160ff19168380011785556105b5565b828001600101855582156105b5579182015b828111156105b557825182559160200191906001019061059a565b506105c19291506105c5565b5090565b5b808211156105c157600081556001016105c6565b803573ffffffffffffffffffffffffffffffffffffffff811681146105fe57600080fd5b919050565b60006020828403121561061557600080fd5b61061e826105da565b9392505050565b60006020828403121561063757600080fd5b813567ffffffffffffffff8082111561064f57600080fd5b818401915084601f83011261066357600080fd5b81358181111561067557610675610842565b604051601f82017fffffffffffffffffffffffffffffffffffffffffffffffffffffffffffffffe0908116603f011681019083821181831017156106bb576106bb610842565b816040528281528760208487010111156106d457600080fd5b826020860160208301376000928101602001929092525095945050505050565b6000806000806060858703121561070a57600080fd5b8435935061071a602086016105da565b9250604085013567ffffffffffffffff8082111561073757600080fd5b818701915087601f83011261074b57600080fd5b81358181111561075a57600080fd5b88602082850101111561076c57600080fd5b95989497505060200194505050565b600060208083528351808285015260005b818110156107a85785810183015185820160400152820161078c565b818111156107ba576000604083870101525b50601f017fffffffffffffffffffffffffffffffffffffffffffffffffffffffffffffffe016929092016040019392505050565b600181811c9082168061080257607f821691505b6020821081141561083c577f4e487b7100000000000000000000000000000000000000000000000000000000600052602260045260246000fd5b50919050565b7f4e487b7100000000000000000000000000000000000000000000000000000000600052604160045260246000fdfea26469706673582212202172ba14f9d3e809481f5b87c75535714ba9441080698f9c9150b301ce6e636164736f6c63430008070033",
  "linkReferences": {},
  "deployedLinkReferences": {}
}