{
  "_format": "hh-sol-artifact-1",
  "contractName": "FxStateRootTunnel",
  "sourceName": "contracts/examples/state-transfer/FxStateRootTunnel.sol",
  "abi": [
    {
      "inputs": [
        {
          "internalType": "address",
          "name": "_checkpointManager",
          "type": "address"
        },
        {
          "internalType": "address",
          "name": "_fxRoot",
          "type": "address"
        }
      ],
      "stateMutability": "nonpayable",
      "type": "constructor"
    },
    {
      "inputs": [],
      "name": "SEND_MESSAGE_EVENT_SIG",
      "outputs": [
        {
          "internalType": "bytes32",
          "name": "",
          "type": "bytes32"
        }
      ],
      "stateMutability": "view",
      "type": "function"
    },
    {
      "inputs": [],
      "name": "checkpointManager",
      "outputs": [
        {
          "internalType": "contract ICheckpointManager",
          "name": "",
          "type": "address"
        }
      ],
      "stateMutability": "view",
      "type": "function"
    },
    {
      "inputs": [],
      "name": "fxChildTunnel",
      "outputs": [
        {
          "internalType": "address",
          "name": "",
          "type": "address"
        }
      ],
      "stateMutability": "view",
      "type": "function"
    },
    {
      "inputs": [],
      "name": "fxRoot",
      "outputs": [
        {
          "internalType": "contract IFxStateSender",
          "name": "",
          "type": "address"
        }
      ],
      "stateMutability": "view",
      "type": "function"
    },
    {
      "inputs": [],
      "name": "latestData",
      "outputs": [
        {
          "internalType": "bytes",
          "name": "",
          "type": "bytes"
        }
      ],
      "stateMutability": "view",
      "type": "function"
    },
    {
      "inputs": [
        {
          "internalType": "bytes32",
          "name": "",
          "type": "bytes32"
        }
      ],
      "name": "processedExits",
      "outputs": [
        {
          "internalType": "bool",
          "name": "",
          "type": "bool"
        }
      ],
      "stateMutability": "view",
      "type": "function"
    },
    {
      "inputs": [
        {
          "internalType": "bytes",
          "name": "inputData",
          "type": "bytes"
        }
      ],
      "name": "receiveMessage",
      "outputs": [],
      "stateMutability": "nonpayable",
      "type": "function"
    },
    {
      "inputs": [
        {
          "internalType": "bytes",
          "name": "message",
          "type": "bytes"
        }
      ],
      "name": "sendMessageToChild",
      "outputs": [],
      "stateMutability": "nonpayable",
      "type": "function"
    },
    {
      "inputs": [
        {
          "internalType": "address",
          "name": "_fxChildTunnel",
          "type": "address"
        }
      ],
      "name": "setFxChildTunnel",
      "outputs": [],
      "stateMutability": "nonpayable",
      "type": "function"
    }
  ],
  "bytecode": "0x60806040523480156200001157600080fd5b506040516200237e3803806200237e833981016040819052620000349162000083565b600180546001600160a01b039384166001600160a01b03199182161790915560008054929093169116179055620000bb565b80516001600160a01b03811681146200007e57600080fd5b919050565b600080604083850312156200009757600080fd5b620000a28362000066565b9150620000b26020840162000066565b90509250929050565b6122b380620000cb6000396000f3fe608060405234801561001057600080fd5b50600436106100a35760003560e01c8063972c492811610076578063c0857ba01161005b578063c0857ba014610197578063de9b771f146101b7578063f953cec7146101d757600080fd5b8063972c49281461013f578063aea4e49e1461018457600080fd5b80630e387de6146100a8578063142bc2ae146100e25780634c09e6e8146100f7578063607f2d421461010c575b600080fd5b6100cf7f8c5261668696ce22758910d05bab8f186d6eb247ceac2af2e82c7dc17669b03681565b6040519081526020015b60405180910390f35b6100ea6101ea565b6040516100d99190611e1e565b61010a610105366004611c81565b610278565b005b61012f61011a366004611c1b565b60036020526000908152604090205460ff1681565b60405190151581526020016100d9565b60025461015f9073ffffffffffffffffffffffffffffffffffffffff1681565b60405173ffffffffffffffffffffffffffffffffffffffff90911681526020016100d9565b61010a610192366004611bfe565b610284565b60015461015f9073ffffffffffffffffffffffffffffffffffffffff1681565b60005461015f9073ffffffffffffffffffffffffffffffffffffffff1681565b61010a6101e5366004611c81565b610376565b600480546101f7906120e2565b80601f0160208091040260200160405190810160405280929190818152602001828054610223906120e2565b80156102705780601f1061024557610100808354040283529160200191610270565b820191906000526020600020905b81548152906001019060200180831161025357829003601f168201915b505050505081565b61028181610390565b50565b60025473ffffffffffffffffffffffffffffffffffffffff161561032f576040517f08c379a000000000000000000000000000000000000000000000000000000000815260206004820152602a60248201527f467842617365526f6f7454756e6e656c3a204348494c445f54554e4e454c5f4160448201527f4c52454144595f5345540000000000000000000000000000000000000000000060648201526084015b60405180910390fd5b600280547fffffffffffffffffffffffff00000000000000000000000000000000000000001673ffffffffffffffffffffffffffffffffffffffff92909216919091179055565b600061038182610421565b905061038c81610803565b5050565b6000546002546040517fb472047700000000000000000000000000000000000000000000000000000000815273ffffffffffffffffffffffffffffffffffffffff9283169263b4720477926103ec929116908590600401611def565b600060405180830381600087803b15801561040657600080fd5b505af115801561041a573d6000803e3d6000fd5b5050505050565b6060600061042e83610816565b9050600061043b82610875565b90506000610448836108a4565b9050600081610456846108cd565b61045f86610abb565b60405160200161047193929190611dc2565b604080517fffffffffffffffffffffffffffffffffffffffffffffffffffffffffffffffe081840301815291815281516020928301206000818152600390935291205490915060ff1615610546576040517f08c379a0000000000000000000000000000000000000000000000000000000008152602060048201526024808201527f4678526f6f7454756e6e656c3a20455849545f414c52454144595f50524f434560448201527f53534544000000000000000000000000000000000000000000000000000000006064820152608401610326565b600081815260036020526040812080547fffffffffffffffffffffffffffffffffffffffffffffffffffffffffffffff0016600117905561058685610ad7565b9050600061059382610c21565b905061059e81610cb1565b60025473ffffffffffffffffffffffffffffffffffffffff908116911614610648576040517f08c379a000000000000000000000000000000000000000000000000000000000815260206004820152602560248201527f4678526f6f7454756e6e656c3a20494e56414c49445f46585f4348494c445f5460448201527f554e4e454c0000000000000000000000000000000000000000000000000000006064820152608401610326565b600061065387610cda565b9050610673610663846020015190565b8761066d8a610cf6565b84610d12565b6106ff576040517f08c379a000000000000000000000000000000000000000000000000000000000815260206004820152602360248201527f4678526f6f7454756e6e656c3a20494e56414c49445f524543454950545f505260448201527f4f4f4600000000000000000000000000000000000000000000000000000000006064820152608401610326565b61072d8561070c89610fc9565b6107158a610fe5565b8461071f8c611001565b6107288d61101d565b611039565b506000610739836111ae565b90507f8c5261668696ce22758910d05bab8f186d6eb247ceac2af2e82c7dc17669b03661076f61076a8360006111ea565b611222565b146107d6576040517f08c379a000000000000000000000000000000000000000000000000000000000815260206004820152601f60248201527f4678526f6f7454756e6e656c3a20494e56414c49445f5349474e4154555245006044820152606401610326565b60006107e18461129d565b8060200190518101906107f49190611d01565b9b9a5050505050505050505050565b805161038c906004906020840190611b65565b604080516020810190915260608152600061086061085b8460408051808201825260008082526020918201528151808301909252825182529182019181019190915290565b6112b9565b60408051602081019091529081529392505050565b606061089e8260000151600881518110610891576108916121fd565b60200260200101516113cf565b92915050565b600061089e82600001516002815181106108c0576108c06121fd565b6020026020010151611222565b6040805160208101909152600081528151606091901561089e576000806108f560008661146c565b60f81c9050600181148061090c57508060ff166003145b156109cc57600185516002610921919061203b565b61092b9190612078565b67ffffffffffffffff8111156109435761094361222c565b6040519080825280601f01601f19166020018201604052801561096d576020820181803683370190505b509250600061097d60018761146c565b90508084600081518110610993576109936121fd565b60200101907effffffffffffffffffffffffffffffffffffffffffffffffffffffffffffff1916908160001a9053506001925050610a30565b6002855160026109dc919061203b565b6109e69190612078565b67ffffffffffffffff8111156109fe576109fe61222c565b6040519080825280601f01601f191660200182016040528015610a28576020820181803683370190505b509250600091505b60ff82165b8351811015610ab257610a5f610a4e60ff851683612078565b610a59906002611ec6565b8761146c565b848281518110610a7157610a716121fd565b60200101907effffffffffffffffffffffffffffffffffffffffffffffffffffffffffffff1916908160001a90535080610aaa81612130565b915050610a35565b50505092915050565b600061089e82600001516009815181106108c0576108c06121fd565b610afb60405180606001604052806060815260200160608152602001600081525090565b610b158260000151600681518110610891576108916121fd565b602082810182905260408051808201825260008082529083015280518082019091528251815291810190820152610b4b816114ed565b15610b6057610b59816112b9565b8252610c0d565b60208201518051600090610b7690600190612078565b67ffffffffffffffff811115610b8e57610b8e61222c565b6040519080825280601f01601f191660200182016040528015610bb8576020820181803683370190505b509050600080836021019150826020019050610bd682828551611526565b604080518082018252600080825260209182015281518083019092528451825280850190820152610c06906112b9565b8652505050505b610c1683610abb565b604083015250919050565b604080516080810182526000918101828152606080830193909352815260208101919091526000610c6f8360000151600381518110610c6257610c626121fd565b60200260200101516112b9565b836040015181518110610c8457610c846121fd565b602002602001015190506040518060400160405280828152602001610ca8836112b9565b90529392505050565b600061089e8260200151600081518110610ccd57610ccd6121fd565b60200260200101516115a1565b600061089e82600001516005815181106108c0576108c06121fd565b606061089e8260000151600781518110610891576108916121fd565b600080610d468460408051808201825260008082526020918201528151808301909252825182529182019181019190915290565b90506000610d53826112b9565b905060608085600080610d658b6108cd565b9050805160001415610d81576000975050505050505050610fc1565b60005b8651811015610fb8578151831115610da757600098505050505050505050610fc1565b610dc9878281518110610dbc57610dbc6121fd565b60200260200101516115bb565b955085805190602001208414610dea57600098505050505050505050610fc1565b610dff878281518110610c6257610c626121fd565b9450845160111415610ed4578151831415610e61578c80519060200120610e3286601081518110610891576108916121fd565b805190602001201415610e5057600198505050505050505050610fc1565b600098505050505050505050610fc1565b6000828481518110610e7557610e756121fd565b016020015160f81c90506010811115610e9a5760009950505050505050505050610fc1565b610ebf868260ff1681518110610eb257610eb26121fd565b602002602001015161163b565b9450610ecc600185611ec6565b935050610fa6565b845160021415610e50576000610f00610ef987600081518110610891576108916121fd565b8486611669565b8351909150610f0f8286611ec6565b1415610f64578d80519060200120610f3387600181518110610891576108916121fd565b805190602001201415610f525760019950505050505050505050610fc1565b60009950505050505050505050610fc1565b80610f7b5760009950505050505050505050610fc1565b610f858185611ec6565b9350610f9d86600181518110610eb257610eb26121fd565b9450610fa69050565b80610fb081612130565b915050610d84565b50505050505050505b949350505050565b600061089e82600001516003815181106108c0576108c06121fd565b600061089e82600001516004815181106108c0576108c06121fd565b600061089e82600001516000815181106108c0576108c06121fd565b606061089e8260000151600181518110610891576108916121fd565b6001546040517f41539d4a0000000000000000000000000000000000000000000000000000000081526004810184905260009182918291829173ffffffffffffffffffffffffffffffffffffffff909116906341539d4a9060240160a06040518083038186803b1580156110ac57600080fd5b505afa1580156110c0573d6000803e3d6000fd5b505050506040513d601f19601f820116820180604052508101906110e49190611c34565b509350509250925061113b828b6110fb9190612078565b6040805160208082018f90528183018e9052606082018d905260808083018d90528351808403909101815260a090920190925280519101209085886117a2565b6111a1576040517f08c379a000000000000000000000000000000000000000000000000000000000815260206004820152601c60248201527f4678526f6f7454756e6e656c3a20494e56414c49445f484541444552000000006044820152606401610326565b9998505050505050505050565b60408051602081019091526060815260405180602001604052806111e28460200151600181518110610c6257610c626121fd565b905292915050565b60408051808201909152600080825260208201528251805183908110611212576112126121fd565b6020026020010151905092915050565b80516000901580159061123757508151602110155b61124057600080fd5b600061124f836020015161194c565b905060008184600001516112639190612078565b90506000808386602001516112789190611ec6565b905080519150602083101561129457826020036101000a820491505b50949350505050565b606061089e8260200151600281518110610891576108916121fd565b60606112c4826114ed565b6112cd57600080fd5b60006112d8836119d4565b905060008167ffffffffffffffff8111156112f5576112f561222c565b60405190808252806020026020018201604052801561133a57816020015b60408051808201909152600080825260208201528152602001906001900390816113135790505b509050600061134c856020015161194c565b856020015161135b9190611ec6565b90506000805b848110156113c45761137283611a57565b915060405180604001604052808381526020018481525084828151811061139b5761139b6121fd565b60209081029190910101526113b08284611ec6565b9250806113bc81612130565b915050611361565b509195945050505050565b80516060906113dd57600080fd5b60006113ec836020015161194c565b905060008184600001516114009190612078565b905060008167ffffffffffffffff81111561141d5761141d61222c565b6040519080825280601f01601f191660200182016040528015611447576020820181803683370190505b50905060008160200190506112948487602001516114659190611ec6565b8285611b19565b6000611479600284612169565b156114b35760108261148c600286611ede565b8151811061149c5761149c6121fd565b01602001516114ae919060f81c61217d565b6114e3565b6010826114c1600286611ede565b815181106114d1576114d16121fd565b01602001516114e3919060f81c611ef2565b60f81b9392505050565b80516000906114fe57506000919050565b6020820151805160001a9060c082101561151c575060009392505050565b5060019392505050565b8061153057505050565b602081106115685782518252611547602084611ec6565b9250611554602083611ec6565b9150611561602082612078565b9050611530565b60006001611577836020612078565b61158390610100611f75565b61158d9190612078565b935183518516941916939093179091525050565b80516000906015146115b257600080fd5b61089e82611222565b60606000826000015167ffffffffffffffff8111156115dc576115dc61222c565b6040519080825280601f01601f191660200182016040528015611606576020820181803683370190505b5090508051600014156116195792915050565b60008160200190506116348460200151828660000151611b19565b5092915050565b805160009060211461164c57600080fd5b600080836020015160016116609190611ec6565b51949350505050565b60008080611676866108cd565b90506000815167ffffffffffffffff8111156116945761169461222c565b6040519080825280601f01601f1916602001820160405280156116be576020820181803683370190505b509050845b82516116cf9087611ec6565b8110156117725760008782815181106116ea576116ea6121fd565b01602001517fff00000000000000000000000000000000000000000000000000000000000000169050808361171f8985612078565b8151811061172f5761172f6121fd565b60200101907effffffffffffffffffffffffffffffffffffffffffffffffffffffffffffff1916908160001a90535050808061176a90612130565b9150506116c3565b508080519060200120828051906020012014156117925781519250611797565b600092505b509095945050505050565b6000602082516117b29190612169565b15611819576040517f08c379a000000000000000000000000000000000000000000000000000000000815260206004820152601460248201527f496e76616c69642070726f6f66206c656e6774680000000000000000000000006044820152606401610326565b6000602083516118299190611ede565b9050611836816002611f75565b851061189e576040517f08c379a000000000000000000000000000000000000000000000000000000000815260206004820152601560248201527f4c65616620696e64657820697320746f6f2062696700000000000000000000006044820152606401610326565b60008660205b8551811161193e578581015192506118bd600289612169565b6118f257604080516020810184905290810184905260600160405160208183030381529060405280519060200120915061191f565b60408051602081018590529081018390526060016040516020818303038152906040528051906020012091505b61192a600289611ede565b9750611937602082611ec6565b90506118a4565b509094149695505050505050565b8051600090811a60808110156119655750600092915050565b60b8811080611980575060c08110801590611980575060f881105b1561198e5750600192915050565b60c08110156119c2576119a3600160b861208f565b6119b09060ff1682612078565b6119bb906001611ec6565b9392505050565b6119a3600160f861208f565b50919050565b80516000906119e557506000919050565b6000806119f5846020015161194c565b8460200151611a049190611ec6565b9050600084600001518560200151611a1c9190611ec6565b90505b80821015611a4e57611a3082611a57565b611a3a9083611ec6565b915082611a4681612130565b935050611a1f565b50909392505050565b80516000908190811a6080811015611a725760019150611634565b60b8811015611a9857611a86608082612078565b611a91906001611ec6565b9150611634565b60c0811015611ac55760b78103600185019450806020036101000a85510460018201810193505050611634565b60f8811015611ad957611a8660c082612078565b60019390930151602084900360f7016101000a90049092017fffffffffffffffffffffffffffffffffffffffffffffffffffffffffffffff0a0192915050565b80611b2357505050565b60208110611b5b5782518252611b3a602084611ec6565b9250611b47602083611ec6565b9150611b54602082612078565b9050611b23565b8061156857505050565b828054611b71906120e2565b90600052602060002090601f016020900481019282611b935760008555611bd9565b82601f10611bac57805160ff1916838001178555611bd9565b82800160010185558215611bd9579182015b82811115611bd9578251825591602001919060010190611bbe565b50611be5929150611be9565b5090565b5b80821115611be55760008155600101611bea565b600060208284031215611c1057600080fd5b81356119bb8161225b565b600060208284031215611c2d57600080fd5b5035919050565b600080600080600060a08688031215611c4c57600080fd5b855194506020860151935060408601519250606086015191506080860151611c738161225b565b809150509295509295909350565b600060208284031215611c9357600080fd5b813567ffffffffffffffff811115611caa57600080fd5b8201601f81018413611cbb57600080fd5b8035611cce611cc982611e80565b611e31565b818152856020838501011115611ce357600080fd5b81602084016020830137600091810160200191909152949350505050565b600060208284031215611d1357600080fd5b815167ffffffffffffffff811115611d2a57600080fd5b8201601f81018413611d3b57600080fd5b8051611d49611cc982611e80565b818152856020838501011115611d5e57600080fd5b611d6f8260208301602086016120b2565b95945050505050565b60008151808452611d908160208601602086016120b2565b601f017fffffffffffffffffffffffffffffffffffffffffffffffffffffffffffffffe0169290920160200192915050565b83815260008351611dda8160208501602088016120b2565b60209201918201929092526040019392505050565b73ffffffffffffffffffffffffffffffffffffffff83168152604060208201526000610fc16040830184611d78565b6020815260006119bb6020830184611d78565b604051601f82017fffffffffffffffffffffffffffffffffffffffffffffffffffffffffffffffe016810167ffffffffffffffff81118282101715611e7857611e7861222c565b604052919050565b600067ffffffffffffffff821115611e9a57611e9a61222c565b50601f017fffffffffffffffffffffffffffffffffffffffffffffffffffffffffffffffe01660200190565b60008219821115611ed957611ed961219f565b500190565b600082611eed57611eed6121ce565b500490565b600060ff831680611f0557611f056121ce565b8060ff84160491505092915050565b600181815b80851115611f6d57817fffffffffffffffffffffffffffffffffffffffffffffffffffffffffffffffff04821115611f5357611f5361219f565b80851615611f6057918102915b93841c9390800290611f19565b509250929050565b60006119bb8383600082611f8b5750600161089e565b81611f985750600061089e565b8160018114611fae5760028114611fb857611fd4565b600191505061089e565b60ff841115611fc957611fc961219f565b50506001821b61089e565b5060208310610133831016604e8410600b8410161715611ff7575081810a61089e565b6120018383611f14565b807fffffffffffffffffffffffffffffffffffffffffffffffffffffffffffffffff048211156120335761203361219f565b029392505050565b6000817fffffffffffffffffffffffffffffffffffffffffffffffffffffffffffffffff04831182151516156120735761207361219f565b500290565b60008282101561208a5761208a61219f565b500390565b600060ff821660ff8416808210156120a9576120a961219f565b90039392505050565b60005b838110156120cd5781810151838201526020016120b5565b838111156120dc576000848401525b50505050565b600181811c908216806120f657607f821691505b602082108114156119ce577f4e487b7100000000000000000000000000000000000000000000000000000000600052602260045260246000fd5b60007fffffffffffffffffffffffffffffffffffffffffffffffffffffffffffffffff8214156121625761216261219f565b5060010190565b600082612178576121786121ce565b500690565b600060ff831680612190576121906121ce565b8060ff84160691505092915050565b7f4e487b7100000000000000000000000000000000000000000000000000000000600052601160045260246000fd5b7f4e487b7100000000000000000000000000000000000000000000000000000000600052601260045260246000fd5b7f4e487b7100000000000000000000000000000000000000000000000000000000600052603260045260246000fd5b7f4e487b7100000000000000000000000000000000000000000000000000000000600052604160045260246000fd5b73ffffffffffffffffffffffffffffffffffffffff8116811461028157600080fdfea26469706673582212200e8721b733044d8f2f5bb7f5544aed6dfd1e58d8e9d213bc01daddde8bb4292264736f6c63430008070033",
  "linkReferences": {},
  "deployedLinkReferences": {}
}