{
  "_format": "hh-sol-artifact-1",
  "contractName": "FxERC721ChildTunnel",
  "sourceName": "contracts/examples/erc721-transfer/FxERC721ChildTunnel.sol",
  "abi": [
    {
      "inputs": [
        {
          "internalType": "address",
          "name": "_fxChild",
          "type": "address"
        },
        {
          "internalType": "address",
          "name": "_tokenTemplate",
          "type": "address"
        }
      ],
      "stateMutability": "nonpayable",
      "type": "constructor"
    },
    {
      "anonymous": false,
      "inputs": [
        {
          "indexed": false,
          "internalType": "bytes",
          "name": "message",
          "type": "bytes"
        }
      ],
      "name": "MessageSent",
      "type": "event"
    },
    {
      "anonymous": false,
      "inputs": [
        {
          "indexed": true,
          "internalType": "address",
          "name": "rootToken",
          "type": "address"
        },
        {
          "indexed": true,
          "internalType": "address",
          "name": "childToken",
          "type": "address"
        }
      ],
      "name": "TokenMapped",
      "type": "event"
    },
    {
      "inputs": [],
      "name": "DEPOSIT",
      "outputs": [
        {
          "internalType": "bytes32",
          "name": "",
          "type": "bytes32"
        }
      ],
      "stateMutability": "view",
      "type": "function"
    },
    {
      "inputs": [],
      "name": "MAP_TOKEN",
      "outputs": [
        {
          "internalType": "bytes32",
          "name": "",
          "type": "bytes32"
        }
      ],
      "stateMutability": "view",
      "type": "function"
    },
    {
      "inputs": [],
      "name": "PREFIX_SYMBOL",
      "outputs": [
        {
          "internalType": "string",
          "name": "",
          "type": "string"
        }
      ],
      "stateMutability": "view",
      "type": "function"
    },
    {
      "inputs": [],
      "name": "SUFFIX_NAME",
      "outputs": [
        {
          "internalType": "string",
          "name": "",
          "type": "string"
        }
      ],
      "stateMutability": "view",
      "type": "function"
    },
    {
      "inputs": [
        {
          "internalType": "bytes32",
          "name": "salt",
          "type": "bytes32"
        },
        {
          "internalType": "bytes32",
          "name": "bytecodeHash",
          "type": "bytes32"
        },
        {
          "internalType": "address",
          "name": "deployer",
          "type": "address"
        }
      ],
      "name": "computedCreate2Address",
      "outputs": [
        {
          "internalType": "address",
          "name": "",
          "type": "address"
        }
      ],
      "stateMutability": "pure",
      "type": "function"
    },
    {
      "inputs": [],
      "name": "fxChild",
      "outputs": [
        {
          "internalType": "address",
          "name": "",
          "type": "address"
        }
      ],
      "stateMutability": "view",
      "type": "function"
    },
    {
      "inputs": [],
      "name": "fxRootTunnel",
      "outputs": [
        {
          "internalType": "address",
          "name": "",
          "type": "address"
        }
      ],
      "stateMutability": "view",
      "type": "function"
    },
    {
      "inputs": [
        {
          "internalType": "address",
          "name": "",
          "type": "address"
        },
        {
          "internalType": "address",
          "name": "",
          "type": "address"
        },
        {
          "internalType": "uint256",
          "name": "",
          "type": "uint256"
        },
        {
          "internalType": "bytes",
          "name": "",
          "type": "bytes"
        }
      ],
      "name": "onERC721Received",
      "outputs": [
        {
          "internalType": "bytes4",
          "name": "",
          "type": "bytes4"
        }
      ],
      "stateMutability": "pure",
      "type": "function"
    },
    {
      "inputs": [
        {
          "internalType": "uint256",
          "name": "stateId",
          "type": "uint256"
        },
        {
          "internalType": "address",
          "name": "rootMessageSender",
          "type": "address"
        },
        {
          "internalType": "bytes",
          "name": "data",
          "type": "bytes"
        }
      ],
      "name": "processMessageFromRoot",
      "outputs": [],
      "stateMutability": "nonpayable",
      "type": "function"
    },
    {
      "inputs": [
        {
          "internalType": "address",
          "name": "",
          "type": "address"
        }
      ],
      "name": "rootToChildToken",
      "outputs": [
        {
          "internalType": "address",
          "name": "",
          "type": "address"
        }
      ],
      "stateMutability": "view",
      "type": "function"
    },
    {
      "inputs": [
        {
          "internalType": "address",
          "name": "_fxRootTunnel",
          "type": "address"
        }
      ],
      "name": "setFxRootTunnel",
      "outputs": [],
      "stateMutability": "nonpayable",
      "type": "function"
    },
    {
      "inputs": [],
      "name": "tokenTemplate",
      "outputs": [
        {
          "internalType": "address",
          "name": "",
          "type": "address"
        }
      ],
      "stateMutability": "view",
      "type": "function"
    },
    {
      "inputs": [
        {
          "internalType": "address",
          "name": "childToken",
          "type": "address"
        },
        {
          "internalType": "uint256",
          "name": "tokenId",
          "type": "uint256"
        },
        {
          "internalType": "bytes",
          "name": "data",
          "type": "bytes"
        }
      ],
      "name": "withdraw",
      "outputs": [],
      "stateMutability": "nonpayable",
      "type": "function"
    }
  ],
  "bytecode": "0x60806040523480156200001157600080fd5b5060405162001711380380620017118339810160408190526200003491620000eb565b600080546001600160a01b038085166001600160a01b031992831617909255600380549284169290911691909117905562000075813b63ffffffff16151590565b620000c65760405162461bcd60e51b815260206004820152601e60248201527f546f6b656e2074656d706c617465206973206e6f7420636f6e74726163740000604482015260640160405180910390fd5b505062000123565b80516001600160a01b0381168114620000e657600080fd5b919050565b60008060408385031215620000ff57600080fd5b6200010a83620000ce565b91506200011a60208401620000ce565b90509250929050565b6115de80620001336000396000f3fe608060405234801561001057600080fd5b50600436106100df5760003560e01c80637337957f1161008c5780638883709411610066578063888370941461033a5780639a7c4b711461034d578063d81c8e5214610360578063ea60c7c41461038757600080fd5b80637337957f146102515780637f1e9cb0146102e5578063886a69ba1461030557600080fd5b80633740d5a0116100bd5780633740d5a0146101ac57806339c6c9e0146101f5578063450d11f01461023157600080fd5b80630814d3dd146100e4578063150b7a021461012e57806331f0926514610197575b600080fd5b6003546101049073ffffffffffffffffffffffffffffffffffffffff1681565b60405173ffffffffffffffffffffffffffffffffffffffff90911681526020015b60405180910390f35b61016661013c366004611146565b7f150b7a020000000000000000000000000000000000000000000000000000000095945050505050565b6040517fffffffff000000000000000000000000000000000000000000000000000000009091168152602001610125565b6101aa6101a53660046111b9565b6103bd565b005b6101e86040518060400160405280600281526020017f667800000000000000000000000000000000000000000000000000000000000081525081565b6040516101259190611480565b6101e86040518060400160405280600b81526020017f202846584552433732312900000000000000000000000000000000000000000081525081565b6000546101049073ffffffffffffffffffffffffffffffffffffffff1681565b61010461025f366004611250565b604080517fff0000000000000000000000000000000000000000000000000000000000000060208083019190915260609390931b7fffffffffffffffffffffffffffffffffffffffff0000000000000000000000001660218201526035810194909452605580850193909352805180850390930183526075909301909252805191012090565b6001546101049073ffffffffffffffffffffffffffffffffffffffff1681565b61032c7f2cef46a936bdc5b7e6e8c71aa04560c41cf7d88bb26901a7e7f4936ff02accad81565b604051908152602001610125565b6101aa61034836600461100c565b6106cf565b6101aa61035b3660046112d0565b6107bc565b61032c7f87a7811f4bfedea3d341ad165680ae306b01aaeacc205d227629cf157dd9f82181565b61010461039536600461100c565b60026020526000908152604090205473ffffffffffffffffffffffffffffffffffffffff1681565b600083905060008173ffffffffffffffffffffffffffffffffffffffff16630a8a49146040518163ffffffff1660e01b815260040160206040518083038186803b15801561040a57600080fd5b505afa15801561041e573d6000803e3d6000fd5b505050506040513d601f19601f820116820180604052508101906104429190611030565b905073ffffffffffffffffffffffffffffffffffffffff85161580159061047e575073ffffffffffffffffffffffffffffffffffffffff811615155b80156104b3575073ffffffffffffffffffffffffffffffffffffffff8082166000908152600260205260409020548682169116145b610543576040517f08c379a0000000000000000000000000000000000000000000000000000000008152602060048201526024808201527f46784552433732314368696c6454756e6e656c3a204e4f5f4d41505045445f5460448201527f4f4b454e0000000000000000000000000000000000000000000000000000000060648201526084015b60405180910390fd5b6040517f6352211e0000000000000000000000000000000000000000000000000000000081526004810185905273ffffffffffffffffffffffffffffffffffffffff831690636352211e9060240160206040518083038186803b1580156105a957600080fd5b505afa1580156105bd573d6000803e3d6000fd5b505050506040513d601f19601f820116820180604052508101906105e19190611030565b73ffffffffffffffffffffffffffffffffffffffff163373ffffffffffffffffffffffffffffffffffffffff161461061857600080fd5b6040517f42966c680000000000000000000000000000000000000000000000000000000081526004810185905273ffffffffffffffffffffffffffffffffffffffff8316906342966c6890602401600060405180830381600087803b15801561068057600080fd5b505af1158015610694573d6000803e3d6000fd5b505050506106c881863387876040516020016106b49594939291906113a5565b6040516020818303038152906040526108aa565b5050505050565b60015473ffffffffffffffffffffffffffffffffffffffff1615610775576040517f08c379a000000000000000000000000000000000000000000000000000000000815260206004820152602a60248201527f4678426173654368696c6454756e6e656c3a20524f4f545f54554e4e454c5f4160448201527f4c52454144595f53455400000000000000000000000000000000000000000000606482015260840161053a565b600180547fffffffffffffffffffffffff00000000000000000000000000000000000000001673ffffffffffffffffffffffffffffffffffffffff92909216919091179055565b60005473ffffffffffffffffffffffffffffffffffffffff163314610863576040517f08c379a000000000000000000000000000000000000000000000000000000000815260206004820152602160248201527f4678426173654368696c6454756e6e656c3a20494e56414c49445f53454e444560448201527f5200000000000000000000000000000000000000000000000000000000000000606482015260840161053a565b6108a4848484848080601f0160208091040260200160405190810160405280939291908181526020018383808284376000920191909152506108e492505050565b50505050565b7f8c5261668696ce22758910d05bab8f186d6eb247ceac2af2e82c7dc17669b036816040516108d99190611480565b60405180910390a150565b600154829073ffffffffffffffffffffffffffffffffffffffff808316911614610990576040517f08c379a000000000000000000000000000000000000000000000000000000000815260206004820152602b60248201527f4678426173654368696c6454756e6e656c3a20494e56414c49445f53454e444560448201527f525f46524f4d5f524f4f54000000000000000000000000000000000000000000606482015260840161053a565b600080838060200190518101906109a79190611289565b915091507f87a7811f4bfedea3d341ad165680ae306b01aaeacc205d227629cf157dd9f8218214156109e1576109dc81610aa8565b610aa0565b7f2cef46a936bdc5b7e6e8c71aa04560c41cf7d88bb26901a7e7f4936ff02accad821415610a1857610a1281610b7a565b50610aa0565b6040517f08c379a000000000000000000000000000000000000000000000000000000000815260206004820152602660248201527f46784552433732314368696c6454756e6e656c3a20494e56414c49445f53594e60448201527f435f545950450000000000000000000000000000000000000000000000000000606482015260840161053a565b505050505050565b600080600080600085806020019051810190610ac4919061104d565b73ffffffffffffffffffffffffffffffffffffffff808616600090815260026020526040908190205490517f94d008ef000000000000000000000000000000000000000000000000000000008152969b5094995092975090955093501690819081906394d008ef90610b3e90889088908890600401611442565b600060405180830381600087803b158015610b5857600080fd5b505af1158015610b6c573d6000803e3d6000fd5b505050505050505050505050565b60008060008084806020019051810190610b9491906110cf565b73ffffffffffffffffffffffffffffffffffffffff8084166000908152600260205260409020549396509194509250168015610c52576040517f08c379a000000000000000000000000000000000000000000000000000000000815260206004820152602360248201527f46784552433732314368696c6454756e6e656c3a20414c52454144595f4d415060448201527f5045440000000000000000000000000000000000000000000000000000000000606482015260840161053a565b60408051606086901b7fffffffffffffffffffffffffffffffffffffffff000000000000000000000000166020808301919091528251601481840301815260349092019092528051910120600354610cc190829073ffffffffffffffffffffffffffffffffffffffff16610e62565b91508173ffffffffffffffffffffffffffffffffffffffff16632016a0d23087876040518060400160405280600b81526020017f2028465845524337323129000000000000000000000000000000000000000000815250604051602001610d29929190611376565b6040516020818303038152906040526040518060400160405280600281526020017f667800000000000000000000000000000000000000000000000000000000000081525088604051602001610d80929190611376565b6040516020818303038152906040526040518563ffffffff1660e01b8152600401610dae94939291906113f7565b600060405180830381600087803b158015610dc857600080fd5b505af1158015610ddc573d6000803e3d6000fd5b5050505073ffffffffffffffffffffffffffffffffffffffff85811660008181526002602052604080822080547fffffffffffffffffffffffff0000000000000000000000000000000000000000169487169485179055517f85920d35e6c72f6b2affffa04298b0cecfeba86e4a9f407df661f1cb8ab5e6179190a35095945050505050565b6000808260601b90506040517f3d602d80600a3d3981f3363d3d373d3d3d363d7300000000000000000000000081528160148201527f5af43d82803e903d91602b57fd5bf300000000000000000000000000000000006028820152846037826000f592505073ffffffffffffffffffffffffffffffffffffffff8216610f6a576040517f08c379a000000000000000000000000000000000000000000000000000000000815260206004820152602160248201527f437265617465323a204661696c6564206f6e206d696e696d616c206465706c6f60448201527f7900000000000000000000000000000000000000000000000000000000000000606482015260840161053a565b5092915050565b60008083601f840112610f8357600080fd5b50813567ffffffffffffffff811115610f9b57600080fd5b602083019150836020828501011115610fb357600080fd5b9250929050565b600082601f830112610fcb57600080fd5b8151610fde610fd9826114e2565b611493565b818152846020838601011115610ff357600080fd5b611004826020830160208701611528565b949350505050565b60006020828403121561101e57600080fd5b813561102981611583565b9392505050565b60006020828403121561104257600080fd5b815161102981611583565b600080600080600060a0868803121561106557600080fd5b855161107081611583565b602087015190955061108181611583565b604087015190945061109281611583565b60608701516080880151919450925067ffffffffffffffff8111156110b657600080fd5b6110c288828901610fba565b9150509295509295909350565b6000806000606084860312156110e457600080fd5b83516110ef81611583565b602085015190935067ffffffffffffffff8082111561110d57600080fd5b61111987838801610fba565b9350604086015191508082111561112f57600080fd5b5061113c86828701610fba565b9150509250925092565b60008060008060006080868803121561115e57600080fd5b853561116981611583565b9450602086013561117981611583565b935060408601359250606086013567ffffffffffffffff81111561119c57600080fd5b6111a888828901610f71565b969995985093965092949392505050565b6000806000606084860312156111ce57600080fd5b83356111d981611583565b925060208401359150604084013567ffffffffffffffff8111156111fc57600080fd5b8401601f8101861361120d57600080fd5b803561121b610fd9826114e2565b81815287602083850101111561123057600080fd5b816020840160208301376000602083830101528093505050509250925092565b60008060006060848603121561126557600080fd5b8335925060208401359150604084013561127e81611583565b809150509250925092565b6000806040838503121561129c57600080fd5b82519150602083015167ffffffffffffffff8111156112ba57600080fd5b6112c685828601610fba565b9150509250929050565b600080600080606085870312156112e657600080fd5b8435935060208501356112f881611583565b9250604085013567ffffffffffffffff81111561131457600080fd5b61132087828801610f71565b95989497509550505050565b60008151808452611344816020860160208601611528565b601f017fffffffffffffffffffffffffffffffffffffffffffffffffffffffffffffffe0169290920160200192915050565b60008351611388818460208801611528565b83519083019061139c818360208801611528565b01949350505050565b600073ffffffffffffffffffffffffffffffffffffffff8088168352808716602084015280861660408401525083606083015260a060808301526113ec60a083018461132c565b979650505050505050565b600073ffffffffffffffffffffffffffffffffffffffff808716835280861660208401525060806040830152611430608083018561132c565b82810360608401526113ec818561132c565b73ffffffffffffffffffffffffffffffffffffffff84168152826020820152606060408201526000611477606083018461132c565b95945050505050565b602081526000611029602083018461132c565b604051601f82017fffffffffffffffffffffffffffffffffffffffffffffffffffffffffffffffe016810167ffffffffffffffff811182821017156114da576114da611554565b604052919050565b600067ffffffffffffffff8211156114fc576114fc611554565b50601f017fffffffffffffffffffffffffffffffffffffffffffffffffffffffffffffffe01660200190565b60005b8381101561154357818101518382015260200161152b565b838111156108a45750506000910152565b7f4e487b7100000000000000000000000000000000000000000000000000000000600052604160045260246000fd5b73ffffffffffffffffffffffffffffffffffffffff811681146115a557600080fd5b5056fea264697066735822122024aa2f86732ea68222f9bcc570797f00b2894708c3a41c96f0a2ea52d0ba199e64736f6c63430008070033",
  "linkReferences": {},
  "deployedLinkReferences": {}
}