{
  "_format": "hh-sol-artifact-1",
  "contractName": "FxERC1155RootTunnel",
  "sourceName": "contracts/examples/erc1155-transfer/FxERC1155RootTunnel.sol",
  "abi": [
    {
      "inputs": [
        {
          "internalType": "address",
          "name": "_checkpointManager",
          "type": "address"
        },
        {
          "internalType": "address",
          "name": "_fxRoot",
          "type": "address"
        },
        {
          "internalType": "address",
          "name": "_fxERC1155Token",
          "type": "address"
        }
      ],
      "stateMutability": "nonpayable",
      "type": "constructor"
    },
    {
      "anonymous": false,
      "inputs": [
        {
          "indexed": true,
          "internalType": "address",
          "name": "rootToken",
          "type": "address"
        },
        {
          "indexed": true,
          "internalType": "address",
          "name": "userAddress",
          "type": "address"
        },
        {
          "indexed": false,
          "internalType": "uint256[]",
          "name": "ids",
          "type": "uint256[]"
        },
        {
          "indexed": false,
          "internalType": "uint256[]",
          "name": "amounts",
          "type": "uint256[]"
        }
      ],
      "name": "FxDepositBatchERC1155",
      "type": "event"
    },
    {
      "anonymous": false,
      "inputs": [
        {
          "indexed": true,
          "internalType": "address",
          "name": "rootToken",
          "type": "address"
        },
        {
          "indexed": true,
          "internalType": "address",
          "name": "depositor",
          "type": "address"
        },
        {
          "indexed": true,
          "internalType": "address",
          "name": "userAddress",
          "type": "address"
        },
        {
          "indexed": false,
          "internalType": "uint256",
          "name": "id",
          "type": "uint256"
        },
        {
          "indexed": false,
          "internalType": "uint256",
          "name": "amount",
          "type": "uint256"
        }
      ],
      "name": "FxDepositERC1155",
      "type": "event"
    },
    {
      "anonymous": false,
      "inputs": [
        {
          "indexed": true,
          "internalType": "address",
          "name": "rootToken",
          "type": "address"
        },
        {
          "indexed": true,
          "internalType": "address",
          "name": "childToken",
          "type": "address"
        },
        {
          "indexed": true,
          "internalType": "address",
          "name": "userAddress",
          "type": "address"
        },
        {
          "indexed": false,
          "internalType": "uint256[]",
          "name": "ids",
          "type": "uint256[]"
        },
        {
          "indexed": false,
          "internalType": "uint256[]",
          "name": "amounts",
          "type": "uint256[]"
        }
      ],
      "name": "FxWithdrawBatchERC1155",
      "type": "event"
    },
    {
      "anonymous": false,
      "inputs": [
        {
          "indexed": true,
          "internalType": "address",
          "name": "rootToken",
          "type": "address"
        },
        {
          "indexed": true,
          "internalType": "address",
          "name": "childToken",
          "type": "address"
        },
        {
          "indexed": true,
          "internalType": "address",
          "name": "userAddress",
          "type": "address"
        },
        {
          "indexed": false,
          "internalType": "uint256",
          "name": "id",
          "type": "uint256"
        },
        {
          "indexed": false,
          "internalType": "uint256",
          "name": "amount",
          "type": "uint256"
        }
      ],
      "name": "FxWithdrawERC1155",
      "type": "event"
    },
    {
      "anonymous": false,
      "inputs": [
        {
          "indexed": true,
          "internalType": "address",
          "name": "rootToken",
          "type": "address"
        },
        {
          "indexed": true,
          "internalType": "address",
          "name": "childToken",
          "type": "address"
        }
      ],
      "name": "TokenMappedERC1155",
      "type": "event"
    },
    {
      "inputs": [],
      "name": "DEPOSIT",
      "outputs": [
        {
          "internalType": "bytes32",
          "name": "",
          "type": "bytes32"
        }
      ],
      "stateMutability": "view",
      "type": "function"
    },
    {
      "inputs": [],
      "name": "DEPOSIT_BATCH",
      "outputs": [
        {
          "internalType": "bytes32",
          "name": "",
          "type": "bytes32"
        }
      ],
      "stateMutability": "view",
      "type": "function"
    },
    {
      "inputs": [],
      "name": "MAP_TOKEN",
      "outputs": [
        {
          "internalType": "bytes32",
          "name": "",
          "type": "bytes32"
        }
      ],
      "stateMutability": "view",
      "type": "function"
    },
    {
      "inputs": [],
      "name": "SEND_MESSAGE_EVENT_SIG",
      "outputs": [
        {
          "internalType": "bytes32",
          "name": "",
          "type": "bytes32"
        }
      ],
      "stateMutability": "view",
      "type": "function"
    },
    {
      "inputs": [],
      "name": "WITHDRAW",
      "outputs": [
        {
          "internalType": "bytes32",
          "name": "",
          "type": "bytes32"
        }
      ],
      "stateMutability": "view",
      "type": "function"
    },
    {
      "inputs": [],
      "name": "WITHDRAW_BATCH",
      "outputs": [
        {
          "internalType": "bytes32",
          "name": "",
          "type": "bytes32"
        }
      ],
      "stateMutability": "view",
      "type": "function"
    },
    {
      "inputs": [],
      "name": "checkpointManager",
      "outputs": [
        {
          "internalType": "contract ICheckpointManager",
          "name": "",
          "type": "address"
        }
      ],
      "stateMutability": "view",
      "type": "function"
    },
    {
      "inputs": [],
      "name": "childTokenTemplateCodeHash",
      "outputs": [
        {
          "internalType": "bytes32",
          "name": "",
          "type": "bytes32"
        }
      ],
      "stateMutability": "view",
      "type": "function"
    },
    {
      "inputs": [
        {
          "internalType": "bytes32",
          "name": "salt",
          "type": "bytes32"
        },
        {
          "internalType": "bytes32",
          "name": "bytecodeHash",
          "type": "bytes32"
        },
        {
          "internalType": "address",
          "name": "deployer",
          "type": "address"
        }
      ],
      "name": "computedCreate2Address",
      "outputs": [
        {
          "internalType": "address",
          "name": "",
          "type": "address"
        }
      ],
      "stateMutability": "pure",
      "type": "function"
    },
    {
      "inputs": [
        {
          "internalType": "address",
          "name": "rootToken",
          "type": "address"
        },
        {
          "internalType": "address",
          "name": "user",
          "type": "address"
        },
        {
          "internalType": "uint256",
          "name": "id",
          "type": "uint256"
        },
        {
          "internalType": "uint256",
          "name": "amount",
          "type": "uint256"
        },
        {
          "internalType": "bytes",
          "name": "data",
          "type": "bytes"
        }
      ],
      "name": "deposit",
      "outputs": [],
      "stateMutability": "nonpayable",
      "type": "function"
    },
    {
      "inputs": [
        {
          "internalType": "address",
          "name": "rootToken",
          "type": "address"
        },
        {
          "internalType": "address",
          "name": "user",
          "type": "address"
        },
        {
          "internalType": "uint256[]",
          "name": "ids",
          "type": "uint256[]"
        },
        {
          "internalType": "uint256[]",
          "name": "amounts",
          "type": "uint256[]"
        },
        {
          "internalType": "bytes",
          "name": "data",
          "type": "bytes"
        }
      ],
      "name": "depositBatch",
      "outputs": [],
      "stateMutability": "nonpayable",
      "type": "function"
    },
    {
      "inputs": [],
      "name": "fxChildTunnel",
      "outputs": [
        {
          "internalType": "address",
          "name": "",
          "type": "address"
        }
      ],
      "stateMutability": "view",
      "type": "function"
    },
    {
      "inputs": [],
      "name": "fxRoot",
      "outputs": [
        {
          "internalType": "contract IFxStateSender",
          "name": "",
          "type": "address"
        }
      ],
      "stateMutability": "view",
      "type": "function"
    },
    {
      "inputs": [
        {
          "internalType": "address",
          "name": "rootToken",
          "type": "address"
        }
      ],
      "name": "mapToken",
      "outputs": [],
      "stateMutability": "nonpayable",
      "type": "function"
    },
    {
      "inputs": [
        {
          "internalType": "address",
          "name": "",
          "type": "address"
        },
        {
          "internalType": "address",
          "name": "",
          "type": "address"
        },
        {
          "internalType": "uint256[]",
          "name": "",
          "type": "uint256[]"
        },
        {
          "internalType": "uint256[]",
          "name": "",
          "type": "uint256[]"
        },
        {
          "internalType": "bytes",
          "name": "",
          "type": "bytes"
        }
      ],
      "name": "onERC1155BatchReceived",
      "outputs": [
        {
          "internalType": "bytes4",
          "name": "",
          "type": "bytes4"
        }
      ],
      "stateMutability": "nonpayable",
      "type": "function"
    },
    {
      "inputs": [
        {
          "internalType": "address",
          "name": "",
          "type": "address"
        },
        {
          "internalType": "address",
          "name": "",
          "type": "address"
        },
        {
          "internalType": "uint256",
          "name": "",
          "type": "uint256"
        },
        {
          "internalType": "uint256",
          "name": "",
          "type": "uint256"
        },
        {
          "internalType": "bytes",
          "name": "",
          "type": "bytes"
        }
      ],
      "name": "onERC1155Received",
      "outputs": [
        {
          "internalType": "bytes4",
          "name": "",
          "type": "bytes4"
        }
      ],
      "stateMutability": "nonpayable",
      "type": "function"
    },
    {
      "inputs": [
        {
          "internalType": "bytes32",
          "name": "",
          "type": "bytes32"
        }
      ],
      "name": "processedExits",
      "outputs": [
        {
          "internalType": "bool",
          "name": "",
          "type": "bool"
        }
      ],
      "stateMutability": "view",
      "type": "function"
    },
    {
      "inputs": [
        {
          "internalType": "bytes",
          "name": "inputData",
          "type": "bytes"
        }
      ],
      "name": "receiveMessage",
      "outputs": [],
      "stateMutability": "nonpayable",
      "type": "function"
    },
    {
      "inputs": [
        {
          "internalType": "address",
          "name": "",
          "type": "address"
        }
      ],
      "name": "rootToChildTokens",
      "outputs": [
        {
          "internalType": "address",
          "name": "",
          "type": "address"
        }
      ],
      "stateMutability": "view",
      "type": "function"
    },
    {
      "inputs": [
        {
          "internalType": "address",
          "name": "_fxChildTunnel",
          "type": "address"
        }
      ],
      "name": "setFxChildTunnel",
      "outputs": [],
      "stateMutability": "nonpayable",
      "type": "function"
    },
    {
      "inputs": [
        {
          "internalType": "bytes4",
          "name": "interfaceId",
          "type": "bytes4"
        }
      ],
      "name": "supportsInterface",
      "outputs": [
        {
          "internalType": "bool",
          "name": "",
          "type": "bool"
        }
      ],
      "stateMutability": "view",
      "type": "function"
    }
  ],
  "bytecode": "0x60806040523480156200001157600080fd5b50604051620035d4380380620035d4833981016040819052620000349162000106565b600180546001600160a01b038086166001600160a01b0319928316179092556000805492851692909116919091179055620000d48160408051693d602d80600a3d3981f360b01b602082015269363d3d373d3d3d363d7360b01b602a82015260609290921b6001600160601b03191660348301526e5af43d82803e903d91602b57fd5bf360881b6048830152805160378184030181526057909201905290565b80516020909101206005555062000150915050565b80516001600160a01b03811681146200010157600080fd5b919050565b6000806000606084860312156200011c57600080fd5b6200012784620000e9565b92506200013760208501620000e9565b91506200014760408501620000e9565b90509250925092565b61347480620001606000396000f3fe608060405234801561001057600080fd5b50600436106101775760003560e01c8063aea4e49e116100d8578063d81c8e521161008c578063f23a6e6111610066578063f23a6e611461043a578063f4a120f714610472578063f953cec71461048557600080fd5b8063d81c8e52146103e0578063d911b1ac14610407578063de9b771f1461041a57600080fd5b8063b324d3ed116100bd578063b324d3ed14610330578063bc197c8114610357578063c0857ba0146103c057600080fd5b8063aea4e49e146102f6578063b2edfcd21461030957600080fd5b806371b8dc691161012f578063886a69ba11610114578063886a69ba1461027957806388e70068146102a0578063972c4928146102d657600080fd5b806371b8dc691461022c5780637337957f1461024157600080fd5b806316ba71971161016057806316ba7197146101d9578063607f2d421461020057806369914b3e1461022357600080fd5b806301ffc9a71461017c5780630e387de6146101a4575b600080fd5b61018f61018a366004612ce7565b610498565b60405190151581526020015b60405180910390f35b6101cb7f8c5261668696ce22758910d05bab8f186d6eb247ceac2af2e82c7dc17669b03681565b60405190815260200161019b565b6101cb7f7a8dc26796a1e50e6e190b70259f58f6a4edd5b22280ceecc82b687b8e98286981565b61018f61020e366004612c01565b60036020526000908152604090205460ff1681565b6101cb60055481565b61023f61023a366004612b98565b610531565b005b61025461024f366004612c1a565b6106c8565b60405173ffffffffffffffffffffffffffffffffffffffff909116815260200161019b565b6101cb7f2cef46a936bdc5b7e6e8c71aa04560c41cf7d88bb26901a7e7f4936ff02accad81565b6102546102ae36600461298d565b60046020526000908152604090205473ffffffffffffffffffffffffffffffffffffffff1681565b6002546102549073ffffffffffffffffffffffffffffffffffffffff1681565b61023f61030436600461298d565b610750565b6101cb7faf50c8eab81226bc79eee3a10e3fe25db1a2be7241130e392b0675df839b6d1881565b6101cb7f5fb452c5a8f2b7c7ef2984e2f1063c7ee9b80b110cdc98ccb98f6654e10b5ed281565b61038f610365366004612aea565b7fbc197c810000000000000000000000000000000000000000000000000000000095945050505050565b6040517fffffffff00000000000000000000000000000000000000000000000000000000909116815260200161019b565b6001546102549073ffffffffffffffffffffffffffffffffffffffff1681565b6101cb7f87a7811f4bfedea3d341ad165680ae306b01aaeacc205d227629cf157dd9f82181565b61023f610415366004612aea565b610828565b6000546102549073ffffffffffffffffffffffffffffffffffffffff1681565b61038f610448366004612b98565b7ff23a6e610000000000000000000000000000000000000000000000000000000095945050505050565b61023f61048036600461298d565b6109ce565b61023f610493366004612d29565b610c7f565b60007fffffffff0000000000000000000000000000000000000000000000000000000082167f4e2312e000000000000000000000000000000000000000000000000000000000148061052b57507f01ffc9a7000000000000000000000000000000000000000000000000000000007fffffffff000000000000000000000000000000000000000000000000000000008316145b92915050565b73ffffffffffffffffffffffffffffffffffffffff8581166000908152600460205260409020541661056657610566856109ce565b6040517ff242432a00000000000000000000000000000000000000000000000000000000815273ffffffffffffffffffffffffffffffffffffffff86169063f242432a906105c09033903090889088908890600401612f8f565b600060405180830381600087803b1580156105da57600080fd5b505af11580156105ee573d6000803e3d6000fd5b5050505060007f87a7811f4bfedea3d341ad165680ae306b01aaeacc205d227629cf157dd9f82186338787878760405160200161063096959493929190612ed7565b60408051601f198184030181529082905261064e929160200161303c565b604051602081830303815290604052905061066881610c99565b604080518581526020810185905273ffffffffffffffffffffffffffffffffffffffff808816923392918a16917fc49f632425e90293b932c7dca963f6bd4d99b8ae937d918348218fe04a4473fc910160405180910390a4505050505050565b604080517fff00000000000000000000000000000000000000000000000000000000000000602080830191909152606084901b7fffffffffffffffffffffffffffffffffffffffff00000000000000000000000016602183015260358201869052605580830186905283518084039091018152607590920190925280519101205b9392505050565b60025473ffffffffffffffffffffffffffffffffffffffff16156107e15760405162461bcd60e51b815260206004820152602a60248201527f467842617365526f6f7454756e6e656c3a204348494c445f54554e4e454c5f4160448201527f4c52454144595f5345540000000000000000000000000000000000000000000060648201526084015b60405180910390fd5b600280547fffffffffffffffffffffffff00000000000000000000000000000000000000001673ffffffffffffffffffffffffffffffffffffffff92909216919091179055565b73ffffffffffffffffffffffffffffffffffffffff8581166000908152600460205260409020541661085d5761085d856109ce565b6040517f2eb2c2d600000000000000000000000000000000000000000000000000000000815273ffffffffffffffffffffffffffffffffffffffff861690632eb2c2d6906108b79033903090889088908890600401612f30565b600060405180830381600087803b1580156108d157600080fd5b505af11580156108e5573d6000803e3d6000fd5b5050505060007faf50c8eab81226bc79eee3a10e3fe25db1a2be7241130e392b0675df839b6d1886338787878760405160200161092796959493929190612e70565b60408051601f1981840301815290829052610945929160200161303c565b604051602081830303815290604052905061095f81610c99565b8473ffffffffffffffffffffffffffffffffffffffff168673ffffffffffffffffffffffffffffffffffffffff167f180f2cab2549af46ad99517b4af733af0ae1d6c78a3a959d104af6235b1b2b1086866040516109be92919061300e565b60405180910390a3505050505050565b73ffffffffffffffffffffffffffffffffffffffff8181166000908152600460205260409020541615610a695760405162461bcd60e51b815260206004820152602360248201527f467845524331313535526f6f7454756e6e656c3a20414c52454144595f4d415060448201527f504544000000000000000000000000000000000000000000000000000000000060648201526084016107d8565b6040517f0e89341c000000000000000000000000000000000000000000000000000000008152600060048201819052829173ffffffffffffffffffffffffffffffffffffffff831690630e89341c9060240160006040518083038186803b158015610ad357600080fd5b505afa158015610ae7573d6000803e3d6000fd5b505050506040513d6000823e601f3d908101601f19168201604052610b0f9190810190612d93565b905060007f2cef46a936bdc5b7e6e8c71aa04560c41cf7d88bb26901a7e7f4936ff02accad8483604051602001610b47929190612fdf565b60408051601f1981840301815290829052610b65929160200161303c565b6040516020818303038152906040529050610b7f81610c99565b6040517fffffffffffffffffffffffffffffffffffffffff000000000000000000000000606086901b16602082015260009060340160408051601f198184030181529190528051602090910120600554600254919250600091610bf991849173ffffffffffffffffffffffffffffffffffffffff166106c8565b73ffffffffffffffffffffffffffffffffffffffff87811660008181526004602052604080822080547fffffffffffffffffffffffff000000000000000000000000000000000000000016948616948517905551939450919290917f88c3dfc0404d52a95de71a52ede9da3ebba0fc8b487e96b7ab7324ad55aa929491a3505050505050565b6000610c8a82610d2a565b9050610c9581611086565b5050565b6000546002546040517fb472047700000000000000000000000000000000000000000000000000000000815273ffffffffffffffffffffffffffffffffffffffff9283169263b472047792610cf5929116908590600401612fdf565b600060405180830381600087803b158015610d0f57600080fd5b505af1158015610d23573d6000803e3d6000fd5b5050505050565b60606000610d3783611176565b90506000610d44826111d5565b90506000610d51836111fe565b9050600081610d5f84611227565b610d6886611415565b604051602001610d7a93929190612e43565b60408051601f1981840301815291815281516020928301206000818152600390935291205490915060ff1615610e175760405162461bcd60e51b8152602060048201526024808201527f4678526f6f7454756e6e656c3a20455849545f414c52454144595f50524f434560448201527f535345440000000000000000000000000000000000000000000000000000000060648201526084016107d8565b600081815260036020526040812080547fffffffffffffffffffffffffffffffffffffffffffffffffffffffffffffff00166001179055610e5785611431565b90506000610e648261157b565b9050610e6f8161160b565b60025473ffffffffffffffffffffffffffffffffffffffff908116911614610eff5760405162461bcd60e51b815260206004820152602560248201527f4678526f6f7454756e6e656c3a20494e56414c49445f46585f4348494c445f5460448201527f554e4e454c00000000000000000000000000000000000000000000000000000060648201526084016107d8565b6000610f0a87611634565b9050610f2a610f1a846020015190565b87610f248a611650565b8461166c565b610f9c5760405162461bcd60e51b815260206004820152602360248201527f4678526f6f7454756e6e656c3a20494e56414c49445f524543454950545f505260448201527f4f4f46000000000000000000000000000000000000000000000000000000000060648201526084016107d8565b610fca85610fa989611923565b610fb28a61193f565b84610fbc8c61195b565b610fc58d611977565b611993565b506000610fd683611aee565b90507f8c5261668696ce22758910d05bab8f186d6eb247ceac2af2e82c7dc17669b03661100c611007836000611b2a565b611b62565b146110595760405162461bcd60e51b815260206004820152601f60248201527f4678526f6f7454756e6e656c3a20494e56414c49445f5349474e41545552450060448201526064016107d8565b600061106484611bdd565b8060200190518101906110779190612d5e565b9b9a5050505050505050505050565b6000808280602001905181019061109d9190612c53565b915091507f7a8dc26796a1e50e6e190b70259f58f6a4edd5b22280ceecc82b687b8e9828698214156110d7576110d281611bf9565b505050565b7f5fb452c5a8f2b7c7ef2984e2f1063c7ee9b80b110cdc98ccb98f6654e10b5ed2821415611108576110d281611de1565b60405162461bcd60e51b815260206004820152602660248201527f467845524331313535526f6f7454756e6e656c3a20494e56414c49445f53594e60448201527f435f54595045000000000000000000000000000000000000000000000000000060648201526084016107d8565b60408051602081019091526060815260006111c06111bb8460408051808201825260008082526020918201528151808301909252825182529182019181019190915290565b611faf565b60408051602081019091529081529392505050565b606061052b82600001516008815181106111f1576111f16133bb565b60200260200101516120c5565b600061052b826000015160028151811061121a5761121a6133bb565b6020026020010151611b62565b6040805160208101909152600081528151606091901561052b5760008061124f600086612162565b60f81c9050600181148061126657508060ff166003145b156113265760018551600261127b9190613247565b6112859190613284565b67ffffffffffffffff81111561129d5761129d6133ea565b6040519080825280601f01601f1916602001820160405280156112c7576020820181803683370190505b50925060006112d7600187612162565b905080846000815181106112ed576112ed6133bb565b60200101907effffffffffffffffffffffffffffffffffffffffffffffffffffffffffffff1916908160001a905350600192505061138a565b6002855160026113369190613247565b6113409190613284565b67ffffffffffffffff811115611358576113586133ea565b6040519080825280601f01601f191660200182016040528015611382576020820181803683370190505b509250600091505b60ff82165b835181101561140c576113b96113a860ff851683613284565b6113b39060026130d2565b87612162565b8482815181106113cb576113cb6133bb565b60200101907effffffffffffffffffffffffffffffffffffffffffffffffffffffffffffff1916908160001a90535080611404816132ee565b91505061138f565b50505092915050565b600061052b826000015160098151811061121a5761121a6133bb565b61145560405180606001604052806060815260200160608152602001600081525090565b61146f82600001516006815181106111f1576111f16133bb565b6020828101829052604080518082018252600080825290830152805180820190915282518152918101908201526114a5816121e3565b156114ba576114b381611faf565b8252611567565b602082015180516000906114d090600190613284565b67ffffffffffffffff8111156114e8576114e86133ea565b6040519080825280601f01601f191660200182016040528015611512576020820181803683370190505b5090506000808360210191508260200190506115308282855161221c565b60408051808201825260008082526020918201528151808301909252845182528085019082015261156090611faf565b8652505050505b61157083611415565b604083015250919050565b6040805160808101825260009181018281526060808301939093528152602081019190915260006115c983600001516003815181106115bc576115bc6133bb565b6020026020010151611faf565b8360400151815181106115de576115de6133bb565b60200260200101519050604051806040016040528082815260200161160283611faf565b90529392505050565b600061052b8260200151600081518110611627576116276133bb565b6020026020010151612297565b600061052b826000015160058151811061121a5761121a6133bb565b606061052b82600001516007815181106111f1576111f16133bb565b6000806116a08460408051808201825260008082526020918201528151808301909252825182529182019181019190915290565b905060006116ad82611faf565b9050606080856000806116bf8b611227565b90508051600014156116db57600097505050505050505061191b565b60005b86518110156119125781518311156117015760009850505050505050505061191b565b611723878281518110611716576117166133bb565b60200260200101516122b1565b9550858051906020012084146117445760009850505050505050505061191b565b6117598782815181106115bc576115bc6133bb565b945084516011141561182e5781518314156117bb578c8051906020012061178c866010815181106111f1576111f16133bb565b8051906020012014156117aa5760019850505050505050505061191b565b60009850505050505050505061191b565b60008284815181106117cf576117cf6133bb565b016020015160f81c905060108111156117f4576000995050505050505050505061191b565b611819868260ff168151811061180c5761180c6133bb565b6020026020010151612331565b94506118266001856130d2565b935050611900565b8451600214156117aa57600061185a611853876000815181106111f1576111f16133bb565b848661235f565b835190915061186982866130d2565b14156118be578d8051906020012061188d876001815181106111f1576111f16133bb565b8051906020012014156118ac576001995050505050505050505061191b565b6000995050505050505050505061191b565b806118d5576000995050505050505050505061191b565b6118df81856130d2565b93506118f78660018151811061180c5761180c6133bb565b94506119009050565b8061190a816132ee565b9150506116de565b50505050505050505b949350505050565b600061052b826000015160038151811061121a5761121a6133bb565b600061052b826000015160048151811061121a5761121a6133bb565b600061052b826000015160008151811061121a5761121a6133bb565b606061052b82600001516001815181106111f1576111f16133bb565b6001546040517f41539d4a0000000000000000000000000000000000000000000000000000000081526004810184905260009182918291829173ffffffffffffffffffffffffffffffffffffffff909116906341539d4a9060240160a06040518083038186803b158015611a0657600080fd5b505afa158015611a1a573d6000803e3d6000fd5b505050506040513d601f19601f82011682018060405250810190611a3e9190612c9a565b5093505092509250611a95828b611a559190613284565b6040805160208082018f90528183018e9052606082018d905260808083018d90528351808403909101815260a09092019092528051910120908588612498565b611ae15760405162461bcd60e51b815260206004820152601c60248201527f4678526f6f7454756e6e656c3a20494e56414c49445f4845414445520000000060448201526064016107d8565b9998505050505050505050565b6040805160208101909152606081526040518060200160405280611b2284602001516001815181106115bc576115bc6133bb565b905292915050565b60408051808201909152600080825260208201528251805183908110611b5257611b526133bb565b6020026020010151905092915050565b805160009015801590611b7757508151602110155b611b8057600080fd5b6000611b8f836020015161260e565b90506000818460000151611ba39190613284565b9050600080838660200151611bb891906130d2565b9050805191506020831015611bd457826020036101000a820491505b50949350505050565b606061052b82602001516002815181106111f1576111f16133bb565b60008060008060008086806020019051810190611c169190612a6c565b73ffffffffffffffffffffffffffffffffffffffff868116600090815260046020526040902054969c50949a5092985090965094509250868116911614611cc55760405162461bcd60e51b815260206004820152602c60248201527f467845524331313535526f6f7454756e6e656c3a20494e56414c49445f4d415060448201527f50494e475f4f4e5f45584954000000000000000000000000000000000000000060648201526084016107d8565b6040517ff242432a00000000000000000000000000000000000000000000000000000000815273ffffffffffffffffffffffffffffffffffffffff87169063f242432a90611d1f9030908890889088908890600401612f8f565b600060405180830381600087803b158015611d3957600080fd5b505af1158015611d4d573d6000803e3d6000fd5b505050508373ffffffffffffffffffffffffffffffffffffffff168573ffffffffffffffffffffffffffffffffffffffff168773ffffffffffffffffffffffffffffffffffffffff167fe270febed9e0eb6676e53763981c2e8a3d3ed693d22ed666fbef05263bbc64fc8686604051611dd0929190918252602082015260400190565b60405180910390a450505050505050565b60008060008060008086806020019051810190611dfe91906129aa565b73ffffffffffffffffffffffffffffffffffffffff868116600090815260046020526040902054969c50949a5092985090965094509250868116911614611ead5760405162461bcd60e51b815260206004820152602c60248201527f467845524331313535526f6f7454756e6e656c3a20494e56414c49445f4d415060448201527f50494e475f4f4e5f45584954000000000000000000000000000000000000000060648201526084016107d8565b6040517f2eb2c2d600000000000000000000000000000000000000000000000000000000815273ffffffffffffffffffffffffffffffffffffffff871690632eb2c2d690611f079030908890889088908890600401612f30565b600060405180830381600087803b158015611f2157600080fd5b505af1158015611f35573d6000803e3d6000fd5b505050508373ffffffffffffffffffffffffffffffffffffffff168573ffffffffffffffffffffffffffffffffffffffff168773ffffffffffffffffffffffffffffffffffffffff167fe5f2ce493d83620c2f6dbb0c56b38cc571586e0341c90d75d8bce20995faa80a8686604051611dd092919061300e565b6060611fba826121e3565b611fc357600080fd5b6000611fce83612689565b905060008167ffffffffffffffff811115611feb57611feb6133ea565b60405190808252806020026020018201604052801561203057816020015b60408051808201909152600080825260208201528152602001906001900390816120095790505b5090506000612042856020015161260e565b856020015161205191906130d2565b90506000805b848110156120ba576120688361270c565b9150604051806040016040528083815260200184815250848281518110612091576120916133bb565b60209081029190910101526120a682846130d2565b9250806120b2816132ee565b915050612057565b509195945050505050565b80516060906120d357600080fd5b60006120e2836020015161260e565b905060008184600001516120f69190613284565b905060008167ffffffffffffffff811115612113576121136133ea565b6040519080825280601f01601f19166020018201604052801561213d576020820181803683370190505b5090506000816020019050611bd484876020015161215b91906130d2565b82856127ce565b600061216f600284613327565b156121a9576010826121826002866130ea565b81518110612192576121926133bb565b01602001516121a4919060f81c61333b565b6121d9565b6010826121b76002866130ea565b815181106121c7576121c76133bb565b01602001516121d9919060f81c6130fe565b60f81b9392505050565b80516000906121f457506000919050565b6020820151805160001a9060c0821015612212575060009392505050565b5060019392505050565b8061222657505050565b6020811061225e578251825261223d6020846130d2565b925061224a6020836130d2565b9150612257602082613284565b9050612226565b6000600161226d836020613284565b61227990610100613181565b6122839190613284565b935183518516941916939093179091525050565b80516000906015146122a857600080fd5b61052b82611b62565b60606000826000015167ffffffffffffffff8111156122d2576122d26133ea565b6040519080825280601f01601f1916602001820160405280156122fc576020820181803683370190505b50905080516000141561230f5792915050565b600081602001905061232a84602001518286600001516127ce565b5092915050565b805160009060211461234257600080fd5b6000808360200151600161235691906130d2565b51949350505050565b6000808061236c86611227565b90506000815167ffffffffffffffff81111561238a5761238a6133ea565b6040519080825280601f01601f1916602001820160405280156123b4576020820181803683370190505b509050845b82516123c590876130d2565b8110156124685760008782815181106123e0576123e06133bb565b01602001517fff0000000000000000000000000000000000000000000000000000000000000016905080836124158985613284565b81518110612425576124256133bb565b60200101907effffffffffffffffffffffffffffffffffffffffffffffffffffffffffffff1916908160001a905350508080612460906132ee565b9150506123b9565b50808051906020012082805190602001201415612488578151925061248d565b600092505b509095945050505050565b6000602082516124a89190613327565b156124f55760405162461bcd60e51b815260206004820152601460248201527f496e76616c69642070726f6f66206c656e67746800000000000000000000000060448201526064016107d8565b60006020835161250591906130ea565b9050612512816002613181565b85106125605760405162461bcd60e51b815260206004820152601560248201527f4c65616620696e64657820697320746f6f20626967000000000000000000000060448201526064016107d8565b60008660205b855181116126005785810151925061257f600289613327565b6125b45760408051602081018490529081018490526060016040516020818303038152906040528051906020012091506125e1565b60408051602081018590529081018390526060016040516020818303038152906040528051906020012091505b6125ec6002896130ea565b97506125f96020826130d2565b9050612566565b509094149695505050505050565b8051600090811a60808110156126275750600092915050565b60b8811080612642575060c08110801590612642575060f881105b156126505750600192915050565b60c081101561267d57612665600160b861329b565b6126729060ff1682613284565b6107499060016130d2565b612665600160f861329b565b805160009061269a57506000919050565b6000806126aa846020015161260e565b84602001516126b991906130d2565b90506000846000015185602001516126d191906130d2565b90505b80821015612703576126e58261270c565b6126ef90836130d2565b9150826126fb816132ee565b9350506126d4565b50909392505050565b80516000908190811a6080811015612727576001915061232a565b60b881101561274d5761273b608082613284565b6127469060016130d2565b915061232a565b60c081101561277a5760b78103600185019450806020036101000a8551046001820181019350505061232a565b60f881101561278e5761273b60c082613284565b60019390930151602084900360f7016101000a90049092017fffffffffffffffffffffffffffffffffffffffffffffffffffffffffffffff0a0192915050565b806127d857505050565b6020811061281057825182526127ef6020846130d2565b92506127fc6020836130d2565b9150612809602082613284565b90506127d8565b8061225e57505050565b600061282d612828846130aa565b613055565b905082815283838301111561284157600080fd5b6107498360208301846132be565b600082601f83011261286057600080fd5b8135602061287061282883613086565b80838252828201915082860187848660051b890101111561289057600080fd5b60005b858110156128af57813584529284019290840190600101612893565b5090979650505050505050565b600082601f8301126128cd57600080fd5b815160206128dd61282883613086565b80838252828201915082860187848660051b89010111156128fd57600080fd5b60005b858110156128af57815184529284019290840190600101612900565b600082601f83011261292d57600080fd5b813561293b612828826130aa565b81815284602083860101111561295057600080fd5b816020850160208301376000918101602001919091529392505050565b600082601f83011261297e57600080fd5b6107498383516020850161281a565b60006020828403121561299f57600080fd5b813561074981613419565b60008060008060008060c087890312156129c357600080fd5b86516129ce81613419565b60208801519096506129df81613419565b60408801519095506129f081613419565b606088015190945067ffffffffffffffff80821115612a0e57600080fd5b612a1a8a838b016128bc565b94506080890151915080821115612a3057600080fd5b612a3c8a838b016128bc565b935060a0890151915080821115612a5257600080fd5b50612a5f89828a0161296d565b9150509295509295509295565b60008060008060008060c08789031215612a8557600080fd5b8651612a9081613419565b6020880151909650612aa181613419565b6040880151909550612ab281613419565b80945050606087015192506080870151915060a087015167ffffffffffffffff811115612ade57600080fd5b612a5f89828a0161296d565b600080600080600060a08688031215612b0257600080fd5b8535612b0d81613419565b94506020860135612b1d81613419565b9350604086013567ffffffffffffffff80821115612b3a57600080fd5b612b4689838a0161284f565b94506060880135915080821115612b5c57600080fd5b612b6889838a0161284f565b93506080880135915080821115612b7e57600080fd5b50612b8b8882890161291c565b9150509295509295909350565b600080600080600060a08688031215612bb057600080fd5b8535612bbb81613419565b94506020860135612bcb81613419565b93506040860135925060608601359150608086013567ffffffffffffffff811115612bf557600080fd5b612b8b8882890161291c565b600060208284031215612c1357600080fd5b5035919050565b600080600060608486031215612c2f57600080fd5b83359250602084013591506040840135612c4881613419565b809150509250925092565b60008060408385031215612c6657600080fd5b82519150602083015167ffffffffffffffff811115612c8457600080fd5b612c908582860161296d565b9150509250929050565b600080600080600060a08688031215612cb257600080fd5b855194506020860151935060408601519250606086015191506080860151612cd981613419565b809150509295509295909350565b600060208284031215612cf957600080fd5b81357fffffffff000000000000000000000000000000000000000000000000000000008116811461074957600080fd5b600060208284031215612d3b57600080fd5b813567ffffffffffffffff811115612d5257600080fd5b61191b8482850161291c565b600060208284031215612d7057600080fd5b815167ffffffffffffffff811115612d8757600080fd5b61191b8482850161296d565b600060208284031215612da557600080fd5b815167ffffffffffffffff811115612dbc57600080fd5b8201601f81018413612dcd57600080fd5b61191b8482516020840161281a565b600081518084526020808501945080840160005b83811015612e0c57815187529582019590820190600101612df0565b509495945050505050565b60008151808452612e2f8160208601602086016132be565b601f01601f19169290920160200192915050565b83815260008351612e5b8160208501602088016132be565b60209201918201929092526040019392505050565b600073ffffffffffffffffffffffffffffffffffffffff8089168352808816602084015280871660408401525060c06060830152612eb160c0830186612ddc565b8281036080840152612ec38186612ddc565b905082810360a0840152611ae18185612e17565b600073ffffffffffffffffffffffffffffffffffffffff8089168352808816602084015280871660408401525084606083015283608083015260c060a0830152612f2460c0830184612e17565b98975050505050505050565b600073ffffffffffffffffffffffffffffffffffffffff808816835280871660208401525060a06040830152612f6960a0830186612ddc565b8281036060840152612f7b8186612ddc565b90508281036080840152612f248185612e17565b600073ffffffffffffffffffffffffffffffffffffffff808816835280871660208401525084604083015283606083015260a06080830152612fd460a0830184612e17565b979650505050505050565b73ffffffffffffffffffffffffffffffffffffffff8316815260406020820152600061191b6040830184612e17565b6040815260006130216040830185612ddc565b82810360208401526130338185612ddc565b95945050505050565b82815260406020820152600061191b6040830184612e17565b604051601f8201601f1916810167ffffffffffffffff8111828210171561307e5761307e6133ea565b604052919050565b600067ffffffffffffffff8211156130a0576130a06133ea565b5060051b60200190565b600067ffffffffffffffff8211156130c4576130c46133ea565b50601f01601f191660200190565b600082198211156130e5576130e561335d565b500190565b6000826130f9576130f961338c565b500490565b600060ff8316806131115761311161338c565b8060ff84160491505092915050565b600181815b8085111561317957817fffffffffffffffffffffffffffffffffffffffffffffffffffffffffffffffff0482111561315f5761315f61335d565b8085161561316c57918102915b93841c9390800290613125565b509250929050565b600061074983836000826131975750600161052b565b816131a45750600061052b565b81600181146131ba57600281146131c4576131e0565b600191505061052b565b60ff8411156131d5576131d561335d565b50506001821b61052b565b5060208310610133831016604e8410600b8410161715613203575081810a61052b565b61320d8383613120565b807fffffffffffffffffffffffffffffffffffffffffffffffffffffffffffffffff0482111561323f5761323f61335d565b029392505050565b6000817fffffffffffffffffffffffffffffffffffffffffffffffffffffffffffffffff048311821515161561327f5761327f61335d565b500290565b6000828210156132965761329661335d565b500390565b600060ff821660ff8416808210156132b5576132b561335d565b90039392505050565b60005b838110156132d95781810151838201526020016132c1565b838111156132e8576000848401525b50505050565b60007fffffffffffffffffffffffffffffffffffffffffffffffffffffffffffffffff8214156133205761332061335d565b5060010190565b6000826133365761333661338c565b500690565b600060ff83168061334e5761334e61338c565b8060ff84160691505092915050565b7f4e487b7100000000000000000000000000000000000000000000000000000000600052601160045260246000fd5b7f4e487b7100000000000000000000000000000000000000000000000000000000600052601260045260246000fd5b7f4e487b7100000000000000000000000000000000000000000000000000000000600052603260045260246000fd5b7f4e487b7100000000000000000000000000000000000000000000000000000000600052604160045260246000fd5b73ffffffffffffffffffffffffffffffffffffffff8116811461343b57600080fd5b5056fea26469706673582212208c73f75a60d2d4beae6fd2703d54826fb5ed87e51f8a2268e17019036b88f07a64736f6c63430008070033",
  "linkReferences": {},
  "deployedLinkReferences": {}
}