{
  "_format": "hh-sol-artifact-1",
  "contractName": "FxChild",
  "sourceName": "contracts/FxChild.sol",
  "abi": [
    {
      "anonymous": false,
      "inputs": [
        {
          "indexed": false,
          "internalType": "address",
          "name": "rootMessageSender",
          "type": "address"
        },
        {
          "indexed": false,
          "internalType": "address",
          "name": "receiver",
          "type": "address"
        },
        {
          "indexed": false,
          "internalType": "bytes",
          "name": "data",
          "type": "bytes"
        }
      ],
      "name": "NewFxMessage",
      "type": "event"
    },
    {
      "inputs": [],
      "name": "fxRoot",
      "outputs": [
        {
          "internalType": "address",
          "name": "",
          "type": "address"
        }
      ],
      "stateMutability": "view",
      "type": "function"
    },
    {
      "inputs": [
        {
          "internalType": "uint256",
          "name": "stateId",
          "type": "uint256"
        },
        {
          "internalType": "bytes",
          "name": "_data",
          "type": "bytes"
        }
      ],
      "name": "onStateReceive",
      "outputs": [],
      "stateMutability": "nonpayable",
      "type": "function"
    },
    {
      "inputs": [
        {
          "internalType": "address",
          "name": "_fxRoot",
          "type": "address"
        }
      ],
      "name": "setFxRoot",
      "outputs": [],
      "stateMutability": "nonpayable",
      "type": "function"
    }
  ],
  "bytecode": "0x608060405234801561001057600080fd5b50610571806100206000396000f3fe608060405234801561001057600080fd5b50600436106100415760003560e01c806326c53bea146100465780634c8ff99e1461005b578063de9b771f1461006e575b600080fd5b610059610054366004610389565b6100b7565b005b610059610069366004610271565b610207565b60005461008e9073ffffffffffffffffffffffffffffffffffffffff1681565b60405173ffffffffffffffffffffffffffffffffffffffff909116815260200160405180910390f35b3361100114610126576040517f08c379a000000000000000000000000000000000000000000000000000000000815260206004820152600e60248201527f496e76616c69642073656e646572000000000000000000000000000000000000604482015260640160405180910390fd5b6000808061013684860186610295565b9250925092507ff091cd9cbbaff01426d8183042dff452ef18e6690f19816d5dd114e00761e0e883838360405161016f93929190610470565b60405180910390a16040517f9a7c4b7100000000000000000000000000000000000000000000000000000000815273ffffffffffffffffffffffffffffffffffffffff831690639a7c4b71906101cd908990879086906004016104b2565b600060405180830381600087803b1580156101e757600080fd5b505af11580156101fb573d6000803e3d6000fd5b50505050505050505050565b60005473ffffffffffffffffffffffffffffffffffffffff161561022a57600080fd5b600080547fffffffffffffffffffffffff00000000000000000000000000000000000000001673ffffffffffffffffffffffffffffffffffffffff92909216919091179055565b60006020828403121561028357600080fd5b813561028e81610516565b9392505050565b6000806000606084860312156102aa57600080fd5b83356102b581610516565b925060208401356102c581610516565b9150604084013567ffffffffffffffff808211156102e257600080fd5b818601915086601f8301126102f657600080fd5b813581811115610308576103086104e7565b604051601f82017fffffffffffffffffffffffffffffffffffffffffffffffffffffffffffffffe0908116603f0116810190838211818310171561034e5761034e6104e7565b8160405282815289602084870101111561036757600080fd5b8260208601602083013760006020848301015280955050505050509250925092565b60008060006040848603121561039e57600080fd5b83359250602084013567ffffffffffffffff808211156103bd57600080fd5b818601915086601f8301126103d157600080fd5b8135818111156103e057600080fd5b8760208285010111156103f257600080fd5b6020830194508093505050509250925092565b6000815180845260005b8181101561042b5760208185018101518683018201520161040f565b8181111561043d576000602083870101525b50601f017fffffffffffffffffffffffffffffffffffffffffffffffffffffffffffffffe0169290920160200192915050565b600073ffffffffffffffffffffffffffffffffffffffff8086168352808516602084015250606060408301526104a96060830184610405565b95945050505050565b83815273ffffffffffffffffffffffffffffffffffffffff831660208201526060604082015260006104a96060830184610405565b7f4e487b7100000000000000000000000000000000000000000000000000000000600052604160045260246000fd5b73ffffffffffffffffffffffffffffffffffffffff8116811461053857600080fd5b5056fea26469706673582212205b1ce57366b2b702281ec4585ab73aef5250af783ed0ddcd94870ef99085af7664736f6c63430008070033",
  "linkReferences": {},
  "deployedLinkReferences": {}
}